:020000040000fa
:080000000002040000000000f2
:020000040000fa
:04000800ea03000007
:020000040000fa
:04000c0002040000ea
:020000040000fa
:0400100020040000c8
:020000040000fa
:04001400f4030000f1
:020000040000fa
:040018000c040000d4
:020000040000fa
:04001c0016040000c6
:020000040000fa
:040020002a040000ae
:020000040000fa
:0400240032050000a1
:020000040000fa
:04002800320500009d
:020000040000fa
:04002c003205000099
:020000040000fa
:040030003205000095
:020000040000fa
:040034007e03000047
:020000040000fa
:04003800320500008d
:020000040000fa
:04003c003205000089
:020000040000fa
:040040003205000085
:020000040000fa
:040044003205000081
:020000040000fa
:04004800320500007d
:020000040000fa
:04004c003205000079
:020000040000fa
:040050003205000075
:020000040000fa
:04005400a004000004
:020000040000fa
:04005800340400006c
:020000040000fa
:04005c003205000069
:020000040000fa
:040060003205000065
:020000040000fa
:040064003205000061
:020000040000fa
:04006800320500005d
:020000040000fa
:04006c003205000059
:020000040000fa
:040070003205000055
:020000040000fa
:040074003205000051
:020000040000fa
:04007800320500004d
:020000040000fa
:04007c003205000049
:020000040000fa
:040080003205000045
:020000040000fa
:040084003205000041
:020000040000fa
:04008800320500003d
:020000040000fa
:04008c003205000039
:020000040000fa
:040090003205000035
:020000040000fa
:04009400fc04000068
:020000040000fa
:04009800320500002d
:020000040000fa
:04009c003205000029
:020000040000fa
:0400a0003205000025
:020000040000fa
:0400a4003205000021
:020000040000fa
:0400a800320500001d
:020000040000fa
:0400ac003205000019
:020000040000fa
:0400b0003205000015
:020000040000fa
:0400b4003205000011
:020000040000fa
:0400b800320500000d
:020000040000fa
:0400bc003205000009
:020000040000fa
:0400c0003205000005
:020000040000fa
:0400c4003205000001
:020000040000fa
:0400c80032050000fd
:020000040000fa
:0400cc0032050000f9
:020000040000fa
:0400d00032050000f5
:020000040000fa
:0400d40032050000f1
:020000040000fa
:0400d80032050000ed
:020000040000fa
:0400dc0032050000e9
:020000040000fa
:0400e00032050000e5
:020000040000fa
:0400e40032050000e1
:020000040000fa
:0400e80032050000dd
:020000040000fa
:0400ec0032050000d9
:020000040000fa
:0400f00032050000d5
:020000040000fa
:0400f40032050000d1
:020000040000fa
:0400f80032050000cd
:020000040000fa
:0400fc0032050000c9
:020000040000fa
:0401000032050000c4
:020000040000fa
:0401040032050000c0
:020000040000fa
:0401080032050000bc
:020000040000fa
:04010c0032050000b8
:020000040000fa
:0401100032050000b4
:020000040000fa
:0401140032050000b0
:020000040000fa
:0401180032050000ac
:020000040000fa
:04011c0032050000a8
:020000040000fa
:0401200032050000a4
:020000040000fa
:0401240032050000a0
:020000040000fa
:04012800320500009c
:020000040000fa
:04012c00e6040000e5
:020000040000fa
:040130003205000094
:020000040000fa
:040134003205000090
:020000040000fa
:04013800320500008c
:020000040000fa
:04013c003205000088
:020000040000fa
:040140003205000084
:020000040000fa
:040144003205000080
:020000040000fa
:04014800320500007c
:020000040000fa
:04014c003205000078
:020000040000fa
:040150003205000074
:020000040000fa
:040154003205000070
:020000040000fa
:04015800320500006c
:020000040000fa
:04015c003205000068
:020000040000fa
:040160003205000064
:020000040000fa
:040164003205000060
:020000040000fa
:04016800320500005c
:020000040000fa
:04016c003205000058
:020000040000fa
:040170003205000054
:020000040000fa
:040174003205000050
:020000040000fa
:04017800320500004c
:020000040000fa
:04017c003205000048
:020000040000fa
:040180003205000044
:020000040000fa
:040184003205000040
:020000040000fa
:04018800320500003c
:020000040000fa
:04018c003205000038
:020000040000fa
:040190003205000034
:020000040000fa
:040194003205000030
:020000040000fa
:04019800320500002c
:020000040000fa
:04019c003205000028
:020000040000fa
:0401a0003205000024
:020000040000fa
:0401a4003205000020
:020000040000fa
:0401a800320500001c
:020000040000fa
:0401ac003205000018
:020000040000fa
:0401b0003205000014
:020000040000fa
:0401b4003205000010
:020000040000fa
:0401b800320500000c
:020000040000fa
:0401bc003205000008
:020000040000fa
:0401c0003205000004
:020000040000fa
:0401c4003205000000
:020000040000fa
:0401c80032050000fc
:020000040000fa
:0401cc0032050000f8
:020000040000fa
:0401d00032050000f4
:020000040000fa
:0401d40032050000f0
:020000040000fa
:0401d80032050000ec
:020000040000fa
:0401dc0032050000e8
:020000040000fa
:0401e00032050000e4
:020000040000fa
:0401e40032050000e0
:020000040000fa
:0401e80032050000dc
:020000040000fa
:0401ec0032050000d8
:020000040000fa
:0401f00032050000d4
:020000040000fa
:0401f40032050000d0
:020000040000fa
:0401f80032050000cc
:020000040000fa
:0401fc0032050000c8
:020000040000fa
:0402000032050000c3
:020000040000fa
:0402040032050000bf
:020000040000fa
:0402080032050000bb
:020000040000fa
:04020c0032050000b7
:020000040000fa
:0402100032050000b3
:020000040000fa
:0402140032050000af
:020000040000fa
:0402180032050000ab
:020000040000fa
:04021c0032050000a7
:020000040000fa
:0402200032050000a3
:020000040000fa
:04022400320500009f
:020000040000fa
:04022800320500009b
:020000040000fa
:04022c003205000097
:020000040000fa
:040230003205000093
:020000040000fa
:04023400320500008f
:020000040000fa
:04023800320500008b
:020000040000fa
:04023c003205000087
:020000040000fa
:040240003205000083
:020000040000fa
:04024400320500007f
:020000040000fa
:04024800320500007b
:020000040000fa
:04024c003205000077
:020000040000fa
:040250003205000073
:020000040000fa
:04025400320500006f
:020000040000fa
:04025800320500006b
:020000040000fa
:04025c003205000067
:020000040000fa
:040260003205000063
:020000040000fa
:04026400320500005f
:020000040000fa
:04026800320500005b
:020000040000fa
:04026c003205000057
:020000040000fa
:040270003205000053
:020000040000fa
:04027400320500004f
:020000040000fa
:04027800320500004b
:020000040000fa
:04027c003205000047
:020000040000fa
:040280003205000043
:020000040000fa
:04028400320500003f
:020000040000fa
:04028800320500003b
:020000040000fa
:04028c003205000037
:020000040000fa
:040290003205000033
:020000040000fa
:04029400320500002f
:020000040000fa
:04029800320500002b
:020000040000fa
:04029c003205000027
:020000040000fa
:0402a0003205000023
:020000040000fa
:0402a400320500001f
:020000040000fa
:0402a800320500001b
:020000040000fa
:0402ac003205000017
:020000040000fa
:0402b0003205000013
:020000040000fa
:0402b400320500000f
:020000040000fa
:0402b800320500000b
:020000040000fa
:0402bc003205000007
:020000040000fa
:0402c0003205000003
:020000040000fa
:0402c40032050000ff
:020000040000fa
:0402c80032050000fb
:020000040000fa
:0402cc0032050000f7
:020000040000fa
:0402d00032050000f3
:020000040000fa
:0402d40032050000ef
:020000040000fa
:0402d80032050000eb
:020000040000fa
:0402dc0032050000e7
:020000040000fa
:0402e00032050000e3
:020000040000fa
:0402e40032050000df
:020000040000fa
:0402e80032050000db
:020000040000fa
:0402ec0032050000d7
:020000040000fa
:0402f00032050000d3
:020000040000fa
:0402f40032050000cf
:020000040000fa
:0402f80032050000cb
:020000040000fa
:0402fc0032050000c7
:020000040000fa
:0403000032050000c2
:020000040000fa
:0403040032050000be
:020000040000fa
:0403080032050000ba
:020000040000fa
:04030c0032050000b6
:020000040000fa
:0403100032050000b2
:020000040000fa
:10040000ef4a21000eff22000e01880000000000cc
:10041000000020000000e000020032000001200087
:100420002002880014000700900107000000e0008f
:1004300003003a00c0202400010020000200370021
:100440000000200001002000810f70000100320038
:100450000f000700100020000000e0000200320042
:100460001064020000000000726002000000000042
:100470000040da000000fe00601720000000e000ed
:1004800002003200002020009001880000000600d9
:10049000a1028800800478000000eb001f003700f4
:1004a000e284440054a0b4009905ba00e2844400f8
:1004b00054a0b4009906ba00e284440054a0b400e9
:1004c0000006eb00476fde00fd07b200ae018800ba
:1004d000636ce10003003a000ad801000000eb0061
:1004e0000e003700606ce10008003a00004deb00a0
:1004f0000a05e800020039003420ec000af0a000f0
:100500008b05e900f9ff3e00040037006168e10057
:10051000010032000086eb000b00070019c7ba008b
:100520000e04e0001905ba0003003a000a00e000da
:10053000dbff3a0000000600fe07b200ae028800b2
:100540008a047800f5ff37000cd0a300e20f4d00bd
:100550001c00390089027800354dba000a05e80010
:10056000020039003420ec000af0a0008b05e900fd
:100570000f003200254dba000a05e80002003900dc
:100580003420ec000af0a0008b05e90008003200de
:100590000c00e0000600320015cdba000a05e800a4
:1005a000020039003420ec000af0a0008b05e900bd
:1005b0008984e80054a0b4000b00e000e2ff3a0098
:1005c000000006009902ba00055d78008b05e9007d
:1005d000f7ff3200c82ade00055d78008b05e900d0
:1005e000f3ff32000c00e000f1ff320019ddba0029
:1005f000eeff3700000000000000000000000000d7
:1006000000000000000000000000000000000000ea
:1006100000000000000000000000000000000000da
:1006200000000000000000000000000000000000ca
:1006300000000000000000000000000000000000ba
:1006400000000000000000000000000000000000aa
:10065000000000000000000000000000000000009a
:10066000000000000000000000000000000000008a
:10067000000000000000000000000000000000007a
:10068000000000000000000000000000000000006a
:10069000000000000000000000000000000000005a
:1006a000000000000000000000000000000000004a
:1006b000000000000000000000000000000000003a
:1006c000000000000000000000000000000000002a
:1006d000000000000000000000000000000000001a
:1006e000000000000000000000000000000000000a
:1006f0000000000000000000000000003600f800cc
:10070000809fbe00829fbe00849fbe00869fbe0069
:100710000000fa00608080000000e000020032006b
:100720006080800000000100008080000000e80080
:1007300000808800208080000000e8002080880081
:10074000408080000000e800408088000180800038
:1007500080382100808f50000200360010c0b300a6
:1007600002f0b7002180800080382100808f500087
:100770000200360010c0b30006f0b70041808000d0
:1007800080382100808f50000200360010c0b30076
:100790000af0b700904a2100104078008040e8003d
:1007a000904a210001487800804a210011c0b3001e
:1007b000014878000068a9000080fa004f03be00dd
:1007c0004f02be004f01be004f00be003600f900d0
:1007d000004006003600f800c028a9000000eb0029
:1007e00098640200000000003600f800a0640200d7
:1007f00000000000c048a90010002000986402001a
:10080000000000003600f800c068a90020002000a9
:1008100098640200000000003600f800c088a900bb
:100820003000200098640200000000003600f8004c
:10083000c0a8a90040002000986402000000000049
:100840003600f800c608a900700020009864020075
:10085000000000003600f800c488a900a0002000b5
:100860009864020000000000809fbe000000fa00b3
:10087000c1958000b0958000808f500010003a0034
:10088000d195800000102000008060000000e00092
:100890000b003a0000000000111180000010200041
:1008a000008060000000e000fbff3200d095800077
:1008b0000090a000d09588002188a9001d00370075
:1008c0000188a90014003700c0958000104078000e
:1008d0000080fb0020118800c09580000000e80027
:1008e000c0958800c1958000c0352100808f5000e0
:1008f00002003a00c02b2100c0958800d0958000ee
:100900000080a100d0958800c1958000b09580003e
:10091000808f50000600320011118000002020005e
:10092000008060000000e000e7ff320001003700b7
:10093000000000000080fa004f00be0000400600ea
:10094000809fbe000000fa001800370090958000dc
:100950003111800081407800014878009095800036
:100960000000e800909588009195800040362100b5
:10097000808f500002003a00c03521009095880019
:10098000d09580000010a100d0958800919580003e
:10099000a0958000808f500004003a00d095800020
:1009a0000000a000d09588000400370010118000de
:1009b000610060000000e000e4ff3a000168a90067
:1009c0000080fa004f00be0000400600801f780043
:1009d0000000fa0010118000620060000000e000da
:1009e000010032002222a9000828a9000080fa0094
:1009f0004f007800004006003600f800809fbe00df
:100a0000829fbe00849fbe00869fbe000000fa0049
:100a1000108280000000e00002003200108280009e
:100a200000000100d04a2100104078008040e8001a
:100a3000d04a210001487800c04a210011c0b3000b
:100a4000014878000368a9000080fa004f03be0047
:100a50004f02be004f01be004f00be003600f9003d
:100a6000004006000040da000000fe000000050023
:100a700003f0a200889fbe008a9fbe008c1f7800f2
:100a80001b010700220133006450e1004f003200d7
:100a90006420e1005200320003826c0007003b003a
:100aa0000905d0000306d000820f54000c065d003b
:100ab0000200390002003200890178000306780044
:100ac0008582550004003d000003fd008103fd0008
:100ad0008502ea008b854200840f720002003b0011
:100ae00060001000e08018006011b8000005eb0005
:100af0007a28e1000a00390006007800c75ddd00b1
:100b0000f707b200878075002d00370082817100e1
:100b10000a017800610560008180d1000080d30067
:100b20008502e900f9ff3b00060440008784480085
:100b300002003b0060041400e0841c000988a3004c
:100b4000070032008a8171008281710061016400b6
:100b50008904d1000884d3008b05e8001700370012
:100b60000978a30013003a000b00e00013003400e2
:100b70008b05e9000804440089844c000a44740091
:100b80000978a3000d003a000b00e00007003400d4
:100b90008b05e9000804440089844c0001003a00f8
:100ba0000b0020000978a300f7ff32000001eb00e2
:100bb00002003700828171000a017800910007006d
:100bc0000cf0a70001f0a000da0037006420e1007b
:100bd00002003a00838f6c00da0033000801be0087
:100be0000200be00d3003700889fbe008a9fbe006f
:100bf0008c1f7800be000700c500330003866c0020
:100c00006450e1002e0032006420e1003300320025
:100c10006150e1002f0032006120e100310032001c
:100c200085855500eb07b00009002000080420006e
:100c3000050037000804440089844c000a00310094
:100c40000603430087834b000001530081815b0052
:100c5000f8ff33000203be000800a00008044400af
:100c600089844c00f6ff3900c639dd00830173002a
:100c700001003200130020008904d1000884d30051
:100c80000998a300050032000800a7000300a00097
:100c90008904d1000884d3008b05e8008904d100c1
:100ca0000884d3000001eb000281d2005500070048
:100cb00001f0a1000cf0a70001f0a0009d0037009a
:100cc0006420e1009f0032000801be000200be0067
:100cd000f7ff37006120e1009a0032006000b800a1
:100ce000f3ff37000000200001f82700f0ff370075
:100cf0001400200007023700f4ff2f000502370020
:100d00000001be00650007000470a70003f0a10009
:100d10006509b100160032000d0035006828e100b9
:100d200006003500f0ff2f00f1ff27000300e00070
:100d300013003b00010028000000050000004000f7
:100d4000818048008502e900fcff3a000800370076
:100d5000f88f420002003c008000eb00000005001c
:100d60008100d1000080d3008502e800fcff3a003a
:100d70000300e00002003b0060001000e08018006b
:100d8000000006000001be00440007000470a70038
:100d900003f0a10003f8a30013003a006509b100b5
:100da00010003200090035006928e100020035001a
:100db000010028000000050000004000818048007c
:100dc0008502e900fcff3a0000000600f88f4200af
:100dd000050035008100d1000080d3008502e800c5
:100de000fcff3a00000006008000eb000000050058
:100df0004f89de0082017800e10137006011b80000
:100e0000ef01370081002000618055000b003d009c
:100e10000b00200061fe2f000100e1001d003400e6
:100e200082817100610164008904d1000884d300cb
:100e30000000e800faff3a00710020006100640041
:100e400003007000020060000900320061044400e9
:100e5000e0844c000988a500050032008b05e800fd
:100e60006808e10002003a008904d1000884d30038
:100e7000f20f20000258e10005003d00c75ddd00d3
:100e8000f907b200898075000800780000000600ac
:100e90000bf827008b00780000000500c70ade0071
:100ea000f107b200f50fb20008003200e1cf4200b6
:100eb000020032000170a00024000500810f7000c4
:100ec000010032000408050044000500810f700095
:100ed00002003a00140005008502e900000040000d
:100ee00081c04800fcff3b000170a0002400050009
:100ef0000004be00e9ff07000003be000405be00b9
:100f00000200be00e5ff0700844f750000000600e8
:100f10000200be006450e100050036006420e100dc
:100f2000020036000968a30001003a000800be0074
:100f30000160a0004f0678004f05be004f04be00c0
:100f400000000600f0ff2f00f1ff2700f9ff370037
:100f5000889fbe008a9fbe008c1f7800e4ff0700b8
:100f6000ebff330003866c006450e1002400320084
:100f70006420e100270032006150e10022003200cd
:100f80006120e100210032008b854200eb07b100b7
:100f90000134b800003ab8000804420089844a00cd
:100fa000013ab8000030b8008880400009014a00ca
:100fb0000400330000004000818048000201490025
:100fc0008b05e900c909dd008301700001003200d2
:100fd00013002000c814de004814dd004709de00bd
:100fe0001200b200c808de000884700085ff070008
:100ff00001f0a1000cf0a70001f0a000cdff370028
:101000006120e100cfff32000801be000200be00f7
:10101000f7ff37006150e100fcff3a00c9ff3700dd
:101020006022b800060220000000d0008180d200bb
:101030000482d2008582d2000000a0000202520089
:1010400083825a00030031000202420083824a0078
:101050000000a1000603e900f3ff3a0000000600cb
:10106000889fbe008a9fbe0030044200b0844a00c0
:1010700030054b0090854b006000b1000898be0021
:101080000a90be000440e10005c8e10006d0e1007e
:1010900007d8e10002003100680040001008e800b5
:1010a0004f05be004f04be0000000600889fbe0032
:1010b0008a9fbe00100478009004900020059000e4
:1010c000b00590000418540005985c0006185d00f7
:1010d00007985d00110020000440e10005c8e10010
:1010e00006d0e10007d8e100010039008000eb00e4
:1010f000108810004f05be004f04be00000006001f
:101100001200fa00889fbe008a9fbe008c9fbe001e
:10111000e0b79f00f1b79f0082bf9f0093bf9f0081
:101120000605be000404be000000eb00d0b79f001f
:10113000c0b79f00b0b79f00a0b79f0090b79f00b7
:10114000000678005fb19700cfb0970082014100a0
:101150003fb097000200e00004003d0037000700a8
:101160007e805700beff07000300370033000700f2
:101170007e805700cdff0700dfb697000d00e0002e
:101180000c0035006fb29700ffb297000fbb9700bd
:101190009fbb970010002000010020006011b800e4
:1011a0000002720081827200020373008383730065
:1011b0001b0007000c06e80001042000810f560008
:1011c000e0ff3a000d00e00004003d000802be0010
:1011d0000a03be007e805700a1ff07005fa89700aa
:1011e0000000e00005003a001fb29700afb2970080
:1011f0003fb39700cfb39700090007006fb0970087
:10120000ffb097000fb997009fb997004f06be0037
:101210004f05be004f04be000080fa00000006002b
:101220000100070000000600a4b79f00b5b79f00ab
:10123000c6b79f00d7b79f00000006004f09de0029
:1012400082817100b3b79f004f01de0081804000b2
:1012500082807000a1b79f008fb097004f09de0019
:10126000000040000200700090b79f007fa8970028
:101270004f01de00818040008280700081b79f00b6
:101280000d0007004f3ade0000004000040070002f
:10129000f0af9f00080007000402420085824a0068
:1012a00006034b0087834b00dfff07000802be00e8
:1012b0000a03be00000006002fb29700bfb29700dd
:1012c0004fb39700dfb3970000000600881f780037
:1012d00018002000881f780089ff07008f87e90029
:1012e0004f04780000000600801feb0084ff070019
:1012f0008f87e90000000600889fbe008a9fbe001d
:10130000e00f5000e08f5800e00f5900e08f5900c7
:101310000c003d006044b8006055b8000000540067
:1013200081805c0002015d0083815d001800200067
:101330001500070008003d00180007000004eb003e
:10134000050037000004eb000f00070002003d001d
:101350001200070018002000dcff07000800e00072
:10136000060032006022b8006033b800000052006e
:1013700081805a0002015b0083815b004f05be0043
:101380004f04be0000000600e00f5200e08f5a003c
:10139000e00f5b00e08f5b00000006006044b800d7
:1013a0006055b8000402540085825c0006035d00ad
:1013b00087835d0000000600889fbe008a9fbe00f4
:1013c0008c1f7800e00f5000e08f5800e00f5900ac
:1013d000e08f59000d003d006044b8006055b80032
:1013e0000000540081805c0002015d0083815d008b
:1013f0001c0020000820e10009a8e1000ab0e1007b
:101400000bb8e1000d003d00080037000006eb00be
:10141000e00f5200e08f5a00e00f5b00e08f5b00ae
:1014200006003d006044b8006055b8000402540056
:1014300085825c0006035d0087835d00aaff0700cc
:101440000c00e000060032006022b8006033b800f3
:101450000000520081805a0002015b0083815b0022
:101460004f0678004f05be004f04be000000060086
:10147000889fbe008a9fbe008c1f78000006eb008c
:10148000e00f5000e08f5800e00f5900e08f590046
:1014900007003d006044b8006055b80000005400eb
:1014a00081805c0002015d0083815d001c002000e2
:1014b000e00f5200e08f5a00e00f5b00e08f5b000e
:1014c00007003d006044b8006055b80004025400b5
:1014d00085825c0006035d0087835d000c00a2002e
:1014e000660007000c00e000060032006022b80031
:1014f0006033b8000000520081805a0002015b0096
:1015000083815b004f0678004f05be004f04be008c
:1015100000000600889fbe008a9fbe00841f7800de
:1015200073fe07004f00780011003300f0ff2f001a
:10153000838f6c0006003b00040565000a00a700cd
:101540000800370009f0a60010002000080037004e
:10155000820f5400838f5c000300390010002000cc
:1015600001003e000000200009f0a7000000ea0092
:101570004f05be004f04be000000e0000000060062
:10158000881f7800030478000300e00007003d0096
:1015900060001000e080180060011900e08119006f
:1015a00002003b0001f02d0003003700040007009b
:1015b00008f0a70001f0a0004f047800000006002a
:1015c000889fbe008a9fbe000082700004027100e6
:1015d00004827100260032000004be000200be003a
:1015e0006011b8006b092000950220000182cf0035
:1015f0000a0039000541b1000082cf000700390020
:101600000541b1000982cf00040039000541b10055
:101610000882cf00010039000541b10005425200a7
:10162000120032000a003b008281710061016400f7
:101630008100d1000080d3008984d3000884d300c6
:101640008b05e8000442e800f7ff3a000700370086
:101650000804440089844c00000048008180480050
:101660008b05e9000442e900f9ff3a00e5fd0700b7
:101670004f05be004f04be0000000600889fbe005c
:101680008a9fbe008c9fbe000404b8000506b80007
:101690008904460060854e000606b8000a0546002b
:1016a000e0854e000706b8008b054600040eb80022
:1016b000890446000a854e00e0854d00050eb800fd
:1016c0000a0546008b854e00060eb8008b054600c5
:1016d0000416b8000a0546008b854e000516b800b2
:1016e0008b054600041eb8008b0546000800be00ae
:1016f0000a01be004f06be004f05be004f04be00eb
:10170000000006000e00fa00889fbe008a9fbe00ff
:101710008c1f7800a0bf9f00010478000205be0066
:1017200080047800880078006c805700380107003a
:1017300068066000000278000430a100e10f52004a
:1017400013003a00f481570008017800afb8970001
:1017500009007800410007000000e00002003a00a4
:101760006000b800030037000fb897009fb89700db
:101770009ffd0700c0b79f00d1b79f006fb19700d2
:10178000ffb197000a0141008b8149001600370024
:10179000e20f520018003a0014002000f4815700b4
:1017a00008017800afb8970009007800a903070086
:1017b0000000e00002003a006000b80003003700bb
:1017c0000fb897009fb8970089fd0700c0b79f002a
:1017d000d1b79f006fb19700ffb197007880570095
:1017e000360207000a01be004fb09700dfb0970035
:1017f000c30107000d003700e30f520003003a0059
:101800000000200001f82700050037006000b80044
:10181000e40f520005003a00f0ff2f00f1ff27000f
:10182000c0b79f00d1b79f0002003700c0b79f002c
:10183000d1b79f004fb09700dfb097000c00e000d9
:101840000100320001f0a2004f0678004f05be00f3
:101850004f04be000080fa0000000600ea8747003f
:10186000889fbe008a9fbe008c9fbe008e1f78009e
:10187000d0b79f00e2b79f0003047800e722b900c9
:10188000840678000006eb00010037001c002000f1
:10189000810578008b00780000c3b300b14f1000c1
:1018a000faff3200000ceb003814780008057800cd
:1018b0008004eb002a0037008d8f540018003d0093
:1018c00072002000110009008204d8000100e0002d
:1018d00003003a0064054500001deb000015eb0015
:1018e0001b02fb00cfa2de000403b1000580b100a3
:1018f000a2002000030020001a0078009a00900047
:10190000f4b79f0085bf9f00500407007fb2970087
:101910008fba9700001d420001954a000d00370064
:101920001000200001002000180c400058944800ce
:101930008d8f540008003a0040c3b3009b4f100045
:101940000500340012002000030020001a0d4100a1
:101950005a9549008904e8008b05e8001c00200026
:101960001b4078008000fb000103b100e98f5000ac
:10197000d1ff36008d8f5400010034008d047800b3
:10198000e1c2b300814f500001003a008b05e8002e
:101990000900e0002c003a000b0078000500370039
:1019a0000081eb008081eb00180c41005894490045
:1019b0001c0020008005780001c3b300b0cf1000e8
:1019c000f7ff3200200037008d8f54001d003d00ce
:1019d00072002000110009008204d8000100e0001c
:1019e00003003a0064054500001deb000015eb0004
:1019f0007bfa97000402fb00cfa2de000403b100d3
:101a00000580b100a2002000030020001a00780029
:101a10009a009000f4b79f0085bf9f000b04070059
:101a20007fb297008fba9700001d420001954a00cf
:101a30008904e8000080eb008080eb00180c400077
:101a4000589448001c0020000b0778008e05780091
:101a50003b00fb000003b100e90f5000daff360045
:101a60008c0578007d002000110009008d04d8004d
:101a70000100e00018003200818656001a0178004b
:101a80009a019000e00f5100e08f590008003200e9
:101a90000d00e9004200dd004146210000804000c9
:101aa0009000900010007800e8030700008dbe0051
:101ab000898446006168b900181c10001894180049
:101ac00005003700e7845400720020000300200066
:101ad000180c410058944900e68f5400050034006a
:101ae000aa0078002a007800e00f5000e08f58002c
:101af000f4ff32000c00e000340032001e40780099
:101b000051c6b300814f50000300320051c4b300ee
:101b1000814f50002c003a005e457800b0c2b300ff
:101b2000804f550003003200d1c2b300814f5500f1
:101b300002003a000e07e800010037000045780077
:101b40000e0678006000b8008005eb000f0037003b
:101b5000f20f2e00535f2000820f5000838f580039
:101b600009003c00a200200003002000b70307008a
:101b70000d01fb00cf91de000203b1000380b10034
:101b800002004000838048001b0020000c07780002
:101b90000e067800bc4678000d01fb000203b10080
:101ba000e90f5100eaff3600d2c2b300824f550060
:101bb00002003a0060001000e0801800180c40009d
:101bc00058944800010037008c057800efb1970069
:101bd0000300e000050032000b00e00001003a00c5
:101be0005fb797006fb097000e0878007200200072
:101bf000110009008204d8004f0778004f06be008c
:101c00004f05be004f04be00af00b100000006004b
:101c1000889fbe008a9fbe008c9fbe000004780093
:101c20000106780098047800890578000b05780093
:101c30008a057800bb4678000d00fb009300070082
:101c40000000e000f9ff3a00d0c2b30080cf560098
:101c500003003a000b0578008100200005003700e2
:101c60008000eb00b0c2b30080cf560001003a0004
:101c70000b0578001a407800e2c6b300824f50008e
:101c800003003200e2c4b300824f500027003a0044
:101c90008a0078005141780010c6b300804f51008f
:101ca000040032000000eb0013c4b300834f510066
:101cb0005c003a0051417800e0c6b300804f51000b
:101cc000040032000000eb00e3c4b300834f510076
:101cd00054003a008104780080c2b300d94f10004c
:101ce0000b003a00640545008a057800ba46780082
:101cf0000d00fb00570007000000e000faff3a006b
:101d0000f0c5b30080cf5600f7ff32000100370066
:101d1000890578004000200091c2b3009bcf1000dd
:101d200040003a008b04e8003e00370092c6b30042
:101d3000824f50000300320092c4b300824f500023
:101d40003c003a005a417800e0c6b300804f510091
:101d5000040032000000eb00e3c4b300834f5100e5
:101d600030003a005a41780060c6b300804f5100fd
:101d7000040032000000eb0063c4b300834f510045
:101d800028003a008a047800010078003000b3008f
:101d9000d940780092c6b30082cf500003003200d1
:101da00092c4b30082cf50001e003a008900780030
:101db00051417800e3c6b300834f51000300320065
:101dc000e3c4b300834f510016003a00514178003c
:101dd00093c6b300834f51000300320093c4b30095
:101de000834f51000f003a005141780043c7b300c0
:101df000834f51000300320043c5b300834f5100ad
:101e000008003a005141780093c7b300834f510056
:101e10000300320093c5b300834f510001003a0024
:101e20008104e8000c00e00005003200090e780093
:101e300003003700010078000000a0008a04780049
:101e4000090c78004f06be004f05be004f04be00cf
:101e5000000006000003b1000b0035009000b10047
:101e6000080034008000b100070035009001b10087
:101e7000040034007000b100030035009001b1008f
:101e800001003c0010000500000005006900e100b1
:101e9000040035006d00e100030034000002b100d1
:101ea0000100320000000500100005000600fa00e5
:101eb000881f780000047800880078006880570048
:101ec000d2bf9f00e3bf9f00d80007005fb9970013
:101ed000efb9970018007800980090001cfc0700ec
:101ee000008cbe004fb99700cf91de00080078004b
:101ef000720007004f0478000080fa00000006001e
:101f00000400fa00889fbe008a1f7800b0bf9f00bf
:101f1000c1bf9f000204be00e00f5100e08f5900d6
:101f2000600032006011b80071fb07000000e000a3
:101f30005c003200e00f5400e08f5c002b003d009d
:101f400060041400e0841c000005eb000000200089
:101f500001f823000808a30006003200c251dd008a
:101f60004248210002814100920190001201780054
:101f7000f7fb07008904d1000884d300e00f540068
:101f8000e08f5c00030032000a05e800e50f550011
:101f9000f0ff3a000001be000000200001f823001d
:101fa00011fb07000001be006a805700bfff070059
:101fb0000000e00033003d00e00f5400e08f5c00c3
:101fc00038003200e2112b00f3a420006a80570091
:101fd000b6ff07000000e0002a003d006104540045
:101fe000e0845c00f7ff3a002a0037000005eb00b0
:101ff0000000200001f823000808a30006003200ba
:10200000c251dd004248210002814100920190004e
:1020100012017800cefb07008984d1000884d30028
:10202000e00f5400e08f5c00030032000a05e80076
:10203000e50f5500f0ff3a000001be006a8057002e
:102040009aff07000000e0000e003d00e00f540082
:10205000e08f5c0013003200e25a2c00d3492700c5
:102060006a80570091ff07000000e00005003d0076
:1020700061045400e0845c004240a900f6ff3c008b
:10208000040037000000e00002003a0000012000d8
:1020900003003700e10f500002003a0080002000ea
:1020a000860007003fb89700cfb897004f0578002b
:1020b0004f04be000080fa00000006000400fa0091
:1020c000889fbe00000478008804780059007800da
:1020d0004702de0084007800f10fb200e14f4200b9
:1020e00009003a0080007800f107b20020002000cb
:1020f0004b003a00100020001800e00048003200b9
:1021000020002000460037000100e0000a003a00ed
:1021100008007800c2bf9f00d3bf9f007700070070
:10212000800078000000eb004fb99700dfb99700fe
:102130000100e0003a003c004f88de0002814000d0
:1021400083014800e00f2000800f5100e08f59000c
:102150000a0034001900e00003003d0000002000e8
:1021600001f82f00020037000000200001f82700ce
:10217000008cbe001000200029003700e00f510045
:10218000e08f5900050034004711dd00f0072800fa
:1021900019006000800c7100200037009900780061
:1021a0000000280000806000f10fb2000170a00064
:1021b000810c780061015100e0815900f70f410066
:1021c000e08f490004003d00800c7800000ceb001b
:1021d0000000eb0012003700ef0f410003003d004c
:1021e000010c7800800ceb00700141000201ea0054
:1021f00009003200f0001100990178008119dd001a
:10220000980078008208de00018c71009900780047
:102210000209de00820c7800990c70000080eb004f
:102220004f04be000080fa0000000600889fbe0038
:102230000004be0000f82700590060004700de00df
:10224000f20f2000820f50000a003a00000ceb0051
:10225000f2072000190161002000200015003a005b
:10226000100020001100e0001200320020002000c9
:10227000100037000000e00004003a000100780080
:102280001e0007000000e00008003c00f2072800e4
:102290001901610001f02300810c710021f82f0069
:1022a000010c40000080eb0002003700000ceb0046
:1022b0000000eb004f04be0000000600e5006000d7
:1022c000030032001002200000a588000000060074
:1022d00078006000020032002002200000a5880083
:1022e0000000060010a580000000e00001003200a0
:1022f00000000100004a2100000006008000780074
:10230000d10178000400280004826100f307b200c4
:1023100083087800120020000e003a009001780037
:102320000300e0001b003200830878000008eb0087
:1023300012ff2f00070037008381410090027800d0
:10234000cf2ade0085887100900178000388410063
:102350000201e90091017800f5072000858f510006
:10236000f5ff360005003700cf19dd009002d100df
:10237000058871009108d1000201e8009101780000
:10238000f50f2000858f5100f7ff3e00f007200079
:102390008088610091087200020078000000060049
:1023a000ee874700889fbe008a9fbe008c9fbe00bc
:1023b0008e1f7800f0b79f00010678008205780034
:1023c00000047800080578000a047800b846780010
:1023d0000d00fb00adfe07000000e000f9ff3a0031
:1023e000d0c2b30080cf56000300320000c0e90025
:1023f00080cf560002003a000a05e80001003700cd
:10240000804678000b00e00005003500e18f5500a4
:102410000300320040022000808f55000600340087
:102420006044b8000c00e000720032007fb09700fa
:10243000000e7800480037000b00e0000e0032006c
:10244000f08f55001a003a0000c3b3009a4f1000f5
:1024500017003a001a40900081c7b300814f500026
:102460000300320081c5b300814f500010003a00d4
:102470000a85e8000e003700ab00200000c3b3005f
:102480009a4f10000a003a001a40900081c7b3002a
:10249000814f5000040032008b00200081c5b30042
:1024a000814f500002003a000a85e8000b0120002d
:1024b0000a007800000278000400780001c3b3002d
:1024c000b0cf1000fbff3200040778006044b80072
:1024d000b4b79f000d003700413621008140500005
:1024e000c1ef9f006159b9000800be005701070005
:1024f0004fea97000401fb00cf91de00c8b79f00b0
:10250000d9b79f0002044000838448008e027800ff
:102510003e00fb0085bf9f003d0007000b017800d7
:102520008000780040362100400007008fba9700f5
:102530000000e000e8ff3a003fb29700850f550029
:1025400007003a006044b8000c00e00029003200a7
:10255000ffb29700050e78006044b80025003700f0
:1025600004825200903821000b0040001000fb0054
:10257000000252001700330011003a004fe99700a3
:102580000200fb00cf80de000000540081805c0070
:10259000800f5400818f5c00090039006159b90037
:1025a00085bf9f009efa07008fba97004fb1970032
:1025b000dfb19700820f5000838f58000500320072
:1025c0002002200000a588000084eb008084eb003e
:1025d00005003700d0c2b30080cf560002003a0099
:1025e00060041400e0841c000c00e00001003200d4
:1025f000050e78000800be004f0778004f06be00a9
:102600004f05be004f04be00ef00b1000000060001
:10261000800078001104b100030035009101b10081
:1026200001003c000050a00000000600030037003d
:10263000b0cf1000050032000201e90080017800ef
:102640000200e000faff3a000000050003007800f5
:1026500000000600e8874700889fbe008a9fbe00f2
:102660008c9fbe008e1f7800e0b79f008204780028
:1026700003047800e722b9000006eb0001003700f0
:102680001c0020008101780000c3b300b14f10008e
:10269000fbff3200000ceb0038147800880578004e
:1026a0000005eb002c003700840f550017003d009b
:1026b00072002000110009000205d8000100e000ae
:1026c00003003a00e4854500801deb008015eb0017
:1026d0001b0678009b069000446bdd00cc63de0097
:1026e000870373004463dd008140210001805200b4
:1026f000213f2100008040001000fb00cf80de0061
:10270000801d430081954b00110037001000200010
:1027100001002000180c400058944800840f550018
:102720000c003a008140210001805200213f21002d
:102730000080400071c0b30090cf1000050034004d
:1027400010002000010020009b0d4000db95480098
:102750000a05e8001c002000830678008d0178003f
:10276000334778008e00fb0062012000804021008a
:10277000f3b79f0084bf9f00acff07008002780082
:10278000ffb197000fba97000500e000c6ff3a00be
:10279000840f55000100340004057800e0c2b30046
:1027a000804f570001003a008d06e8000a00e00063
:1027b0002a003a000d007800050037000081eb0088
:1027c0008081eb00180c4100589449001c00200047
:1027d0008006780001c3b300b0cf1000f7ff3200cd
:1027e0001e003700840f55001b003d0072002000c2
:1027f000110009000205d8000100e00003003a00c2
:10280000e4854500801deb008015eb001b0378007c
:102810009b0390004439dd00cc31de008301710060
:102820004431dd008140210001805200213f210020
:10283000008040001000fb00cf80de00801d4100c2
:10284000819549000a05e8000081eb008081eb00da
:10285000180c4100589449001c0020000d07780016
:102860008e067800bd00fb00620120008040210040
:1028700084bf9f006dff0700800278000fba9700a9
:102880000500e000d7ff3a000c017800730020003b
:10289000110009000305d8000100e0001400320017
:1028a00001805100c200dd001b0278009b029000f5
:1028b0008100e900030033000402420085824a00df
:1028c000fbff3700848dbe000a054000cf80de008c
:1028d000181c1000189418000500370067055500f3
:1028e0007000200001002000180c4000589448009f
:1028f000e60f550005003400ab0078002b0078008f
:10290000e00f5000e08f5800f4ff3200180078000c
:1029100098009000420add00ce02de0085027200bf
:102920004202dd00048cbe000c00e00038003200e2
:102930001e40780001c7b300814f500003003200f1
:1029400001c5b300814f500030003a000e067800f8
:10295000dc457800b0c2b30080cf550003003200e0
:10296000d1c2b30081cf550002003a000c06e80046
:1029700001003700804578006000b8000001eb00de
:1029800013003700f20f2e00535f2000820f50001b
:10299000838f58000d003c00a2002000030020009f
:1029a00084bf9f00f5b79f00280007000d01fb00c2
:1029b000cf91de000203b1000380b10002004000ad
:1029c00083804800ffb297000fba970012002000e2
:1029d0000c0778000e067800bc4678008d01fb00dd
:1029e0000303b100e98f5100e6ff3600d3c2b30004
:1029f00083cf550002003a0060001000e08018000c
:102a0000041c400005944800010037000c017800c8
:102a10000900e000040032000200e00001003a007a
:102a20006fb797008e0c780072002000110009002b
:102a30000205d8004f0778004f06be004f05be00c4
:102a40004f04be008f00b10000000600020ab9006a
:102a5000001bb9000200b800810042008100430061
:042a6000000006006c
:020000040000fa
:102a640045450000570000004c410000560000009e
:102a7400534100004e490000005500004e4b000039
:102a84004e4f0000004500003030000000440000bc
:102a94000057000000450000004800000046000008
:102aa40000410000005a0000004f00003600000002
:102ab4004f350000004f0000310000004f3200008d
:102ac400004f0000330000004f34000000530000aa
:102ad40036000000533500000053000031000000b0
:102ae4005332000000530000330000005334000050
:102af40000520000005000000049000000430000a4
:102b040000560000004d0000005400000055000075
:102b140000420000004a0000002c000009000000f0
:102b24005858000000200000003100002c0900006b
:102b3400003000002c090000004600004c4f00004b
:102b4400574f0000464600002c09000000420000d8
:102b5400554f00002c0900000042000055430000be
:102b64002c09000000420000444f00002c09000022
:102b740000420000444300002c0900000042000011
:102b8400454f00002c0900000042000045430000ae
:102b94002c090000000d00000a00000000000000e5
:102ba4000000000000000000000000000000000021
:102bb4000000000000010000000000000000000010
:102bc40000000000010000000000000001000000ff
:102bd40000000000010000000001000000010000ee
:102be40000000000000100000001000000010000de
:102bf40000010000000100000001000000010000cd
:102c040001000000010100000100000001010000ba
:102c140001000000010100000101000001010000a9
:102c24000001000001010000010100000101000099
:102c34000101000001010000010100000100000089
:102c4400c0f90000a4b000009992000082f80000ce
:102c54008090000000000000060000001f0000003b
:102c640005000000020000002b0000004a010000e3
:102c7400090000001c0000001b000000030000000d
:102c840004000000190000001a0000001c000000ed
:102c94001b000000030000000400000019000000f5
:102ca4001a000000060000000600000006000000f4
:102cb40006000000060000000600000006000000f8
:102cc40006000000080000000600000037000000b5
:102cd40038000000060000000700000008000000a3
:102ce4000b000000110000001300000008000000a9
:102cf400090000000a0000000b0000000c000000a6
:102d04000d0000000e0000000f0000001000000085
:102d14001100000012000000130000005500000024
:102d2400500000008c00000000000000550000006e
:102d340096000000b40000000000000055000000f0
:0c2d4400690000008c000000000000008e
:020000040000fa
:102d50000200fa00004f78001e80fb006100600056
:102d6000004078000004e00002003200190ea800c4
:102d700001003700190ea9001e80fb0062006000f0
:102d80000000e00002003200192ea8000100370008
:102d9000192ea9001e80fb00640060000000e00006
:102da00002003200194ea80001003700194ea90098
:102db0001e80fb00680060000000e000020032009e
:102dc000196ea80001003700196ea9001e80fb00d3
:102dd000700060000000e00002003200198ea800c0
:102de00001003700198ea9009e80fb000002200020
:102df000008060000000e000020032007ceea800cd
:102e0000010037007ceea9009e80fb00000420003a
:102e1000008060000000e000020032007d2ea8006b
:102e2000010037007d2ea9001e4078000004e0005c
:102e300002003d002daea800010037002daea90014
:102e40000080fa00000006000200fa00000f78007f
:102e50001e007800c200de00b04721000008b80064
:102e60000100d100216229000080400090407800dc
:102e7000600a2100014878001e017800c210de00bf
:102e8000b04721000008b8008100d10040062000b2
:102e90008088b90000005100000f78009e00780083
:102ea000d0cc2c000008b8004308de0021622900c5
:102eb0000080400090407800700a210001487800ae
:102ec0001e017800d0cc2c000010b8004308de00b2
:102ed000ea00b90000005100216229000080400092
:102ee00090407800800a210001487800008a800024
:102ef000610060000000e00006003200800a21004e
:102f000010407800804078000174a100800a210000
:102f1000014878000080fa00000006000200fa0074
:102f2000000f78009e007800803e200000017800ad
:102f3000110009008280d8008000fd00000f780099
:102f40001e007800c200de00b04721000008b80073
:102f50000100d100216229000080400090407800eb
:102f6000600a2100014878001e017800c210de00ce
:102f7000b04721000008b8008100d10040062000c1
:102f80008088b90000005100000f78009e00780092
:102f9000d0cc2c000008b8004308de0021622900d4
:102fa0000080400090407800700a210001487800bd
:102fb0001e017800d0cc2c000010b8004308de00c1
:102fc000ea00b900000051002162290000804000a1
:102fd00090407800800a2100014878000080fa00c3
:102fe000000006000400fa00004f78001147980026
:102ff00022479800600a21001e487800700a2100cc
:103000009e40900001487800800a2100ae40900068
:10301000014878000080fa00000006000000fa0075
:10302000e0848000610060000000e00041003200a8
:103030003ad0bf000040e8003af0b7003ad0bf00f5
:103040000080fb00e30f500026003200e30f500029
:1030500005003c00e10f500008003200e20f500074
:103060001300320037003700e40f50002a0032000e
:10307000e50f50002c003200320037002c8ea800e3
:103080002caea800600a210010407800e14f4000fb
:1030900002003a002c6ea8002a003700600a2100c6
:1030a000104078002aff07002c6ea9002500370089
:1030b0002c6ea8002caea800700a210010407800e9
:1030c000e14f400002003a002c8ea8001d0037009e
:1030d000700a2100104078001dff07002c8ea90007
:1030e000180037002c6ea8002c8ea800800a210042
:1030f00010407800e14f400002003a002caea800da
:1031000010003700800a21001040780010ff0700ef
:103110002caea9000b0037002c6ea8002c8ea80046
:103120002caea800070037003a70ef000000000046
:10313000040037003a70ef002c6ea8002c8ea80017
:103140002caea8000080fa00000006000000fa0083
:103150000000eb00c0858800400b2100a1c0b30037
:1031600001487800c05d2000f085880080a9230018
:10317000208688000080fa00000006000000fa00a7
:103180000000eb00d0858800500b2100a1c0b300e7
:1031900001487800c05d20000086880080a92300d7
:1031a000308688000080fa00000006000000fa0067
:1031b0000000eb00e0858800600b2100a1c0b30097
:1031c00001487800c05d20001086880080a9230097
:1031d000408688000080fa00000006000000fa0027
:1031e00050858000e20f500022003a0010002000bd
:1031f0005085880080a9230080858800e0848000b5
:103200000010a100e0848800e08480000000a0009d
:10321000e0848800c0858000e10f50000300320088
:10322000c0858000e20f500002003a00300020000c
:10323000c0858800d0858000e10f50000300320077
:10324000d0858000e20f500002003a0030002000dc
:10325000d0858800e0858000e10f50000300320037
:10326000e0858000e20f500002003a0030002000ac
:10327000e08588000080fa00000006000000fa00e7
:10328000c0858000e20f50007f003200e20f500046
:1032900005003e000000e00008003200e10f500091
:1032a00037003200cb003700e30f5000a600320099
:1032b000e40f5000b7003200c6003700b170800044
:1032c00000042000008060000000e00028003a00b8
:1032d000400b2100104078008080fb008100e90055
:1032e000cf08de00814078000041e900400b21005a
:1032f000024878000104e0001a00320010002000ab
:10330000c085880050858000e20f500003003a001d
:103310000000eb00508688001000370050858000c8
:103320000000e00003003a000000eb00c0858800c8
:103330000a00370050858000e30f500007003a0074
:103340000000eb00c0858800100020005085880038
:10335000e08480000000a000e084880080a92300b1
:1033600080858800c0d4210070858800a4003700c3
:10337000400b2100a1c0b30001487800a000370035
:10338000b170800000042000008060000000e000b8
:103390002b003a0050858000e20f500016003a00e2
:1033a000508680000000e00004003200508680005b
:1033b0000000e900508688000f003700a00f2000b1
:1033c00050868800f184800040888000808f500003
:1033d00009003100e08480000010a000e084880033
:1033e000f08480000000e800f0848800918680006e
:1033f000f084800001000100f085800080007800ea
:1034000001f0a7008100ea008100e900cf08de009a
:10341000814078000000e900f08588000104e000a8
:103420006e003200c05d2000f085880080a9230076
:103430002086880020002000c085880070003700aa
:1034400042ff070050858000e10f500065003a0000
:10345000f0898000e10f500003003200f089800005
:10346000e20f500061003a002000200050858800e3
:10347000f0848000008588002c6ea8002c8ea800a7
:103480002caea8005e003700b17080000004200060
:10349000008060000000e00029003a0050858000b4
:1034a000e20f50001f003a00508680000000e0004c
:1034b00004003200508680000000e9005086880039
:1034c0000c0037002003200050868800f184800023
:1034d00040888000808f500006003100f08480001a
:1034e0000000e800f084880091868000f08480006d
:1034f00001000100208680000000e900208688008d
:10350000208680000000e0000a003a00218c800044
:10351000c00120000100010040002000c08588009b
:103520000400370080a92300208688003000200096
:10353000c0858800c0d42100708588003000370025
:1035400002ff07002e003700b17080000004200049
:10355000008060000000e0000c003a00208680003f
:103560000000e90020868800208680000000e0003e
:1035700020003a00218c8000c001200001000100e1
:1035800040002000c08588001d003700effe0700c6
:103590001b003700b1708000000420000080600034
:1035a0000000e00015003200d0858000e40f5000dc
:1035b00006003200e0858000e40f50000300320076
:1035c000318c8000c001200001000100dffe0700f7
:1035d0000b003700ddfe0700090037000000000087
:1035e0000700370000000000050037000000000061
:1035f0000300370000000000010037000000000059
:10360000d0858000e20f50007f003200e20f5000b2
:1036100005003e000000e00008003200e10f50000d
:103620003700320013013700e30f5000ee00320084
:10363000e40f5000ff0032000e013700b17080002f
:1036400000022000008060000000e00028003a0036
:10365000500b2100104078008080fb008100e900c1
:10366000cf08de00814078000041e900500b2100c6
:10367000024878000104e0001a0032001000200027
:10368000d085880050858000e20f500003003a008a
:103690000000eb0060868800100037005085800035
:1036a0000000e00003003a000000eb00d085880035
:1036b0000a00370050858000e30f500007003a00f1
:1036c0000000eb00d08588001000200050858800a5
:1036d000e08480000000a000e084880080a923002e
:1036e00080858800c0d4210070858800ec003700f8
:1036f000500b2100a1c0b30001487800e80037005a
:10370000b170800000022000008060000000e00036
:103710002b003a0050858000e20f500016003a005e
:10372000608680000000e0000400320060868000b7
:103730000000e900608688000f003700a00f20001d
:1037400060868800f184800030888000808f50007f
:1037500009003600e08480000010a000e0848800aa
:10376000f08480000000e900f084880091868000e9
:10377000f084800001000100008680008000780055
:1037800001f0a7008100ea008100e900cf08de0017
:10379000814078000000e900008688000104e00014
:1037a000b6003200c05d20000086880080a923009a
:1037b0003086880020002000d0858800b8003700bf
:1037c0006efe070050858000e10f5000ad003a000a
:1037d000f0898000e10f500003003200f089800082
:1037e000e20f5000a9003a00200020005085880018
:1037f000f0848000008588002c6ea8002c8ea80024
:103800002caea800a6003700b17080000002200096
:10381000008060000000e00071003a0050858000e8
:10382000e20f50001f003a00608680000000e000b8
:1038300004003200608680000000e9006086880095
:103840000c0037002003200060868800f18480008f
:1038500030888000808f500006003600f0848000a1
:103860000000e900f084880091868000f0848000e8
:1038700001000100308680000000e90030868800e9
:10388000308680000000e00052003a00218c800069
:10389000c00120000100010040002000d085880008
:1038a0004c003700008a8000620060000000e000e9
:1038b0001c003a00008a80000010a000008a8800e6
:1038c000f0848000e500b90001f62f008080400000
:1038d000f0382e000008b8004308de00f0848800ad
:1038e00030888000e500b90001f62f00808040009c
:1038f000f0382e000008b8004308de003088880049
:1039000040888000e500b90001f62f00808040006b
:10391000f0382e000008b8004308de004088880018
:1039200021003700008a80000010a100008a880072
:10393000f0848000e900b90080007800d0cc2c0031
:103940000008b8004208de000002b000f0848800e1
:10395000f0898000016929000000400000804000db
:103960001000780030888800f08980008169290083
:10397000000040000080400010007800408888006f
:10398000f184800030888000808f5000040039006e
:10399000f184800040888000808f50000200360053
:1039a00030888000f0848800f0848000e0898800fe
:1039b000108b80000000010091868000f084800060
:1039c0000100010080a9230030868800300020001b
:1039d000d0858800c0d42100708588003000370071
:1039e000e6fd07002e003700b170800000022000c5
:1039f000008060000000e0000c003a00308680008b
:103a00000000e90030868800308680000000e00079
:103a100020003a00218c8000c0012000010001003c
:103a200040002000d08588001d003700d3fd07002e
:103a30001b003700b1708000000220000080600091
:103a40000000e00015003200c0858000e40f500047
:103a500006003200e0858000e40f500003003200d1
:103a6000318c8000c001200001000100c3fd07006f
:103a70000b003700c1fd07000900370000000000ff
:103a800007003700000000000500370000000000bc
:103a900003003700000000000100370000000000b4
:103aa000e0858000e20f500062003200e20f50001b
:103ab00005003e000000e00008003200e10f500069
:103ac00045003200a0003700e30f50007b003200b9
:103ad000e40f50008c0032009b003700f171800031
:103ae00000102000008060000000e00036003a0076
:103af000600b2100104078008080fb008100e9000d
:103b0000cf08de00814078000041e900600b210011
:103b1000024878000104e0008e003200100020000e
:103b2000e085880050858000e20f500013003a00c5
:103b3000e08480000000a000e0848800e084800031
:103b4000620060000000e00009003200e0848000b4
:103b50000010a100e0848800f0848000e0898800e3
:103b6000108b8000000001003a4a020000000000b3
:103b7000100020005085880010003700508580001c
:103b80000000e00003003a000000eb00e085880040
:103b90000a00370050858000e30f500007003a000c
:103ba0000000eb00e08588001000200050858800b0
:103bb000e08480000000a000e084880080a9230049
:103bc000808588006a003700600b2100a1c0b30027
:103bd0000148780066003700f17180000010200075
:103be000008060000000e00010003a0010868000b5
:103bf0008000780001f0a7008100ea008100e90060
:103c0000cf08de00814078000000e90010868800bf
:103c10000104e00051003200c05d200010868800e1
:103c200020002000e0858800510037005ffd07007c
:103c30004f003700f171800000102000008060000c
:103c40000000e0001b003a0050858000e10f5000aa
:103c500013003a00f0898000e10f500010003a0094
:103c6000008a8000610060000000e00004003a006b
:103c7000008a80000000a000008a8800030037004e
:103c8000008a80000000a100008a8800108b80005c
:103c90000000010091868000f08480000100010096
:103ca00080a923004086880030002000e08588003d
:103cb0002f0037003dfd07002d003700f171800017
:103cc00000102000008060000000e0000c003a00be
:103cd000408680000000e900408688004086800021
:103ce0000000e0001f003a00218c8000c00120008d
:103cf0000100010040002000e08588001c00370022
:103d00002afd07001a003700f17180000010200022
:103d1000008060000000e00014003200c0858000d8
:103d2000e40f500006003200d0858000e40f500000
:103d300003003200318c8000c0012000010001002e
:103d40001afd07000a00370018fd070000000000f8
:103d500007003700000000000500370000000000e9
:103d600003003700000000000100370000000000e1
:103d70000080fa00000006000400fa00d0868000ef
:103d800000000100508580000000e00051003a0072
:103d9000908580000000e0000400320090858000e3
:103da0000000e9009085880047013700a00f20003f
:103db00090858800900a2100104078000080fb0068
:103dc000e20f50001d003200e20f500005003c00e1
:103dd0000000e0000a003200e10f50000f00320046
:103de00030003700e40f500022003200e40f500092
:103df0001a003500e50f500024003200290037007a
:103e0000b3868000a06229001040780000c1eb005a
:103e100080c0eb000300010028003700b38680005b
:103e2000a06229001040780000c1eb0080407800bb
:103e300000c0eb000300010020003700b3868000c3
:103e4000a0622900104078000041780080c0eb009b
:103e500000c0eb000300010018003700b3868000ab
:103e600000c1eb0080c0eb00f0c7b300030001000d
:103e700012003700b386800000c1eb00f1c7b30029
:103e800000c0eb00030001000c003700b386800087
:103e9000f2c7b30080c0eb0000c0eb0003000100dc
:103ea00006003700100020005085880091868000b1
:103eb000f08480000100010000000000900a210051
:103ec000104078008040e800900a21000148780006
:103ed000fd003700d0162100104078000004e000fb
:103ee000ba003200d016210010407800e14f500097
:103ef00029003a00e00c2100104078000080fb000f
:103f00000000e80080004000c01621000080400052
:103f100010007800e40f50001f003a004087800036
:103f2000610060000000e0001b003a005085800046
:103f3000e30f500004003a00e08480000020a1005c
:103f4000e084880021003700808580000000e000c8
:103f50000700320091868000f0848000010001009b
:103f6000808580000000e900808588001700370008
:103f7000300020005085880080a9230080858800bb
:103f8000e08480000000a100e0848800680ea800a2
:103f9000682ea8000d00370080a9230080858800c6
:103fa00050858000e30f500008003a00e084800054
:103fb0000000a000e0848800e08480000020a100d0
:103fc000e0848800100020005085880080868000f2
:103fd0000000e00004003200808680000000e9005c
:103fe00080868800b8003700803e200080868800e8
:103ff000e08480004200de00614060000004a20016
:10400000614060000080fb00610060004200dd0054
:10401000e18480000120a10001007000e08488009c
:10402000d016210010407800e14f500012003a00f5
:10403000e00c2100104078000080fb000000e80048
:1040400080004000c0162100008040001000780071
:10405000e40f500008003a004087800061006000d3
:104060000000e00004003a0091868000f0848000a7
:104070000100010094003700e00c2100104078009e
:104080000080fb000000e80080004000c016210016
:104090000080400010007800e40f500009003a0052
:1040a00040878000610060000000e00005003a00e9
:1040b000e00c2100104078008040e800e00c210076
:1040c00001487800e0848000640060000000e000a7
:1040d00006003200b3868000f2cab300f1cab30012
:1040e00060c8b300030001000f003700e00c21009e
:1040f000104078000080fb000000e80080004000d5
:10410000c016210000804000100f7800a1868000ba
:104110001e00780000014000c0622900000041003c
:104120001000780001000100e0848000640060005d
:104130000000e00006003200b3868000f2cab3003f
:10414000f1cab30060c8b300030001005e0037008d
:10415000e00c2100104078000080fb000000e80027
:1041600080004000c01621000080400090007800d0
:1041700011079800a18680001e00900000014000f9
:10418000c062290000004100100078000100010019
:10419000e00c2100104078008040e800e00c210095
:1041a00001487800e00c210090407800d0162100f2
:1041b0001040780080cf500042003900e00c210010
:1041c0008040eb00014878003f00370050858000b8
:1041d000e20f500027003a00608580000000e900ef
:1041e00060858800608580000000e0000c003a00d7
:1041f000e0848000614060000004a2006140600033
:104200000080fb0061006000e18480000100a100eb
:1042100001007000e0848800401f20006085880055
:10422000708580000000e90070858800708580003e
:104230000000e00024003a00e08480000000a000bc
:10424000e0848800100020005085880080a92300a9
:104250008085880000858000f08488009186800039
:10426000f084800001000100c0d421007085880026
:104270001500370050858000e10f500012003a0011
:10428000808580000000e00004003200808580000e
:104290000000e900808588000b0037003000200016
:1042a0005085880080a9230080858800e0848000f4
:1042b0000000a100e0848800680ea800682ea80015
:1042c0000100370000000000c086800000000100ef
:0c42d0000040eb000080fa000000060037
:020000040000fa
:1042dc000000fa002023a8000080fa00000006006d
:1042ec000000fa002023a9000080fa00000006005c
:1042fc000000fa00001880000080fa0000000600a0
:10430c000000fa0000198000004078006140600055
:10431c000080fb0000f0a7000000ea000000ea00ab
:10432c004f00de00004078000080fa00000006001c
:10433c000200fa00000f78001e00780000407800a0
:10434c00f043b2008080fb00f0032000008060008e
:10435c004219800001fc2f008100610001007000f7
:10436c00401988000080fa00000006000000fa00e6
:10437c00e0032000eeff0700d5ff07003b23a80059
:10438c000080fa00000006000000fa003b23a900a0
:10439c00d3ff07000080fa00000006000400fa00ba
:1043ac00000f7800110798001e00780010007800ac
:1043bc000000e0000f0032001e0078009000780032
:1043cc001e007800100078004200de008080500053
:1043dc001e007800010878001e007800900078001c
:1043ec001e009000808040001e00780001087800bc
:1043fc00040037001e009000c200dd001e00780093
:10440c00010878001e007800100078004200de00e1
:10441c000080fa00000006000600fa0040479800f1
:10442c004e409000e54f500055003e004e4090002d
:10443c000080fb000000e80080004000001121001b
:10444c000080400090007800110798000040eb00bd
:10445c00004f78009e00900030382000808f500074
:10446c0009003e00218c80004e4090000080fb0033
:10447c000001400080672900000041001000780016
:10448c0001000100250037009e00900060662100ad
:10449c00808f5000190036004e409000b65a020032
:1044ac0000000000004f78001e4078000004e0007f
:1044bc0009003200218c80004e4090000080fb00ef
:1044cc0000014000806729000000410010007800c6
:1044dc000100010011003700318c80004e4090002b
:1044ec000080fb00000140008067290000004100b3
:1044fc00100078000100010008003700318c8000aa
:10450c004e4090000080fb000001400080672900b5
:10451c000000410010007800010001009e00900096
:10452c0020d52100808f50000d0036001e407800f1
:10453c000004a2000004e00009003200218c80007d
:10454c004e4090000080fb000001400040682900b4
:10455c000000410010007800010001000800370045
:10456c00318c80004e4090000080fb000001400028
:10457c004068290000004100100078000100010093
:10458c000080fa00000006000000fa00608620009f
:10459c00408188000189800040818000808f50001c
:1045ac0004003600218c8000100020000100010066
:1045bc0026003700a0792000408188000189800006
:1045cc0040818000808f500004003100218c8000dd
:1045dc0010002000010001001c0037000089800041
:1045ec008000eb00027122008289b900e002b90060
:1045fc008401780003014100037122000300b8001c
:10460c0001014100820078004409dd004c00de000d
:10461c0000007100cc08de000000780040818800aa
:10462c004181800030192100808f500004003e0031
:10463c00218c8000100020000100010003003700d5
:10464c00318c800010002000010001000080fa0075
:10465c00000006000000fa00701321008040eb00ff
:10466c0001487800b188800010d52100808f50005f
:10467c000d003e00b188800040382000808f500033
:10468c0009003600808880000000a0008088880027
:10469c0070132100104078008040e8007013210056
:1046ac000148780012003700b188800010d5210035
:1046bc00808f50000e00360020c0b300b65a0200a6
:1046cc00000000000004a2000004e000080032001a
:1046dc00808880000000a000808888007013210072
:1046ec00104078008040e8007013210001487800e9
:1046fc00c188800010d52100808f50000d003e0035
:10470c00c188800040382000808f5000090036009e
:10471c00808880000010a000808888007013210021
:10472c00104078008040e8007013210001487800a8
:10473c0012003700c188800010d52100808f5000f6
:10474c000e00360030c0b300b65a02000000000064
:10475c000004a2000004e000080032008088800001
:10476c000010a00080888800701321001040780091
:10477c008040e8007013210001487800d188800047
:10478c0010d52100808f50000d003e00d188800094
:10479c0040382000808f500009003600808880004f
:1047ac000020a00080888800701321001040780041
:1047bc008040e80070132100014878001200370097
:1047cc00d188800010d52100808f50000e0036005b
:1047dc0040c0b300b65a0200000000000004a20062
:1047ec000004e00008003200808880000020a00057
:1047fc008088880070132100104078008040e80009
:10480c007013210001487800e188800010d5210048
:10481c00808f50000d003e00e18880004038200061
:10482c00808f500009003600808880000030a00086
:10483c008088880070132100104078008040e800c8
:10484c00701321000148780012003700e1888000c5
:10485c0010d52100808f50000e00360050c0b300e0
:10486c00b65a0200000000000004a2000004e000a0
:10487c0008003200808880000030a000808888000a
:10488c0070132100104078008040e8007013210064
:10489c000148780080888000610060000000e00022
:1048ac000f003a0080888000620060000000e00089
:1048bc000b003a0080888000640060000000e0007b
:1048cc0007003a0080888000680060000000e0006b
:1048dc0003003a00808880000000a00080888800d7
:1048ec007013210010407800e24f50000400360095
:1048fc00808880000040a00080888800030037007a
:10490c00808880000040a100808888000080fa0028
:10491c00000006000400fa00881f780010c0b300e5
:10492c00004f78000000eb0010079800d089800041
:10493c00e20f500016003200e20f500005003e005e
:10494c000000e0000a003200e10f50000c003200c1
:10495c00e1003700e40f500021003200e40f50005a
:10496c0013003900e50f500021003200da00370047
:10497c007efe070010002000d0898800d60037008a
:10498c0081fe070020002000d0898800d20037006b
:10499c005bfe07000004e000cc00320054fe070070
:1049ac001007980030002000d0898800ca0037001a
:1049bc0060132100104078000080fb008000400054
:1049cc0080662900008040001000780058fe070027
:1049dc003ffe070040002000d0898800be00370051
:1049ec003ffe070050002000d0898800ba00370035
:1049fc0043fe07000004e000b60032006013210003
:104a0c00104078000084fb0039fe0700800078001d
:104a1c000800e800000140000011210000004100e6
:104a2c000108780000898000308188006013210023
:104a3c00104078000084fb006013210010407800c7
:104a4c000080fb000000e800800040000011210005
:104a5c000080400090007800601321001040780026
:104a6c000080fb00000040000001780020122100b3
:104a7c000000410049fe0700800078000800e800b3
:104a8c0000014000001121000000410001087800e5
:104a9c006013210010407800e64f500019003200de
:104aac006013210010407800e74f500015003200d1
:104abc0060132100104078000081fb00601321007e
:104acc00104078000080fb000000e80080004000ef
:104adc00001121000080400090007800e0ff2f00c2
:104aec008088b9008000780000002200808040009f
:104afc000200e8000001400000112100000041000c
:104b0c000108780080132100104078000004e000b8
:104b1c004e003a0060132100104078000080fb002a
:104b2c00e30f50001b003200e30f500005003c0067
:104b3c000000e0003a003500e10f50000a0034009c
:104b4c000d003700e50f500020003200e50f50003b
:104b5c0017003500e60f500023003200e70f50001d
:104b6c002d0032003900370060132100104078000e
:104b7c0029fe070035003700808880006100600046
:104b8c000000e0002800320020c0b30022fe070025
:104b9c002e00370080888000620060000000e0007a
:104bac002300320030c0b3001bfe07002700370083
:104bbc0080888000640060000000e0001e0032006d
:104bcc0040c0b30014fe070020003700808880002e
:104bdc00680060000000e0001900320050c0b30013
:104bec000dfe070019003700f1888000d07a2000f4
:104bfc00808f500004003600f1888000a0992000be
:104c0c00808f500010003600218c80002000200086
:104c1c00010001000d0037005bfe07000b003700a0
:104c2c0000000000090037000000000007003700fa
:104c3c0000000000050037000000000003003700f2
:104c4c00000000000100370000000000601321008c
:104c5c00104078008040e800601321000148780083
:104c6c006013210010407800e74f5000120036000e
:104c7c006013210011c0b30001487800801321009b
:104c8c00104078000004e0000b003200801321007b
:104c9c00104078008040e900801321000148780022
:104cac0080132100104078000004e00002003a005c
:104cbc00a0898000000001000040eb00004f78004c
:104ccc000000eb00d08988000300370000000000d2
:104cdc0001003700000000001e4078004f047800ef
:084cec000080fa000000060040
:020000040000fa
:104cf400c108de000100e00002003a000000eb0001
:104d040000000600000278008102780002037800a7
:104d14008303780093028000040078008500780003
:104d2400060178000200e00004003200ff3ffc00ae
:104d3400301978008100e900fcff3a000400780093
:104d440085007800ff3ffc000008eb000080e800cd
:104d54008100e900fbff3a00040078008500780038
:104d6400f6260400000000000400780085007800a6
:104d74002228040000000000040078008500780068
:104d8400ae280400000000000400780085007800cc
:104d94005e29040000000000040078000002eb001b
:104da4000200370004007800140020008500780019
:104db400060178000200e00004003200ff3ffc001e
:104dc400321878008100e900fcff3a000400780002
:104dd400930288000000880007f0a70032640400f2
:104de4000000000000000600ff3ffc001000a700c8
:104df400ecff37001000a0001000a600e9ff370008
:104e04001000a1001000a700e6ff37001000a0006a
:104e14001010a700e3ff37001010a0001010a60028
:104e2400e0ff37001010a1001010a700ddff3700cd
:104e34001010a0001020a700daff37001020a000f7
:104e44001020a600d7ff37001020a1001020a700d3
:104e5400d4ff37001020a0001030a700d1ff370086
:104e64001030a0001030a600ceff37001030a10093
:104e74001030a700cbff37001030a0001040a7006f
:104e8400c8ff37001040a0001040a600c5ff37003f
:104e94001040a1001040a700c2ff37001040a0003e
:104ea4001050a700bfff37001050a0001050a600fc
:104eb400bcff37001050a1001050a700b9ff370005
:104ec4001050a0001060a700b6ff37001060a000cb
:104ed4001060a600b3ff37001060a1001060a700a7
:104ee400b0ff37001060a0001070a700adff3700be
:104ef4001070a0001070a600aaff37001070a10067
:104f04001070a700a7ff37001070a0001080a70042
:104f1400a4ff37001080a0001080a600a1ff370076
:104f24001080a1001080a7009eff37001080a00011
:104f34001090a7009bff37001090a0001090a600cf
:104f440098ff37001090a1001090a70095ff37003c
:104f54001090a00010a0a70092ff370010a0a0009e
:104f640010a0a6008fff370010a0a10010a0a7007a
:104f74008cff370010a0a00010b0a70089ff3700f5
:104f840010b0a00010b0a60086ff370010b0a1003a
:104f940010b0a70083ff370010b0a00010c0a70016
:104fa40080ff370010c0a00010c0a6007dff3700ae
:104fb40010c0a10010c0a7007aff370010c0a000e5
:104fc40010d0a70077ff370010d0a00010d0a600a3
:104fd40074ff370010d0a10010d0a70071ff370074
:104fe40010d0a00010e0a7006eff370010e0a00072
:104ff40010e0a6006bff370010e0a10010e0a7004e
:1050040068ff370010e0a00010f0a70065ff37002c
:1050140010f0a00010f0a60062ff370010f0a1000d
:1050240010f0a7005fff370010f0a0000080e80038
:105034008100e9006cff3a00b6260400000000007d
:10504400ff3ffc001000a60056ff37001000a1002f
:105054001000a0001010a60052ff37001010a1008d
:105064001010a0001020a6004eff37001020a10051
:105074001020a0001030a6004aff37001030a10015
:105084001030a0001040a60046ff37001040a100d9
:105094001040a0001050a60042ff37001050a1009d
:1050a4001050a0001060a6003eff37001060a10061
:1050b4001060a0001070a6003aff37001070a10025
:1050c4001070a0001080a60036ff37001080a100e9
:1050d4001080a0001090a60032ff37001090a100ad
:1050e4001090a00010a0a6002eff370010a0a10071
:1050f40010a0a00010b0a6002aff370010b0a10035
:1051040010b0a00010c0a60026ff370010c0a100f8
:1051140010c0a00010d0a60022ff370010d0a100bc
:1051240010d0a00010e0a6001eff370010e0a10080
:1051340010e0a00010f0a6001aff370010f0a10044
:1051440010f0a0000080e8008100e900bcff3a00f4
:10515400be260400000000000080400000804000e3
:10516400ff3ffc000080e90010f0a6000dff3700af
:1051740010f0a10010f0a00010f0a10010e0a600b3
:1051840008ff370010e0a10010e0a00010e0a1002b
:1051940010d0a60003ff370010d0a10010d0a0004b
:1051a40010d0a10010c0a600fefe370010c0a10060
:1051b40010c0a00010c0a10010b0a600f9fe370076
:1051c40010b0a10010b0a00010b0a10010a0a60063
:1051d400f4fe370010a0a10010a0a00010a0a100b0
:1051e4001090a600effe37001090a1001090a000d0
:1051f4001090a1001080a600eafe37001080a100e4
:105204001080a0001080a1001070a600e5fe3700f9
:105214001070a1001070a0001070a1001060a60012
:10522400e0fe37001060a1001060a0001060a10033
:105234001050a600dbfe37001050a1001050a00053
:105244001050a1001040a600d6fe37001040a10067
:105254001040a0001040a1001030a600d1fe37007d
:105264001030a1001030a0001030a1001020a600c2
:10527400ccfe37001020a1001020a0001020a100b7
:105284001010a600c7fe37001010a1001010a000d7
:105294001010a1001000a600c2fe37001000a100eb
:1052a4001000a0001000a1008100e900acff3a004a
:1052b400c62604000000000000804000008040007a
:1052c400ff3ffc000080e90010f0a700b5fe3700a6
:1052d40010f0a00010f0a10010e0a700b1fe37000c
:1052e40010e0a00010e0a10010d0a700adfe370030
:1052f40010d0a00010d0a10010c0a700a9fe370054
:1053040010c0a00010c0a10010b0a700a5fe370077
:1053140010b0a00010b0a10010a0a700a1fe37009b
:1053240010a0a00010a0a1001090a7009dfe3700bf
:105334001090a0001090a1001080a70099fe3700e3
:105344001080a0001080a1001070a70095fe370007
:105354001070a0001070a1001060a70091fe37002b
:105364001060a0001060a1001050a7008dfe37004f
:105374001050a0001050a1001040a70089fe370073
:105384001040a0001040a1001030a70085fe370097
:105394001030a0001030a1001020a70081fe3700bb
:1053a4001020a0001020a1001010a7007dfe3700df
:1053b4001010a0001010a1001000a70079fe370003
:1053c4001000a0001000a1008100e900bcff3a0019
:0853d400ce26040000000000d9
:020000040000fa
:1053dc000000fa000021ef00207520001008880062
:1053ec000001200020088800608080000000e000a0
:1053fc0002003a0060a42200240007000068a90003
:10540c002068a800804a21008040eb000148780009
:10541c000080fa00000006000200fa00000f78007d
:10542c009e00780011088800804a21008040eb0023
:10543c00014878000080fa00000006000000fa0025
:10544c00100880000080fa00000006000200fa003c
:10545c00000f78009e00780001088800804a210027
:10546c008040eb00014878000080fa000000060044
:10547c000000fa00000880000080fa00000006001e
:10548c000000fa000080fa00000006000200fa009a
:10549c00000f78002068a9009e00780061808800c9
