:020000040000fa
:080000000002040000000000f2
:020000040000fa
:0400080008040000e8
:020000040000fa
:04000c0020040000cc
:020000040000fa
:040010003e040000aa
:020000040000fa
:0400140012040000d2
:020000040000fa
:040018002a040000b6
:020000040000fa
:04001c0034040000a8
:020000040000fa
:040020004804000090
:020000040000fa
:040024005005000083
:020000040000fa
:04002800500500007f
:020000040000fa
:04002c00500500007b
:020000040000fa
:040030005005000077
:020000040000fa
:040034007e03000047
:020000040000fa
:04003800500500006f
:020000040000fa
:04003c00500500006b
:020000040000fa
:040040005005000067
:020000040000fa
:040044005005000063
:020000040000fa
:04004800500500005f
:020000040000fa
:04004c00500500005b
:020000040000fa
:040050005005000057
:020000040000fa
:04005400be040000e6
:020000040000fa
:04005800520400004e
:020000040000fa
:04005c00500500004b
:020000040000fa
:040060005005000047
:020000040000fa
:040064005005000043
:020000040000fa
:04006800500500003f
:020000040000fa
:04006c00500500003b
:020000040000fa
:040070005005000037
:020000040000fa
:040074005005000033
:020000040000fa
:04007800500500002f
:020000040000fa
:04007c00500500002b
:020000040000fa
:040080005005000027
:020000040000fa
:040084005005000023
:020000040000fa
:04008800500500001f
:020000040000fa
:04008c00500500001b
:020000040000fa
:040090005005000017
:020000040000fa
:040094001a05000049
:020000040000fa
:04009800500500000f
:020000040000fa
:04009c00500500000b
:020000040000fa
:0400a0005005000007
:020000040000fa
:0400a4005005000003
:020000040000fa
:0400a80050050000ff
:020000040000fa
:0400ac0050050000fb
:020000040000fa
:0400b00050050000f7
:020000040000fa
:0400b40050050000f3
:020000040000fa
:0400b80050050000ef
:020000040000fa
:0400bc0050050000eb
:020000040000fa
:0400c00050050000e7
:020000040000fa
:0400c40050050000e3
:020000040000fa
:0400c80050050000df
:020000040000fa
:0400cc0050050000db
:020000040000fa
:0400d00050050000d7
:020000040000fa
:0400d40050050000d3
:020000040000fa
:0400d80050050000cf
:020000040000fa
:0400dc0050050000cb
:020000040000fa
:0400e00050050000c7
:020000040000fa
:0400e40050050000c3
:020000040000fa
:0400e80050050000bf
:020000040000fa
:0400ec0050050000bb
:020000040000fa
:0400f00050050000b7
:020000040000fa
:0400f40050050000b3
:020000040000fa
:0400f80050050000af
:020000040000fa
:0400fc0050050000ab
:020000040000fa
:0401000050050000a6
:020000040000fa
:0401040050050000a2
:020000040000fa
:04010800500500009e
:020000040000fa
:04010c00500500009a
:020000040000fa
:040110005005000096
:020000040000fa
:040114005005000092
:020000040000fa
:04011800500500008e
:020000040000fa
:04011c00500500008a
:020000040000fa
:040120005005000086
:020000040000fa
:040124005005000082
:020000040000fa
:04012800500500007e
:020000040000fa
:04012c0004050000c6
:020000040000fa
:040130005005000076
:020000040000fa
:040134005005000072
:020000040000fa
:04013800500500006e
:020000040000fa
:04013c00500500006a
:020000040000fa
:040140005005000066
:020000040000fa
:040144005005000062
:020000040000fa
:04014800500500005e
:020000040000fa
:04014c00500500005a
:020000040000fa
:040150005005000056
:020000040000fa
:040154005005000052
:020000040000fa
:04015800500500004e
:020000040000fa
:04015c00500500004a
:020000040000fa
:040160005005000046
:020000040000fa
:040164005005000042
:020000040000fa
:04016800500500003e
:020000040000fa
:04016c00500500003a
:020000040000fa
:040170005005000036
:020000040000fa
:040174005005000032
:020000040000fa
:04017800500500002e
:020000040000fa
:04017c00500500002a
:020000040000fa
:040180005005000026
:020000040000fa
:040184005005000022
:020000040000fa
:04018800500500001e
:020000040000fa
:04018c00500500001a
:020000040000fa
:040190005005000016
:020000040000fa
:040194005005000012
:020000040000fa
:04019800500500000e
:020000040000fa
:04019c00500500000a
:020000040000fa
:0401a0005005000006
:020000040000fa
:0401a4005005000002
:020000040000fa
:0401a80050050000fe
:020000040000fa
:0401ac0050050000fa
:020000040000fa
:0401b00050050000f6
:020000040000fa
:0401b40050050000f2
:020000040000fa
:0401b80050050000ee
:020000040000fa
:0401bc0050050000ea
:020000040000fa
:0401c00050050000e6
:020000040000fa
:0401c40050050000e2
:020000040000fa
:0401c80050050000de
:020000040000fa
:0401cc0050050000da
:020000040000fa
:0401d00050050000d6
:020000040000fa
:0401d40050050000d2
:020000040000fa
:0401d80050050000ce
:020000040000fa
:0401dc0050050000ca
:020000040000fa
:0401e00050050000c6
:020000040000fa
:0401e40050050000c2
:020000040000fa
:0401e80050050000be
:020000040000fa
:0401ec0050050000ba
:020000040000fa
:0401f00050050000b6
:020000040000fa
:0401f40050050000b2
:020000040000fa
:0401f80050050000ae
:020000040000fa
:0401fc0050050000aa
:020000040000fa
:0402000050050000a5
:020000040000fa
:0402040050050000a1
:020000040000fa
:04020800500500009d
:020000040000fa
:04020c005005000099
:020000040000fa
:040210005005000095
:020000040000fa
:040214005005000091
:020000040000fa
:04021800500500008d
:020000040000fa
:04021c005005000089
:020000040000fa
:040220005005000085
:020000040000fa
:040224005005000081
:020000040000fa
:04022800500500007d
:020000040000fa
:04022c005005000079
:020000040000fa
:040230005005000075
:020000040000fa
:040234005005000071
:020000040000fa
:04023800500500006d
:020000040000fa
:04023c005005000069
:020000040000fa
:040240005005000065
:020000040000fa
:040244005005000061
:020000040000fa
:04024800500500005d
:020000040000fa
:04024c005005000059
:020000040000fa
:040250005005000055
:020000040000fa
:040254005005000051
:020000040000fa
:04025800500500004d
:020000040000fa
:04025c005005000049
:020000040000fa
:040260005005000045
:020000040000fa
:040264005005000041
:020000040000fa
:04026800500500003d
:020000040000fa
:04026c005005000039
:020000040000fa
:040270005005000035
:020000040000fa
:040274005005000031
:020000040000fa
:04027800500500002d
:020000040000fa
:04027c005005000029
:020000040000fa
:040280005005000025
:020000040000fa
:040284005005000021
:020000040000fa
:04028800500500001d
:020000040000fa
:04028c005005000019
:020000040000fa
:040290005005000015
:020000040000fa
:040294005005000011
:020000040000fa
:04029800500500000d
:020000040000fa
:04029c005005000009
:020000040000fa
:0402a0005005000005
:020000040000fa
:0402a4005005000001
:020000040000fa
:0402a80050050000fd
:020000040000fa
:0402ac0050050000f9
:020000040000fa
:0402b00050050000f5
:020000040000fa
:0402b40050050000f1
:020000040000fa
:0402b80050050000ed
:020000040000fa
:0402bc0050050000e9
:020000040000fa
:0402c00050050000e5
:020000040000fa
:0402c40050050000e1
:020000040000fa
:0402c80050050000dd
:020000040000fa
:0402cc0050050000d9
:020000040000fa
:0402d00050050000d5
:020000040000fa
:0402d40050050000d1
:020000040000fa
:0402d80050050000cd
:020000040000fa
:0402dc0050050000c9
:020000040000fa
:0402e00050050000c5
:020000040000fa
:0402e40050050000c1
:020000040000fa
:0402e80050050000bd
:020000040000fa
:0402ec0050050000b9
:020000040000fa
:0402f00050050000b5
:020000040000fa
:0402f40050050000b1
:020000040000fa
:0402f80050050000ad
:020000040000fa
:0402fc0050050000a9
:020000040000fa
:0403000050050000a4
:020000040000fa
:0403040050050000a0
:020000040000fa
:04030800500500009c
:020000040000fa
:04030c005005000098
:020000040000fa
:040310005005000094
:020000040000fa
:10040000af4d21000eff22000e0188000000000009
:10041000000020000000e000020032000001200087
:1004200020028800140007009f0107000000e00080
:1004300003003a00203824000100200002003700a9
:100440000000200001002000810f70000100320038
:100450000f000700100020000000e0000200320042
:10046000cc670200000000007e6402000000000073
:100470000040da000000fe00401820000000e0000c
:1004800002003200002020009001880000000600d9
:10049000a1028800800478000000eb001f003700f4
:1004a000e284440054a0b4009905ba00e2844400f8
:1004b00054a0b4009906ba00e284440054a0b400e9
:1004c0000006eb00476fde00fd07b200ae018800ba
:1004d000636ce10003003a000ad801000000eb0061
:1004e0000e003700606ce10008003a00004deb00a0
:1004f0000a05e800020039003420ec000af0a000f0
:100500008b05e900f9ff3e00040037006168e10057
:10051000010032000086eb000b00070019c7ba008b
:100520000e04e0001905ba0003003a000a00e000da
:10053000dbff3a0000000600fe07b200ae028800b2
:100540008a047800f5ff37000cd0a300e20f4d00bd
:100550001c00390089027800354dba000a05e80010
:10056000020039003420ec000af0a0008b05e900fd
:100570000f003200254dba000a05e80002003900dc
:100580003420ec000af0a0008b05e90008003200de
:100590000c00e0000600320015cdba000a05e800a4
:1005a000020039003420ec000af0a0008b05e900bd
:1005b0008984e80054a0b4000b00e000e2ff3a0098
:1005c000000006009902ba00055d78008b05e9007d
:1005d000f7ff3200c82ade00055d78008b05e900d0
:1005e000f3ff32000c00e000f1ff320019ddba0029
:1005f000eeff3700000000000000000000000000d7
:1006000000000000000000000000000000000000ea
:1006100000000000000000000000000000000000da
:1006200000000000000000000000000000000000ca
:1006300000000000000000000000000000000000ba
:1006400000000000000000000000000000000000aa
:10065000000000000000000000000000000000009a
:10066000000000000000000000000000000000008a
:10067000000000000000000000000000000000007a
:10068000000000000000000000000000000000006a
:10069000000000000000000000000000000000005a
:1006a000000000000000000000000000000000004a
:1006b000000000000000000000000000000000003a
:1006c000000000000000000000000000000000002a
:1006d000000000000000000000000000000000001a
:1006e000000000000000000000000000000000000a
:1006f0000000000000000000000000003600f800cc
:10070000809fbe00829fbe00849fbe00869fbe0069
:100710000000fa00a08080000000e000020032002b
:10072000a080800000000100008080000000e80040
:1007300000808800208080000000e8002080880081
:10074000408080000000e8004080880060808000d9
:100750000000e8006080880001808000401f2000c9
:10076000808f50000200360010c0b30002f0b700c6
:1007700021808000401f2000808f50000200360042
:1007800010c0b30006f0b70041808000401f200079
:10079000808f50000200360010c0b3000af0b7008e
:1007a00061808000401f2000808f500002003600d2
:1007b00010c0b3000ef0b70081808000401f200001
:1007c000808f50000200360010c0b30012f0b70056
:1007d000504d2100104078008040e800504d21002d
:1007e00001487800404d210011c0b3000148780055
:1007f0000068a9000080fa004f03be004f02be004f
:100800004f01be004f00be003600f9000040060058
:100810003600f800c028a9000000eb0034550200a3
:10082000000000003600f8003c5502000000000007
:10083000c048a9001000200034550200000000004c
:100840003600f800c068a9002000200034550200de
:10085000000000003600f800c088a9003000200029
:1008600034550200000000003600f800c0a8a900be
:100870004000200034550200000000003600f8005f
:10088000c608a900700020003455020000000000d6
:100890003600f800c488a900a000200034550200ea
:1008a00000000000809fbe000000fa00f19680006a
:1008b000e0968000808f500010003a000197800081
:1008c00000102000008060000000e0000b003a00f3
:1008d0000000000011118000001020000080600066
:1008e0000000e000fbff3200009780000090a000b5
:1008f000009788002188a9001d0037000188a90001
:1009000014003700f0968000104078000080fb0053
:1009100020118800f09680000000e800f096880022
:10092000f196800020382100808f500002003a00ac
:10093000202e2100f0968800009780000080a10002
:1009400000978800f1968000e0968000808f50002c
:10095000060032001111800000202000008060009d
:100960000000e000e7ff3200010037000000000057
:100970000080fa004f00be0000400600809fbe00cd
:100980000000fa0018003700c09680003111800086
:100990008140780001487800c09680000000e8009f
:1009a000c0968800c1968000a0382100808f50003a
:1009b00002003a0020382100c0968800009780008d
:1009c0000010a10000978800c1968000d09680009a
:1009d000808f500004003a00009780000000a000c3
:1009e000009788000400370010118000610060004b
:1009f0000000e000e4ff3a000168a9000080fa006e
:100a00004f00be0000400600801f78000000fa0082
:100a100010118000620060000000e0000100320060
:100a20002222a9000828a9000080fa004f007800bf
:100a3000004006003600f800809fbe00829fbe0086
:100a4000849fbe00869fbe000000fa0040838000a5
:100a50000000e0000200320040838000000001003e
:100a6000904d2100104078008040e800904d21001a
:100a700001487800804d210011c0b3000148780082
:100a80000368a9000080fa004f03be004f02be00b9
:100a90004f01be004f00be003600f90000400600c6
:100aa0000040da000000fe000000050003f0a20094
:100ab000889fbe008a9fbe008c1f78001b01070024
:100ac000220133006450e1004f0032006420e10055
:100ad0005200320003826c0007003b000905d00081
:100ae0000306d000820f54000c065d00020039009e
:100af00002003200890178000306780085825500e3
:100b000004003d000003fd008103fd008502ea00b2
:100b10008b854200840f720002003b0060001000d1
:100b2000e08018006011b8000005eb007a28e100b1
:100b30000a00390006007800c75ddd00f707b20043
:100b4000878075002d003700828171000a017800ce
:100b5000610560008180d1000080d3008502e9003a
:100b6000f9ff3b00060440008784480002003b0078
:100b700060041400e0841c000988a3000700320010
:100b80008a81710082817100610164008904d10051
:100b90000884d3008b05e800170037000978a3000c
:100ba00013003a000b00e000130034008b05e9004d
:100bb0000804440089844c000a4474000978a300a6
:100bc0000d003a000b00e000070034008b05e9003f
:100bd0000804440089844c0001003a000b00200006
:100be0000978a300f7ff32000001eb000200370094
:100bf000828171000a017800910007000cf0a700c3
:100c000001f0a000da0037006420e10002003a00a1
:100c1000838f6c00da0033000801be000200be00c2
:100c2000d3003700889fbe008a9fbe008c1f7800cb
:100c3000be000700c500330003866c006450e1006d
:100c40002e0032006420e100330032006150e100e8
:100c50002f0032006120e10031003200858555000f
:100c6000eb07b00009002000080420000500370051
:100c70000804440089844c000a0031000603430044
:100c800087834b000001530081815b00f8ff330034
:100c90000203be000800a0000804440089844c0040
:100ca000f6ff3900c639dd00830173000100320010
:100cb000130020008904d1000884d3000998a30000
:100cc000050032000800a7000300a0008904d1003d
:100cd0000884d3008b05e8008904d1000884d30080
:100ce0000001eb000281d2005500070001f0a100d5
:100cf0000cf0a70001f0a0009d0037006420e10087
:100d00009f0032000801be000200be00f7ff37005e
:100d10006120e1009a0032006000b800f3ff370064
:100d20000000200001f82700f0ff37001400200029
:100d300007023700f4ff2f00050237000001be0054
:100d4000650007000470a70003f0a1006509b10069
:100d5000160032000d0035006828e100060035005d
:100d6000f0ff2f00f1ff27000300e00013003b001d
:100d700001002800000005000000400081804800bc
:100d80008502e900fcff3a0008003700f88f4200b6
:100d900002003c008000eb00000005008100d10053
:100da0000080d3008502e800fcff3a000300e00069
:100db00002003b0060001000e08018000000060008
:100dc0000001be00440007000470a70003f0a1006a
:100dd00003f8a30013003a006509b10010003200c7
:100de000090035006928e1000200350001002800f3
:100df0000000050000004000818048008502e900f5
:100e0000fcff3a0000000600f88f420005003500a4
:100e10008100d1000080d3008502e800fcff3a0089
:100e2000000006008000eb00000005004f89de0096
:100e300082017800e10137006011b800ef0137004e
:100e400081002000618055000b003d000b00200058
:100e500061fe2f000100e1001d003400828171005d
:100e6000610164008904d1000884d3000000e80017
:100e7000faff3a0071002000610064000300700076
:100e8000020060000900320061044400e0844c006c
:100e90000988a500050032008b05e8006808e1001c
:100ea00002003a008904d1000884d300f20f200028
:100eb0000258e10005003d00c75ddd00f907b20002
:100ec0008980750008007800000006000bf82700f4
:100ed0008b00780000000500c70ade00f107b200b1
:100ee000f50fb20008003200e1cf420002003200ec
:100ef0000170a00024000500810f70000100320085
:100f00000408050044000500810f700002003a004b
:100f1000140005008502e9000000400081c048007f
:100f2000fcff3b000170a000240005000004be008f
:100f3000e9ff07000003be000405be000200be007a
:100f4000e5ff0700844f7500000006000200be00a8
:100f50006450e100050036006420e1000200360024
:100f60000968a30001003a000800be000160a0006b
:100f70004f0678004f05be004f04be00000006007b
:100f8000f0ff2f00f1ff2700f9ff3700889fbe0018
:100f90008a9fbe008c1f7800e4ff0700ebff330040
:100fa00003866c006450e100240032006420e100fc
:100fb000270032006150e100220032006120e10090
:100fc000210032008b854200eb07b1000134b800ec
:100fd000003ab8000804420089844a00013ab80087
:100fe0000030b8008880400009014a000400330046
:100ff0000000400081804800020149008b05e900a3
:10100000c909dd00830170000100320013002000d7
:10101000c814de004814dd004709de001200b200eb
:10102000c808de000884700085ff070001f0a100f9
:101030000cf0a70001f0a000cdff37006120e10017
:10104000cfff32000801be000200be00f7ff3700ec
:101050006150e100fcff3a00c9ff37006022b80090
:10106000060220000000d0008180d2000482d2005d
:101070008582d2000000a0000202520083825a0042
:10108000030031000202420083824a000000a100f6
:101090000603e900f3ff3a0000000600889fbe0047
:1010a0008a9fbe0030044200b0844a0030054b00e5
:1010b00090854b006000b1000898be000a90be0009
:1010c0000440e10005c8e10006d0e10007d8e100d6
:1010d00002003100680040001008e8004f05be0023
:1010e0004f04be0000000600889fbe008a9fbe001d
:1010f000100478009004900020059000b005900046
:101100000418540005985c0006185d0007985d00ff
:10111000110020000440e10005c8e10006d0e10014
:1011200007d8e100010039008000eb0010881000b2
:101130004f05be004f04be00000006001200fa007a
:10114000889fbe008a9fbe008c9fbe00e0b79f00b4
:10115000f1b79f0082bf9f0093bf9f000605be00ae
:101160000404be000000eb00d0b79f00c0b79f0092
:10117000b0b79f00a0b79f0090b79f00000678000f
:101180005fb19700cfb09700820141003fb0970058
:101190000200e00004003d00370007007e80570099
:1011a000beff070003003700330007007e805700b2
:1011b000cdff0700dfb697000d00e0000c00350002
:1011c0006fb29700ffb297000fbb97009fbb9700cd
:1011d00010002000010020006011b8000002720021
:1011e0008182720002037300838373001b00070077
:1011f0000c06e80001042000810f5600e0ff3a00d1
:101200000d00e00004003d000802be000a03be001d
:101210007e805700a1ff07005fa897000000e00054
:1012200005003a001fb29700afb297003fb3970096
:10123000cfb39700090007006fb09700ffb0970089
:101240000fb997009fb997004f06be004f05be002b
:101250004f04be000080fa000000060001000700f5
:1012600000000600a4b79f00b5b79f00c6b79f0057
:10127000d7b79f00000006004f09de008281710091
:10128000b3b79f004f01de00818040008280700074
:10129000a1b79f008fb097004f09de00000040000b
:1012a0000200700090b79f007fa897004f01de00fa
:1012b000818040008280700081b79f000d00070090
:1012c0004f3ade000000400004007000f0af9f00c5
:1012d000080007000402420085824a0006034b0012
:1012e00087834b00dfff07000802be000a03be0031
:1012f000000006002fb29700bfb297004fb39700cf
:10130000dfb3970000000600881f78001800200057
:10131000881f780089ff07008f87e9004f04780055
:1013200000000600801feb0084ff07008f87e900a4
:1013300000000600889fbe008a9fbe00e00f50009c
:10134000e08f5800e00f5900e08f59000c003d007d
:101350006044b8006055b8000000540081805c0013
:1013600002015d0083815d00180020001500070068
:1013700008003d00180007000004eb0005003700de
:101380000004eb000f00070002003d001200070000
:1013900018002000dcff07000800e0000600320013
:1013a0006022b8006033b8000000520081805a000b
:1013b00002015b0083815b004f05be004f04be004d
:1013c00000000600e00f5200e08f5a00e00f5b00c3
:1013d000e08f5b00000006006044b8006055b80074
:1013e0000402540085825c0006035d0087835d0073
:1013f00000000600889fbe008a9fbe008c1f7800f8
:10140000e00f5000e08f5800e00f5900e08f5900c6
:101410000d003d006044b8006055b8000000540065
:1014200081805c0002015d0083815d001c00200062
:101430000820e10009a8e1000ab0e1000bb8e100d2
:101440000d003d00080037000006eb00e00f5200e1
:10145000e08f5a00e00f5b00e08f5b0006003d006c
:101460006044b8006055b8000402540085825c00f6
:1014700006035d0087835d00aaff07000c00e00003
:10148000060032006022b8006033b800000052004d
:1014900081805a0002015b0083815b004f06780067
:1014a0004f05be004f04be0000000600889fbe002e
:1014b0008a9fbe008c1f78000006eb00e00f5000f2
:1014c000e08f5800e00f5900e08f590007003d0001
:1014d0006044b8006055b8000000540081805c0092
:1014e00002015d0083815d001c002000e00f5200be
:1014f000e08f5a00e00f5b00e08f5b0007003d00cb
:101500006044b8006055b8000402540085825c0055
:1015100006035d0087835d000c00a20066000700e3
:101520000c00e000060032006022b8006033b80012
:101530000000520081805a0002015b0083815b0041
:101540004f0678004f05be004f04be0000000600a5
:10155000889fbe008a9fbe00841f780073fe07002c
:101560004f00780011003300f0ff2f00838f6c00d4
:1015700006003b00040565000a00a70008003700cc
:1015800009f0a6001000200008003700820f540068
:10159000838f5c00030039001000200001003e0032
:1015a0000000200009f0a7000000ea004f05be007f
:1015b0004f04be000000e00000000600881f780015
:1015c000030478000300e00007003d006000100005
:1015d000e080180060011900e081190002003b0062
:1015e00001f02d00030037000400070008f0a700f9
:1015f00001f0a0004f04780000000600889fbe00a4
:101600008a9fbe0000827000040271000482710093
:10161000260032000004be000200be006011b800c7
:101620006b092000950220000182cf000a003900da
:101630000541b1000082cf00070039000541b1002b
:101640000982cf00040039000541b1000882cf00b3
:10165000010039000541b10005425200120032007c
:101660000a003b0082817100610164008100d100a9
:101670000080d3008984d3000884d3008b05e80060
:101680000442e800f7ff3a0007003700080444006e
:1016900089844c0000004800818048008b05e900e7
:1016a0000442e900f9ff3a00e5fd07004f05be00de
:1016b0004f04be0000000600889fbe008a9fbe0047
:1016c0008c9fbe000404b8000506b80089044600db
:1016d00060854e000606b8000a054600e0854e000b
:1016e0000706b8008b054600040eb80089044600c2
:1016f0000a854e00e0854d00050eb8000a0546003b
:101700008b854e00060eb8008b0546000416b80007
:101710000a0546008b854e000516b8008b0546006d
:10172000041eb8008b0546000800be000a01be007a
:101730004f06be004f05be004f04be00000006006d
:101740000e00fa00889fbe008a9fbe008c1f7800a2
:10175000a0bf9f00010478000205be00800478004d
:10176000880078006c805700380107006806600028
:10177000000278000430a100e10f520013003a008b
:10178000f481570008017800afb89700090078008d
:10179000410007000000e00002003a006000b800cd
:1017a000030037000fb897009fb897009ffd070010
:1017b000c0b79f00d1b79f006fb19700ffb19700ee
:1017c0000a0141008b81490016003700e20f5200e8
:1017d00018003a0014002000f48157000801780036
:1017e000afb8970009007800a90307000000e000e7
:1017f00002003a006000b800030037000fb89700fd
:101800009fb8970089fd0700c0b79f00d1b79f0020
:101810006fb19700ffb1970078805700360207003c
:101820000a01be004fb09700dfb09700c301070068
:101830000d003700e30f520003003a0000002000c3
:1018400001f82700050037006000b800e40f5200df
:1018500005003a00f0ff2f00f1ff2700c0b79f00fe
:10186000d1b79f0002003700c0b79f00d1b79f00db
:101870004fb09700dfb097000c00e000010032008d
:1018800001f0a2004f0678004f05be004f04be00d5
:101890000080fa0000000600ea874700889fbe002b
:1018a0008a9fbe008c9fbe008e1f7800d0b79f001d
:1018b000e2b79f0003047800e722b90084067800ad
:1018c0000006eb00010037001c00200081057800b5
:1018d0008b00780000c3b300b14f1000faff320054
:1018e000000ceb0038147800080578008004eb0049
:1018f0002a0037008d8f540018003d007200200030
:10190000110009008204d8000100e00003003a0041
:1019100064054500001deb000015eb001b02fb00f9
:10192000cfa2de000403b1000580b100a2002000b8
:10193000030020001a0078009a009000f4b79f007e
:1019400085bf9f00500407007fb297008fba9700b1
:10195000001d420001954a000d00370010002000d4
:1019600001002000180c4000589448008d8f54004e
:1019700008003a0040c3b3009b4f1000050034003c
:1019800012002000030020001a0d41005a95490062
:101990008904e8008b05e8001c0020001b4078004b
:1019a0008000fb000103b100e98f5000d1ff360039
:1019b0008d8f5400010034008d047800e1c2b30023
:1019c000814f500001003a008b05e8000900e0005b
:1019d0002c003a000b007800050037000081eb0076
:1019e0008081eb00180c4100589449001c00200035
:1019f0008005780001c3b300b0cf1000f7ff3200bc
:101a0000200037008d8f54001d003d007200200023
:101a1000110009008204d8000100e00003003a0030
:101a200064054500001deb000015eb007bfa9700f4
:101a30000402fb00cfa2de000403b1000580b10068
:101a4000a2002000030020001a0078009a009000f5
:101a5000f4b79f0085bf9f000b0407007fb297007b
:101a60008fba9700001d420001954a008904e800e2
:101a70000080eb008080eb00180c40005894480078
:101a80001c0020000b0778008e0578003b00fb004f
:101a90000003b100e90f5000daff36008c05780032
:101aa0007d002000110009008d04d8000100e00035
:101ab00018003200818656001a0178009a019000c1
:101ac000e00f5100e08f5900080032000d00e900de
:101ad0004200dd000149210000804000900090009c
:101ae00010007800e8030700008dbe0089844600de
:101af0006168b900181c1000189418000500370020
:101b0000e78454007200200003002000180c4100fc
:101b100058944900e68f540005003400aa0078006c
:101b20002a007800e00f5000e08f5800f4ff3200e8
:101b30000c00e000340032001e40780051c6b300b3
:101b4000814f50000300320051c4b300814f500058
:101b50002c003a005e457800b0c2b300804f5500bb
:101b600003003200d1c2b300814f550002003a0099
:101b70000e07e80001003700004578000e067800e7
:101b80006000b8008005eb000f003700f20f2e0058
:101b9000535f2000820f5000838f580009003c00e3
:101ba000a200200003002000b70307000d01fb0086
:101bb000cf91de000203b1000380b10002004000bb
:101bc000838048001b0020000c0778000e06780078
:101bd000bc4678000d01fb000203b100e90f510083
:101be000eaff3600d2c2b300824f550002003a002d
:101bf00060001000e0801800180c40005894480065
:101c0000010037008c057800efb197000300e00079
:101c1000050032000b00e00001003a005fb79700ba
:101c20006fb097000e0878007200200011000900c4
:101c30008204d8004f0778004f06be004f05be0053
:101c40004f04be00af00b10000000600889fbe0038
:101c50008a9fbe008c9fbe000004780001067800b9
:101c600098047800890578000b0578008a057800cb
:101c7000bb4678000d00fb00930007000000e00069
:101c8000f9ff3a00d0c2b30080cf560003003a00fb
:101c90000b05780081002000050037008000eb0074
:101ca000b0c2b30080cf560001003a000b057800a7
:101cb0001a407800e2c6b300824f500003003200a1
:101cc000e2c4b300824f500027003a008a00780037
:101cd0005141780010c6b300804f5100040032001b
:101ce0000000eb0013c4b300834f51005c003a00c6
:101cf00051417800e0c6b300804f5100040032002b
:101d00000000eb00e3c4b300834f510054003a00dd
:101d10008104780080c2b300d94f10000b003a0054
:101d2000640545008a057800ba4678000d00fb007e
:101d3000570007000000e000faff3a00f0c5b300ca
:101d400080cf5600f7ff3200010037008905780088
:101d50004000200091c2b3009bcf100040003a0029
:101d60008b04e8003e00370092c6b300824f50005b
:101d70000300320092c4b300824f50003c003a008e
:101d80005a417800e0c6b300804f51000400320091
:101d90000000eb00e3c4b300834f510030003a0071
:101da0005a41780060c6b300804f510004003200f1
:101db0000000eb0063c4b300834f510028003a00d9
:101dc0008a047800010078003000b300d940780020
:101dd00092c6b30082cf50000300320092c4b30019
:101de00082cf50001e003a008900780051417800ef
:101df000e3c6b300834f510003003200e3c4b300d5
:101e0000834f510016003a005141780093c6b30049
:101e1000834f51000300320093c4b300834f51003d
:101e20000f003a005141780043c7b300834f51007f
:101e30000300320043c5b300834f510008003a004d
:101e40005141780093c7b300834f51000300320023
:101e500093c5b300834f510001003a008104e800ac
:101e60000c00e00005003200090e78000300370086
:101e7000010078000000a0008a047800090c7800b6
:101e80004f06be004f05be004f04be000000060016
:101e90000003b1000b0035009000b10008003400d1
:101ea0008000b100070035009001b100040034004b
:101eb0007000b100030035009001b10001003c004a
:101ec00010000500000005006900e1000400350075
:101ed0006d00e100030034000002b1000100320097
:101ee00000000500100005000600fa00881f7800b9
:101ef000000478008800780068805700d2bf9f00f7
:101f0000e3bf9f00d80007005fb99700efb99700c3
:101f100018007800980090001cfc0700008cbe00a0
:101f20004fb99700cf91de000800780072000700db
:101f30004f0478000080fa00000006000400fa0058
:101f4000889fbe008a1f7800b0bf9f00c1bf9f005e
:101f50000204be00e00f5100e08f59006000320023
:101f60006011b80071fb07000000e0005c00320067
:101f7000e00f5400e08f5c002b003d006004140073
:101f8000e0841c000005eb000000200001f82300a5
:101f90000808a30006003200c251dd00024b2100f8
:101fa000028141009201900012017800f7fb0700c6
:101fb0008904d1000884d300e00f5400e08f5c0056
:101fc000030032000a05e800e50f5500f0ff3a0073
:101fd0000001be000000200001f8230011fb0700f3
:101fe0000001be006a805700bfff07000000e0004c
:101ff00033003d00e00f5400e08f5c0038003200f9
:10200000e2112b00f3a420006a805700b6ff0700fe
:102010000000e0002a003d0061045400e0845c0000
:10202000f7ff3a002a0037000005eb00000020000f
:1020300001f823000808a30006003200c251dd00a9
:10204000024b2100028141009201900012017800b0
:10205000cefb07008984d1000884d300e00f540030
:10206000e08f5c00030032000a05e800e50f550030
:10207000f0ff3a000001be006a8057009aff070097
:102080000000e0000e003d00e00f5400e08f5c0017
:1020900013003200e25a2c00d34927006a8057000f
:1020a00091ff07000000e00005003d0061045400be
:1020b000e0845c004240a900f6ff3c0004003700c9
:1020c0000000e00002003a00000120000300370099
:1020d000e10f500002003a00800020008600070057
:1020e0003fb89700cfb897004f0578004f04be0067
:1020f0000080fa00000006000400fa00889fbe007d
:102100000004780088047800590078004702de0057
:1021100084007800f10fb200e14f420009003a005c
:1021200080007800f107b200200020004b003a0048
:10213000100020001800e0004800320020002000bd
:10214000460037000100e0000a003a00080078006d
:10215000c2bf9f00d3bf9f007700070080007800b8
:102160000000eb004fb99700dfb997000100e000d5
:102170003a003c004f88de000281400083014800a5
:10218000e00f2000800f5100e08f59000a0034005a
:102190001900e00003003d000000200001f82f00be
:1021a000020037000000200001f82700008cbe006c
:1021b0001000200029003700e00f5100e08f590087
:1021c000050034004711dd00f00728001900600009
:1021d000800c710020003700990078000000280072
:1021e00000806000f10fb2000170a000810c780047
:1021f00061015100e0815900f70f4100e08f490073
:1022000004003d00800c7800000ceb000000eb00a7
:1022100012003700ef0f410003003d00010c780071
:10222000800ceb00700141000201ea00090032005d
:10223000f0001100990178008119dd009800780004
:102240008208de00018c7100990078000209de002e
:10225000820c7800990c70000080eb004f04be00e7
:102260000080fa0000000600889fbe000004be0047
:1022700000f82700590060004700de00f20f200040
:10228000820f50000a003a00000ceb00f207200019
:10229000190161002000200015003a001000200004
:1022a0001100e00012003200200020001000370072
:1022b0000000e00004003a00010078001e00070062
:1022c0000000e00008003c00f2072800190161004e
:1022d00001f02300810c710021f82f00010c400057
:1022e0000080eb0002003700000ceb000000eb0068
:1022f0004f04be0000000600e5006000030032004d
:102300001002200060a6880000000600780060002f
:10231000020032002002200060a6880000000600b3
:1023200070a680000000e000010032000000010003
:10233000c04c21000000060080007800d101780028
:102340000400280004826100f307b20083087800cb
:10235000120020000e003a00900178000300e00017
:102360001b003200830878000008eb0012ff2f00ea
:10237000070037008381410090027800cf2ade00f9
:102380008588710090017800038841000201e9000e
:1023900091017800f5072000858f5100f5ff360088
:1023a00005003700cf19dd009002d10005887100cb
:1023b0009108d1000201e80091017800f50f20009a
:1023c000858f5100f7ff3e00f007200080886100f4
:1023d000910872000200780000000600ee874700b6
:1023e000889fbe008a9fbe008c9fbe008e1f780013
:1023f000f0b79f000106780082057800000478009d
:10240000080578000a047800b84678000d00fb0043
:10241000adfe07000000e000f9ff3a00d0c2b300b3
:1024200080cf56000300320000c0e90080cf560084
:1024300002003a000a05e8000100370080467800f3
:102440000b00e00005003500e18f5500030032006d
:1024500040022000808f5500060034006044b80020
:102460000c00e000720032007fb09700000e780090
:10247000480037000b00e0000e003200f08f5500de
:102480001a003a0000c3b3009a4f100017003a0038
:102490001a40900081c7b300814f50000300320002
:1024a00081c5b300814f500010003a000a85e80052
:1024b0000e003700ab00200000c3b3009a4f10009d
:1024c0000a003a001a40900081c7b300814f5000c3
:1024d000040032008b00200081c5b300814f500002
:1024e00002003a000a85e8000b0120000a0078008b
:1024f000000278000400780001c3b300b0cf1000e0
:10250000fbff3200040778006044b800b4b79f00b6
:102510000d003700413d210081405000c1ef9f0078
:102520006159b9000800be00570107004fea970043
:102530000401fb00cf91de00c8b79f00d9b79f0010
:1025400002044000838448008e0278003e00fb00b5
:1025500085bf9f003d0007000b01780080007800d8
:10256000403d2100400007008fba97000000e000c6
:10257000e8ff3a003fb29700850f550007003a0088
:102580006044b8000c00e00029003200ffb2970060
:10259000050e78006044b800250037000482520020
:1025a000903f21000b0040001000fb000002520091
:1025b0001700330011003a004fe997000200fb00ba
:1025c000cf80de000000540081805c00800f54004a
:1025d000818f5c00090039006159b90085bf9f00f7
:1025e0009efa07008fba97004fb19700dfb19700ae
:1025f000820f5000838f5800050032002002200017
:1026000060a688000084eb008084eb0005003700a2
:10261000d0c2b30080cf560002003a00600414001c
:10262000e0841c000c00e00001003200050e780080
:102630000800be004f0778004f06be004f05be00e1
:102640004f04be00ef00b1000000060080007800db
:102650001104b100030035009101b10001003c00fc
:102660000050a0000000060003003700b0cf1000ab
:10267000050032000201e900800178000200e0005c
:10268000faff3a0000000500030078000000060091
:10269000e8874700889fbe008a9fbe008c9fbe00cf
:1026a0008e1f7800e0b79f00820478000304780052
:1026b000e722b9000006eb00010037001c002000f3
:1026c0008101780000c3b300b14f1000fbff32005e
:1026d000000ceb0038147800880578000005eb004a
:1026e0002c003700840f550017003d0072002000b9
:1026f000110009000205d8000100e00003003a00c3
:10270000e4854500801deb008015eb001b0678007a
:102710009b069000446bdd00cc63de0087037300f2
:102720004463dd004143210001805200e14121006a
:10273000008040001000fb00cf80de00801d4300c1
:1027400081954b001100370010002000010020008f
:10275000180c400058944800840f55000c003a00b3
:102760004143210001805200e141210000804000ee
:1027700071c0b30090cf100005003400100020009d
:10278000010020009b0d4000db9548000a05e80091
:102790001c002000830678008d0178003347780004
:1027a0008e00fb006201200040432100f3b79f0030
:1027b00084bf9f00acff070080027800ffb1970044
:1027c0000fba97000500e000c6ff3a00840f5500dd
:1027d0000100340004057800e0c2b300804f5700c8
:1027e00001003a008d06e8000a00e0002a003a00e5
:1027f0000d007800050037000081eb008081eb00c0
:10280000180c4100589449001c00200080067800f4
:1028100001c3b300b0cf1000f7ff32001e00370035
:10282000840f55001b003d007200200011000900bc
:102830000205d8000100e00003003a00e4854500ed
:10284000801deb008015eb001b0378009b039000bc
:102850004439dd00cc31de00830171004431dd00fc
:102860004143210001805200e141210000804000ed
:102870001000fb00cf80de00801d410081954900e3
:102880000a05e8000081eb008081eb00180c410094
:10289000589449001c0020000d0778008e0678002f
:1028a000bd00fb00620120004043210084bf9f0067
:1028b0006dff0700800278000fba97000500e00066
:1028c000d7ff3a000c0178007300200011000900c6
:1028d0000305d8000100e00014003200018051001f
:1028e000c200dd001b0278009b0290008100e9001d
:1028f000030033000402420085824a00fbff3700d8
:10290000848dbe000a054000cf80de00181c100038
:102910001894180005003700670555007000200066
:1029200001002000180c400058944800e60f5500a4
:1029300005003400ab0078002b007800e00f500059
:10294000e08f5800f4ff32001800780098009000e3
:10295000420add00ce02de00850272004202dd0086
:10296000048cbe000c00e000380032001e407800ed
:1029700001c7b300814f50000300320001c5b3000e
:10298000814f500030003a000e067800dc45780098
:10299000b0c2b30080cf550003003200d1c2b300f3
:1029a00081cf550002003a000c06e8000100370014
:1029b000804578006000b8000001eb00130037008c
:1029c000f20f2e00535f2000820f5000838f5800bb
:1029d0000d003c00a20020000300200084bf9f00e7
:1029e000f5b79f00280007000d01fb00cf91de0026
:1029f0000203b1000380b100020040008380480060
:102a0000ffb297000fba9700120020000c07780061
:102a10000e067800bc4678008d01fb000303b10070
:102a2000e98f5100e6ff3600d3c2b30083cf5500d3
:102a300002003a0060001000e0801800041c400012
:102a400005944800010037000c0178000900e000ff
:102a5000040032000200e00001003a006fb7970066
:102a60008e0c780072002000110009000205d800c9
:102a70004f0778004f06be004f05be004f04be0052
:102a80008f00b10000000600020ab900001bb90067
:102a90000200b800810042008100430000000600ef
:020000040000fa
:102aa00045450000570000004c4100005600000062
:102ab000534100004e490000005500004e4b0000fd
:102ac0004e4f00000045000031310000004500007d
:102ad00031320000004500003030000000440000aa
:102ae00000570000004500000048000000460000bc
:102af00000410000005a0000004f000036000000b6
:102b00004f350000004f0000310000004f32000040
:102b1000004f0000330000004f340000005300005d
:102b20003600000053350000005300003100000063
:102b30005332000000530000330000005334000003
:102b40000052000000500000004900000043000057
:102b500000560000004d0000005400000055000029
:102b600000420000004a000000450000303700002d
:102b7000002c000009000000585800000020000050
:102b8000003100002c090000003000002c0900007a
:102b9000004600004c4f0000574f00004646000022
:102ba0002c09000000420000554f00002c090000d5
:102bb00000420000554300002c09000000420000c4
:102bc000444f00002c090000004200004443000074
:102bd0002c09000000420000454f00002c090000b5
:102be00000420000454300002c090000000d0000d9
:102bf0000a000000000000000000000000000000cb
:102c000000000000000000000000000000010000c3
:102c100000000000000000000000000001000000b3
:102c200000000000010000000000000001000000a2
:102c30000001000000010000000000000001000091
:102c40000001000000010000000100000001000080
:102c5000000100000001000001000000010100006f
:102c6000010000000101000001000000010100005e
:102c7000010100000101000000010000010100004d
:102c8000010100000101000001010000010100003c
:102c90000101000001000000c0f90000a4b0000024
:102ca0009992000082f8000080900000000000006f
:102cb000060000001f0000000500000002000000e8
:102cc0002b0000004a010000090000001c00000069
:102cd0001b000000030000000400000019000000b9
:102ce0001a0000001c0000001b0000000300000090
:102cf00004000000190000001a0000000600000097
:102d000006000000060000000600000006000000ab
:102d10000600000006000000060000000800000099
:102d20000600000007000000370000003800000027
:102d30000600000007000000080000000b00000073
:102d4000110000001300000008000000090000004e
:102d50000a0000000b0000000c0000000d00000045
:102d60000e0000000f000000100000001100000025
:102d70001200000013000000550000005000000089
:102d80008c000000000000005500000096000000cc
:102d9000b4000000000000005500000069000000c1
:082da0008c000000000000009f
:020000040000fa
:102da8000200fa000040eb00004f7800b089800074
:102db800610060000000e00006003200618f8000c2
:102dc800508e8000808f50000200350010c0b30084
:102dd800004f7800b0898000620060000000e000c9
:102de80006003200718f8000508e8000808f500066
:102df8000200350010c0b300004f7800b089800091
:102e0800640060000000e00006003200818f80004e
:102e1800508e8000808f50000200350010c0b30033
:102e2800004f7800b0898000680060000000e00072
:102e380006003200918f8000508e8000808f5000f5
:102e48000200350010c0b300004f78001e40780023
:102e58000080fa00000006000200fa000040eb00c3
:102e6800004f7800b0898000610060000000e00039
:102e780006003200c18f800060908000808f500073
:102e88000200350010c0b300004f7800b089800000
:102e9800620060000000e00006003200d18f800070
:102ea80060908000808f50000200350010c0b30091
:102eb800004f7800b0898000640060000000e000e6
:102ec80006003200e18f800060908000808f500003
:102ed8000200350010c0b300004f7800b0898000b0
:102ee800680060000000e00006003200f18f8000fa
:102ef80060908000808f50000200350010c0b30041
:102f0800004f78001e4078000080fa00000006009c
:102f18000200fa000040eb00004f78000040eb0090
:102f2800004f7800560037001e81fb001e80fb0012
:102f38006c00400080004000401c210000804000e0
:102f4800900078006600410000014000401c21000c
:102f580000004100010878001e81fb001e80fb0074
:102f68007200400080004000401c210000804000aa
:102f7800900078006c00410000014000401c2100d6
:102f880000004100010878001e81fb001e80fb0044
:102f98000000e8008000400060132100008040002d
:102fa80010007800800078007200410000014000a5
:102fb800401c210000004100010878001e81fb0030
:102fc8001e80fb007200400080004000401c210071
:102fd80000804000900078001e80fb0066004000e2
:102fe80080014000401c2100008041001000780052
:102ff80000805000cf00de00008040000080d1003b
:10300800800078007800410000014000401c210049
:1030180000004100010878001e80fb0066004000a7
:1030280080004000401c2100008040009000780093
:1030380030382000808f5000090034001e80fb00cb
:103048006600400080004000401c210000804000d5
:103058009000780020d52100808f500007003400b0
:103068001e80fb007800400080004000401c2100ca
:10307800008040008000eb00010878001e4fe80047
:103088001e407800e54f5000a7ff360010908000e2
:1030980020908800508f8000109088001190800048
:1030a800209080000080500030908800b089800017
:1030b800610060000000e00012003200e189800039
:1030c80010d52100808f50000e003e00e18980005d
:1030d800608e8000808f50000a003600718d80005d
:1030e800a0002000010001000004a2000004e0008c
:1030f80004003200208e80000030a000208e88005e
:1031080051003700b0898000620060000000e000d4
:1031180012003200f189800010d52100808f500004
:103128000e003e00f1898000608e8000808f500084
:103138000a003600718d8000b000200001000100f7
:103148000004a2000004e00004003200208e800089
:103158000040a000208e88003b003700b089800026
:10316800640060000000e00012003200018a800064
:1031780010d52100808f50000e003e00018a80008b
:10318800608e8000808f50000a003600718d8000ac
:10319800c0002000010001000004a2000004e000bb
:1031a80004003200208e80000050a000208e88008d
:1031b80025003700b0898000680060000000e0004a
:1031c80012003200118a800010d52100808f500033
:1031d8000e003e00118a8000608e8000808f5000b3
:1031e8000a003600718d8000d00020000100010027
:1031f8000004a2000004e00004003200208e8000d9
:103208000060a000208e88000f003700618d8000cc
:103218004000200001000100208e80000030a10045
:10322800208e8800208e80000040a100208e88001b
:10323800208e80000050a100208e8800208e800003
:103248000060a100208e88005ed0bf00e14f5000d2
:103258003c003a00e0828000ea0f50003900340058
:103268005e70ef00b0898000610060000000e0003f
:103278000f003200b0898000620060000000e000aa
:103288000b003200b0898000640060000000e0009c
:1032980007003200b0898000680060000000e0008c
:1032a8000300320040c0b30031f0b70025003700fa
:1032b800b0898000610060000000e0000f0032006b
:1032c800b0898000620060000000e0000b0032005e
:1032d800b0898000640060000000e00007003a0048
:1032e800b0898000680060000000e00003003a0038
:1032f80020c0b30031f0b70012003700b089800059
:10330800610060000000e0000e003200b08980001b
:10331800620060000000e0000a003a00b089800006
:10332800640060000000e00006003a00b0898000f8
:10333800680060000000e00002003a0010c0b3001e
:1033480031f0b70031d0bf00e14f500024003a00ff
:10335800208e8000680060000000e000a7003200b6
:1033680070888000610060000000e00018003200f2
:103378002bd0bf000004e00011003a0010c0b300d9
:103388002bf0b700208e8000680060000000e0008d
:10339800050032002cd0bf000040e8002cf0b70038
:1033a80010c0b3002af0b7002cd0bf00e24f500085
:1033b80003003600518d8000e0012000010001006b
:1033c800518d800040002000010001008b00370073
:1033d800518d800040002000010001008700370067
:1033e80031d0bf00e24f50001a003a0070888000c8
:1033f800610060000000e000110032001bd0bf0037
:103408000004e000070032002cd0bf000040e800b4
:103418002cf0b7001b70ef006000b800f080880047
:10342800018188002cd0bf00e24f50000500360013
:10343800518d8000e00120000100010001003700eb
:103448001b70ef006000b800f080880001818800e0
:103458006a00370031d0bf00e44f500067003a00df
:10346800208e8000680060000000e0000e003a0036
:10347800208e8000700060000000e0000a003a0022
:10348800218e800000022000008060000000e00023
:1034980005003a00218e80000004200000806000b2
:1034a8000000e00055003200708880006100600074
:1034b8000000e0004e0032002bd0bf000004e00006
:1034c80047003a0010c0b3002bf0b700208e8000f0
:1034d800680060000000e000060032002dd0bf0048
:1034e8000040e8002df0b70010c0b3002af0b70084
:1034f8001f003700208e8000700060000000e00090
:10350800060032002ed0bf000040e8002ef0b700c1
:1035180020c0b3002af0b70015003700218e8000c4
:1035280000022000008060000000e0000600320079
:103538002fd0bf000040e8002ff0b70030c0b30024
:103548002af0b7000a003700218e8000000420000e
:10355800008060000000e0000500320030d0bf00ad
:103568000040e80030f0b70040c0b3002af0b700d0
:103578002dd0bf00e24f500003003e002ed0bf0008
:10358800e24f50000200360010c0b30032f0b7001e
:103598002fd0bf00e24f500003003e0030d0bf00e4
:1035a800e24f50000200360010c0b30033f0b700fd
:1035b80032d0bf000004e0000600320033d0bf0064
:1035c8000004e00003003200518d8000e00120007b
:1035d80001000100518d8000400020000100010021
:1035e800518d8000400020000100010003003700d9
:1035f800518d800040002000010001002bd0bf0049
:103608000004e0004d003200b65602000000000041
:10361800e50f500025003a002ad0bf00e14f5000c6
:1036280007003a00e089800029040700d10b200038
:10363800810f500041003e002b70ef003f00370023
:103648002ad0bf00e24f500007003a00f0898000fe
:103658001f040700d10b2000810f500037003e00e7
:103668002b70ef00350037002ad0bf00e34f500021
:1036780007003a00008a800015040700d10b2000db
:10368800810f50002d003e002b70ef002b003700fb
:10369800108a80000e040700d10b2000810f500013
:1036a80026003e002b70ef00240037002ad0bf0010
:1036b800e14f500007003a00e08980000404070049
:1036c800310b2000810f50001c003e002b70ef00d2
:1036d8001a0037002ad0bf00e24f500007003a0016
:1036e800f0898000fa030700310b2000810f500099
:1036f80012003e002b70ef00100037002ad0bf00e8
:10370800e34f500007003a00008a8000f0030700ea
:10371800310b2000810f500008003e002b70ef0095
:1037280006003700108a8000e9030700310b2000eb
:10373800810f500001003e002b70ef00301921006e
:10374800104078000004e00004003200600020000f
:10375800308e880070002000408e88001082800023
:10376800416c2900000040000080400010007800f3
:10377800f0818800508f8000d5030700f181800018
:10378800810f50000a003600c003200050908800c6
:1037980090002000308e880060002000408e880055
:1037a800180ea900182ea800050ea900188ea8004a
:1037b800308e80008000eb00920020000300200083
:1037c800820f5000838f580088023e0000060100d7
:1037d800250037003a003700d80037004b01370082
:1037e800b9013700ae003700150237002402370050
:1037f8002f02370000003700509080000000e000e2
:1038080008003200509080000000e90050908800c5
:10381800180ea900182ea800050ea900188ea800d9
:1038280088023700508f8000a9030700f1818000cb
:10383800810f5000050031000000eb00308e880039
:1038480090002000408e88007e023700c0032000d0
:103858005090880090002000308e88006000200082
:10386800408e880077023700708880006100600011
:103878000000e0000d003200009080000000e00031
:1038880005003a0010002000308e88000000eb0090
:10389800408e88006b02370080002000308e880040
:1038a8000000eb00408e88006602370030002000e0
:1038b800308e88000000eb00408e880061023700df
:1038c80031d0bf00e44f500052003a0070888000a9
:1038d800610060000000e00028003200b6560200d7
:1038e80000000000e50f500024003a0032d0bf006d
:1038f8000004e00021003a0033d0bf000004e000db
:103908001e003a00218e8000000820000080600020
:103918000000e00008003200208e80000070a10046
:10392800208e8800050ea900188ea800180ea80081
:10393800182ea9000c003700218e800000082000f6
:10394800008060000000e00007003a00208e800040
:103958000070a000208e8800180ea900182ea8005c
:10396800050ea800188ea90050002000308e88008f
:1039780010002000408e88003000370032d0bf0091
:103988000004e0000800320033d0bf000004e0006b
:1039980005003200180ea900182ea800050ea9006f
:1039a800188ea8002500370033d0bf000004e000bf
:1039b80008003200c000200074350200000000003a
:1039c800180ea800182ea900050ea900188ea80028
:1039d8001a00370032d0bf000004e00008003200af
:1039e800b00020007435020000000000180ea90085
:1039f800182ea800050ea800188ea9000f00370081
:103a0800180ea800182ea900050ea800188ea900e7
:103a18000a00370031d0bf00e14f500003003200e8
:103a280031d0bf00e24f500004003a00180ea80041
:103a3800182ea900050ea800188ea90006fd07007b
:103a48000004e000070032004001200000908800d8
:103a580080002000308e880010002000408e8800f2
:103a6800f801370070888000610060000000e00005
:103a780004003200208e8000610060000000e00039
:103a8800df01320020002000308e88001000200066
:103a9800408e8800c003200040908800e90137006c
:103aa80070888000610060000000e00014003200af
:103ab800b6560200000000000000e00010003a00c6
:103ac800180ea800182ea900050ea800188ea90027
:103ad800009080000000e00005003a00100020007f
:103ae800308e880050002000408e88000400370087
:103af80080002000308e880050002000408e880012
:103b080070888000610060000000e000040032005e
:103b1800208e8000610060000000e000ba013200e1
:103b280020002000308e880050002000408e880041
:103b3800c003200040908800c201370040908000f8
:103b48000000e00047003200409080000000e900db
:103b58004090880070888000610060000000e000ec
:103b68005c003200009080000000e0000900320094
:103b780080002000308e880020002000408e8800c1
:103b8800180ea800182ea900050ea800188ea90066
:103b980050003700208e8000610060000000e000c7
:103ba8004c003a0031d0bf00e44f500028003a00e2
:103bb800b656020000000000e50f500045003a002c
:103bc80032d0bf000004e00042003a0033d0bf000a
:103bd8000004e0003f003a00218e80000008200029
:103be800008060000000e00008003200208e8000a5
:103bf8000070a100208e8800050ea900188ea8006c
:103c0800180ea800182ea9000c003700218e80007d
:103c180000082000008060000000e00007003a0073
:103c2800208e80000070a000208e8800180ea90049
:103c3800182ea800050ea800188ea9005000200014
:103c4800308e880030002000408e88002100370028
:103c580010002000308e880020002000408e880050
:103c68001c003700308b8000610060000000e0001d
:103c780010003200009080000000e0000d003a00c3
:103c880047fc07000004a2000004e000090032001d
:103c980040002000308e880020002000408e8800e0
:103ca800180ea800182ea900050ea800188ea90045
:103cb8000800370030002000308e880020002000e7
:103cc800408e8800180ea900182ea800050ea9001d
:103cd800188ea80033d0bf000004e00004003200b2
:103ce800c0002000743502000000000055013700b4
:103cf80032d0bf000004e00045013200b0002000cf
:103d080074350200000000004e0137007088800002
:103d1800610060000000e000450032000090800073
:103d28000000e00039003a00b6560200000000002a
:103d3800e50f500030003a0031d0bf000024a20047
:103d48000080fb000000e9004f00de000040780022
:103d580021032100914078008180fb008100e90067
:103d6800cf08de0081407800014060000004e000d8
:103d78002100320033d0bf000004e0001e003a00ea
:103d8800218e800000082000008060000000e00014
:103d980008003a00208e80000070a000208e880065
:103da800050ea900188ea800180ea800182ea90044
:103db8000c003700218e8000000820000080600081
:103dc8000000e00007003200208e80000070a10093
:103dd800208e8800180ea900182ea800050ea8002d
:103de800188ea90050002000308e88003000200076
:103df800408e88002600370010002000308e880092
:103e080030002000408e880021003700800020000c
:103e1800308e880030002000408e8800180ea800e0
:103e2800182ea900050ea800188ea9001800370042
:103e3800308b8000610060000000e000100032005c
:103e4800009080000000e0000d003a00d4fb07005d
:103e58000004a2000004e000090032004000200035
:103e6800308e880030002000408e8800180ea80090
:103e7800182ea900050ea800188ea9000400370006
:103e8800180ea900182ea800050ea900188ea80063
:103e980033d0bf000004e00004003200c00020005e
:103ea8007435020000000000e600370032d0bf0081
:103eb8000004e000d8003200b00020007435020091
:103ec80000000000df003700e3fb07000004e0000b
:103ed80007003200400120000090880030002000d8
:103ee800308e880040002000408e8800d5003700c2
:103ef80070888000610060000000e000400032002f
:103f0800009080000000e00034003a0031d0bf008b
:103f1800e44f500028003a00b656020000000000a6
:103f2800e50f5000be003a0032d0bf000004e000a8
:103f3800bd003a0033d0bf000004e000bc003a00e6
:103f4800218e800000082000008060000000e00052
:103f580008003200208e80000070a100208e8800aa
:103f6800050ea900188ea800180ea800182ea90082
:103f78000c003700218e80000008200000806000bf
:103f88000000e00007003a00208e80000070a000ca
:103f9800208e8800180ea900182ea800050ea8006b
:103fa800188ea90050002000308e880030002000b4
:103fb800408e8800a300370010002000308e880053
:103fc80040002000408e8800180ea800182ea90076
:103fd800050ea800188ea9009a003700800020005e
:103fe800308e880040002000408e8800180ea800ff
:103ff800182ea900050ea800188ea90091003700f8
:1040080067fb07000004e00004003a00308b8000e2
:10401800610060000000e00087003a0030002000e6
:10402800308e880040002000408e8800180ea900bd
:10403800182ea800050ea900188ea80081003700c8
:1040480030192100104078000004e00007003a0011
:10405800c00320005090880070002000308e880037
:1040680060002000408e880076003700180ea900f6
:10407800182ea800050ea900188ea8007100370098
:10408800509080000000e000040032005090800052
:104098000000e900509088006a0037000000eb003b
:1040a800308e880070002000408e88006500370040
:1040b80070888000610060000000e0004400320069
:1040c800009080000000e9000090880000908000c7
:1040d8000000e0005a003a0031d0bf00e44f500021
:1040e80032003a0032d0bf000004e0002f003a004e
:1040f80033d0bf000004e0002c003a00b65602009e
:1041080000000000e50f50001e003a00218e8000dc
:1041180000082000008060000000e0000800320075
:10412800208e80000070a100208e8800050ea90056
:10413800188ea800180ea800182ea9000c00370029
:10414800218e800000082000008060000000e00050
:1041580007003a00208e80000070a000208e8800a2
:10416800180ea900182ea800050ea800188ea90080
:1041780050002000308e880030002000408e8800db
:104188000800370010002000308e880080002000d2
:10419800408e8800180ea800182ea900050ea80049
:1041a800188ea9000000000026003700100020002b
:1041b800308e880080002000408e8800180ea800ed
:1041c800182ea900050ea800188ea9001d0037009a
:1041d800c00320004090880020002000308e880016
:1041e80080002000408e880016003700180ea900b5
:1041f800182ea800050ea900188ea8001100370077
:10420800000000000f003700000000000d0037001c
:10421800000000000b003700000000000900370014
:10422800000000000700370000000000050037000c
:104238000000000003003700000000000100370004
:1042480000000000308e8000e40f500007003200ac
:10425800e50f500009003200e10f50000a003a0053
:1042680090908000000001000e00370030102100ff
:1042780081c7b300014878000a0037009090800099
:104288000000010007003700301021008040eb00db
:10429800014878006000b80070908800819088001c
:1042a800000000000040eb000080fa00000006005b
:1042b8000600fa00889fbe006000b800008fbe00ac
:1042c8000000eb0020079800518e800010908000bd
:1042d80000805000cf00de00008040000080d10048
:1042e8002007980078908000899080002e00900028
:1042f800cf80de0016070200000000000001be00ab
:104308000800be00580502000000000070908800f8
:1043180081908800709080008190800018c0b30060
:1043280002c02600f37c24009a0602000000000068
:104338000000e00001003c000044eb000804e0003d
:104348000400320000c02600f17c24007090880030
:1043580081908800709080008190800018c0b30020
:104368006011b80096060200000000000000e0009e
:10437800010035000044eb000804e00003003200af
:104388006000b8007090880081908800688b800079
:10439800798b80002e009000cf80de001607020087
:1043a800000000000001be000800be00c6070200b1
:1043b800000000000004be00848b8000958b800004
:1043c80070908000819080000001be000400be0053
:1043d800c6070200000000000001be000800be0081
:1043e8005805020000000000008fbe002e0090005b
:1043f800cf80de00160702000000000018c0b300de
:10440800a27c2400432d2400960602000000000030
:104418000000e000010035000044eb000804e00063
:104428002c003200309080000000e00015003400bd
:10443800a88b8000b98b800030908000cf80de0090
:1044480016070200000000000001be000800be00c0
:10445800c60702000000000002002000030024003c
:1044680012060200000000000001be001e007800d5
:104478009e0090005605020000000000008fbe005c
:1044880014003700c88b8000d98b800030908000e2
:10449800cf80de0016070200000000000001be0009
:1044a8000800be00c607020000000000020020004d
:1044b8000300240012060200000000000001be00f4
:1044c8001e0078009e0090005605020000000000c3
:1044d800008fbe002e00900000004000cf80de005c
:1044e80016070200000000000002be00e08b8000fa
:1044f800f18b800018c0b3000001be000400be00ac
:104508009a060200000000000000e00001003c00e4
:104518000044eb000804e0002100320030908000e5
:10452800cf80de0016070200000000000002be0077
:10453800008c8000118c800018c0b3000001be0000
:104548000400be0096060200000000000000e00023
:10455800010035000044eb000804e00010003200c0
:10456800088c8000198c80002e009000cf80de001f
:1045780016070200000000000001be000800be008f
:10458800c6070200000000000001be001e007800ff
:104598009e0090005805020000000000008fbe0039
:1045a8002e00900000004000cf80de0016070200b9
:1045b800000000000002be00e08b8000f18b80004c
:1045c80018c0b3000001be000400be009a06020035
:1045d800000000000000e00001003c000044eb0087
:1045e8000804e00014003200088c8000198c800058
:1045f80030908000cf80de00160702000000000027
:104608000001be000800be00c6070200000000004e
:10461800020020000300240012060200000000002f
:104628000001be001e0078009e00900056050200a2
:1046380000000000008fbe0018c0b3000200200078
:10464800032f24001e0078009e0090009a060200a6
:10465800000000000000e00001003c000044eb0006
:104668000804e0000300320000002000012f2400ad
:10467800008fbe0018c0b3006011b8001e0078009b
:104688009e00900096060200000000000000e00076
:10469800010035000044eb000804e000020032008d
:1046a8006000b800008fbe001e0078009e009000d9
:1046b800e006020000000000804078003010210071
:1046c800014878004f04be000080fa000000060090
:1046d8000200fa00000f7800204f21009e007800a9
:1046e800808f500010003e001e0078008000eb0014
:1046f8001c0702000000000082802e00e3cb23008c
:10470800c607020000000000d2cc2c00c310240011
:104718005805020000000000e0060200000000004a
:104728000000780010003700e0b02e001e004000a6
:104738008000eb001c07020000000000026f21004f
:1047480083d02300c60702000000000002002c00ee
:10475800533024005805020000000000e006020063
:1047680000000000000078000080fa000000060049
:104778000200fa00000f7800500820009e00780020
:10478800808f500010003e001e0078008000eb0073
:104798001c07020000000000d2cc2c00c31024002b
:1047a800560502000000000082802e00e3cb2300a3
:1047b8001206020000000000e006020000000000ef
:1047c800000078000f0037001e0078008000eb0022
:1047d8001c07020000000000a299290013232400ee
:1047e8005805020000000000026f210083d023005a
:1047f8001206020000000000e006020000000000af
:0c480800000078000080fa0000000600ac
:020000040000fa
:104814000000fa002023a8000080fa00000006002f
:104824000000fa002023a9000080fa00000006001e
:104834000000fa00001880000080fa000000060062
:104844000000fa0000198000004078006140600018
:104854000080fb0000f0a7000000ea000000ea006e
:104864004f00de00004078000080fa0000000600df
:104874000200fa00000f78001e0078000040780063
:10488400f043b2008080fb00f00320000080600051
:104894004219800001fc2f008100610001007000ba
:1048a400401988000080fa00000006000000fa00a9
:1048b400e0032000eeff0700d5ff07003b23a8001c
:1048c4000080fa00000006000000fa003b23a90063
:1048d400d3ff07000080fa00000006000400fa007d
:1048e400000f7800110798001e007800100078006f
:1048f4000000e0000f0032001e00780090007800f5
:104904001e007800100078004200de008080500015
:104914001e007800010878001e00780090007800de
:104924001e009000808040001e007800010878007e
:10493400040037001e009000c200dd001e00780055
:10494400010878001e007800100078004200de00a4
:104954000080fa00000006000600fa0040479800b4
:104964004e409000e54f500055003e004e409000f0
:104974000080fb000000e80080004000601321007c
:104984000080400090007800110798000040eb0080
:10499400004f78009e00900030382000808f500037
:1049a40009003e00518d80004e4090000080fb00c5
:1049b40000014000406a2900000041001000780016
:1049c40001000100250037009e0090006066210070
:1049d400808f5000190036004e409000de5d0200ca
:1049e40000000000004f78001e4078000004e00042
:1049f40009003200518d80004e4090000080fb0081
:104a040000014000406a29000000410010007800c5
:104a14000100010011003700618d80004e409000bc
:104a24000080fb0000014000406a290000004100b2
:104a3400100078000100010008003700618d80003b
:104a44004e4090000080fb0000014000406a2900b5
:104a54000000410010007800010001009e00900059
:104a640020d52100808f50000d0036001e407800b4
:104a74000004a2000004e00009003200518d80000f
:104a84004e4090000080fb0000014000006b2900b4
:104a94000000410010007800010001000800370008
:104aa400618d80004e4090000080fb0000014000ba
:104ab400006b290000004100100078000100010093
:104ac4000080fa00000006000000fa006086200062
:104ad400c0818800318a8000c0818000808f5000ae
:104ae40004003600518d80001000200001000100f8
:104af40026003700a0792000c0818800318a800018
:104b0400c0818000808f500004003100518d8000ee
:104b140010002000010001001c003700308a8000d2
:104b24008000eb00027122008289b900e002b90022
:104b34008401780003014100037122000300b800de
:104b440001014100820078004409dd004c00de00d0
:104b540000007100cc08de0000007800c0818800ed
:104b6400c181800030192100808f500004003e0074
:104b7400518d800010002000010001000300370067
:104b8400618d800010002000010001000080fa0007
:104b9400000006000000fa00d01521008040eb0060
:104ba40001487800e189800010d52100808f5000f1
:104bb4000d003e00e189800040382000808f5000c5
:104bc40009003600b08980000000a000b089880088
:104bd400d0152100104078008040e800d015210055
:104be4000148780012003700e189800010d52100c7
:104bf400808f50000e00360020c0b300de5d02003e
:104c0400000000000004a2000004e00008003200dc
:104c1400b08980000000a000b0898800d015210070
:104c2400104078008040e800d01521000148780049
:104c3400f189800010d52100808f50000d003e00c6
:104c4400f189800040382000808f50000900360030
:104c5400b08980000010a000b0898800d015210020
:104c6400104078008040e800d01521000148780009
:104c740012003700f189800010d52100808f500088
:104c84000e00360030c0b300de5d020000000000fc
:104c94000004a2000004e00008003200b089800093
:104ca4000010a000b0898800d015210010407800c1
:104cb4008040e800d015210001487800018a800076
:104cc40010d52100808f50000d003e00018a800025
:104cd40040382000808f500009003600b0898000e1
:104ce4000020a000b0898800d01521001040780071
:104cf4008040e800d01521000148780012003700f8
:104d0400018a800010d52100808f50000e003600eb
:104d140040c0b300de5d0200000000000004a200f9
:104d24000004e00008003200b08980000020a000e8
:104d3400b0898800d0152100104078008040e80038
:104d4400d015210001487800118a800010d5210077
:104d5400808f50000d003e00118a800040382000f2
:104d6400808f500009003600b08980000030a00018
:104d7400b0898800d0152100104078008040e800f8
:104d8400d01521000148780012003700118a8000f4
:104d940010d52100808f50000e00360050c0b300a3
:104da400de5d0200000000000004a2000004e00038
:104db40008003200b08980000030a000b08988006b
:104dc400d0152100104078008040e800d015210063
:104dd40001487800b0898000610060000000e000b4
:104de4000f003a00b0898000620060000000e0001b
:104df4000b003a00b0898000640060000000e0000d
:104e040007003a00b0898000680060000000e000fc
:104e140003003a00b08980000000a000b089880037
:104e2400d015210010407800e24f500004003600f5
:104e3400b08980000040a000b089880003003700da
:104e4400b08980000040a100b08988000080fa0089
:104e5400000006000400fa00881f780010c0b300a8
:104e6400004f78000000eb0010079800008b8000d2
:104e7400e20f500016003200e20f500005003e0021
:104e84000000e0000a003200e10f50000c00320084
:104e940000013700e40f500021003200e40f5000fd
:104ea40013003900e50f500021003200f9003700eb
:104eb4007efe070010002000008b8800f5003700fc
:104ec40081fe070020002000008b8800f1003700dd
:104ed4005bfe07000004e000eb00320054fe070014
:104ee4001007980030002000008b8800e90037008c
:104ef400c0152100104078000080fb0080004000b5
:104f040040692900008040001000780058fe070026
:104f14003ffe070040002000008b8800dd003700c2
:104f24003ffe070050002000008b8800d9003700a6
:104f340043fe07000004e000d5003200c015210044
:104f4400104078000084fb0039fe070080007800e0
:104f54000800e80000014000601321000000410047
:104f640001087800308a8000b0818800c0152100d3
:104f7400104078000084fb00c01521001040780028
:104f84000080fb000000e800800040006013210066
:104f94000080400090007800c01521001040780087
:104fa4000080fb0000004000000178008014210014
:104fb4000000410049fe0700800078000800e80076
:104fc4000001400060132100000041000108780046
:104fd400c015210010407800e64f5000190032003f
:104fe400c015210010407800e74f50001500320032
:104ff400c0152100104078000081fb00c01521007d
:10500400104078000080fb000000e80080004000b1
:10501400601321000080400090007800e0ff2f0022
:105024008088b90080007800000022008080400061
:105034000200e8000001400060132100000041006c
:1050440001087800e0152100104078000004e00019
:105054006d003a00c0152100104078000080fb006c
:10506400e30f50001b003200e30f500005003c002a
:105074000000e00059003500e10f50000a00340040
:105084000d003700e50f500020003200e50f5000fe
:1050940017003500e60f500023003200e70f5000e0
:1050a4004c00320058003700c01521001040780031
:1050b40029fe070054003700b089800061006000b9
:1050c4000000e0004700320020c0b30022fe0700c9
:1050d4004d003700b0898000620060000000e000ed
:1050e4004200320030c0b3001bfe07004600370008
:1050f400b0898000640060000000e0003d003200e0
:1051040040c0b30014fe07003f003700b0898000a0
:10511400680060000000e0003800320050c0b300b6
:105124000dfe070038003700218a8000d07a200065
:10513400808f500004003600218a8000a09920004e
:10514400808f50000200360010c0b3003cf0b7005e
:105154003cd0bf000004e000170032003ad0bf008a
:105164000004e0000400320010c0b3003af0b700bd
:105174000c30ef000e70ef000ed0bf000004e00012
:105184000d003200218a8000d07a2000808f5000e8
:1051940004003600218a8000a0992000808f5000ee
:1051a400040036003bd0bf000040e8003bf0b700ed
:1051b400010037003b70ef003bd0bf00e74f5000c9
:1051c40010003600518d80002000200001000100f5
:1051d4000d0037003cfe07000b0037000000000004
:1051e400090037000000000007003700000000003d
:1051f4000500370000000000030037000000000035
:105204000100370000000000c015210010407800a4
:105214008040e800c015210001487800c015210035
:1052240010407800e74f500012003600c0152100ee
:1052340011c0b30001487800e01521001040780047
:105244000004e0000b003200e0152100104078005b
:105254008040e900e015210001487800e0152100b4
:10526400104078000004e00002003a00d08a800078
:10527400000001000040eb00004f78000000eb004c
:10528400008b880003003700000000000100370095
:10529400000000001e4078004f0478000080fa00ef
:0452a4000000060000
:020000040000fa
:1052a8000200fa00517180000010200000806000a8
:1052b8000000e00010003a00f171800000022000b8
:1052c800008060000000e00005003200f1718000fd
:1052d80000042000008060000000e00003003a00a5
:1052e80030002000000f78001d0037000000eb00a0
:1052f800000f78001a003700f171800000042000c8
:10530800008060000000e0000b003a00f1718000ae
:1053180000022000008060000000e00003003a0066
:1053280030002000000f78000d003700200020001a
:10533800000f78000a003700f17180000002200099
:10534800008060000000e00003003a001000200028
:10535800000f78000200370030002000000f7800ae
:10536800808980009e0f5000050032009e00780062
:1053780081898800300020001082880002003700f0
:105388009e00780011828800918980001082800038
:10539800808f5000040032001082800090898800bd
:1053a80040c0b30058f0b70058d0bf000004e00078
:1053b8006200320058d0bf000040e90058f0b70042
:1053c80058d0bf000004e0005c003a001082800062
:1053d800e30f500004003a00518d8000d0012000f6
:1053e8000100010003003700618d8000d00120001a
:1053f80001000100218b800010828000808f500006
:105408004e00320010828000208b88005086800079
:105418000000010010828000e10f500003003200fc
:10542800308b80000000a100308b8800308b80001a
:10543800620060000000e000250032001082800059
:10544800c16b290000004000008040001000780077
:10545800e500b90001f62f0080804000f0382e00ea
:105468000008b8004308de006089880010828000c8
:10547800416c2900000040000080400010007800c6
:10548800e500b90001f62f0080804000f0382e00ba
:105498000008b8004308de00708988001082800088
:1054a800c16c290000004000008040001000780016
