:020000040000fa
:080000000002040000000000f2
:020000040000fa
:04000800b40300003d
:020000040000fa
:04000c00cc03000021
:020000040000fa
:04001000ea030000ff
:020000040000fa
:04001400be03000027
:020000040000fa
:04001800d60300000b
:020000040000fa
:04001c00e0030000fd
:020000040000fa
:04002000f4030000e5
:020000040000fa
:04002400fc040000d8
:020000040000fa
:04002800fc040000d4
:020000040000fa
:04002c00fc040000d0
:020000040000fa
:04003000fc040000cc
:020000040000fa
:040034007e03000047
:020000040000fa
:04003800fc040000c4
:020000040000fa
:04003c00fc040000c0
:020000040000fa
:04004000fc040000bc
:020000040000fa
:04004400fc040000b8
:020000040000fa
:04004800fc040000b4
:020000040000fa
:04004c00fc040000b0
:020000040000fa
:04005000fc040000ac
:020000040000fa
:040054006a0400003a
:020000040000fa
:04005800fe030000a3
:020000040000fa
:04005c00fc040000a0
:020000040000fa
:04006000fc0400009c
:020000040000fa
:04006400fc04000098
:020000040000fa
:04006800fc04000094
:020000040000fa
:04006c00fc04000090
:020000040000fa
:04007000fc0400008c
:020000040000fa
:04007400fc04000088
:020000040000fa
:04007800fc04000084
:020000040000fa
:04007c00fc04000080
:020000040000fa
:04008000fc0400007c
:020000040000fa
:04008400fc04000078
:020000040000fa
:04008800fc04000074
:020000040000fa
:04008c00fc04000070
:020000040000fa
:04009000fc0400006c
:020000040000fa
:04009400c60400009e
:020000040000fa
:04009800fc04000064
:020000040000fa
:04009c00fc04000060
:020000040000fa
:0400a000fc0400005c
:020000040000fa
:0400a400fc04000058
:020000040000fa
:0400a800fc04000054
:020000040000fa
:0400ac00fc04000050
:020000040000fa
:0400b000fc0400004c
:020000040000fa
:0400b400fc04000048
:020000040000fa
:0400b800fc04000044
:020000040000fa
:0400bc00fc04000040
:020000040000fa
:0400c000fc0400003c
:020000040000fa
:0400c400fc04000038
:020000040000fa
:0400c800fc04000034
:020000040000fa
:0400cc00fc04000030
:020000040000fa
:0400d000fc0400002c
:020000040000fa
:0400d400fc04000028
:020000040000fa
:0400d800fc04000024
:020000040000fa
:0400dc00fc04000020
:020000040000fa
:0400e000fc0400001c
:020000040000fa
:0400e400fc04000018
:020000040000fa
:0400e800fc04000014
:020000040000fa
:0400ec00fc04000010
:020000040000fa
:0400f000fc0400000c
:020000040000fa
:0400f400fc04000008
:020000040000fa
:0400f800fc04000004
:020000040000fa
:0400fc00fc04000000
:020000040000fa
:04010000fc040000fb
:020000040000fa
:04010400fc040000f7
:020000040000fa
:04010800fc040000f3
:020000040000fa
:04010c00fc040000ef
:020000040000fa
:04011000fc040000eb
:020000040000fa
:04011400fc040000e7
:020000040000fa
:04011800fc040000e3
:020000040000fa
:04011c00fc040000df
:020000040000fa
:04012000fc040000db
:020000040000fa
:04012400fc040000d7
:020000040000fa
:04012800fc040000d3
:020000040000fa
:04012c00b00400001b
:020000040000fa
:04013000fc040000cb
:020000040000fa
:04013400fc040000c7
:020000040000fa
:04013800fc040000c3
:020000040000fa
:04013c00fc040000bf
:020000040000fa
:04014000fc040000bb
:020000040000fa
:04014400fc040000b7
:020000040000fa
:04014800fc040000b3
:020000040000fa
:04014c00fc040000af
:020000040000fa
:04015000fc040000ab
:020000040000fa
:04015400fc040000a7
:020000040000fa
:04015800fc040000a3
:020000040000fa
:04015c00fc0400009f
:020000040000fa
:04016000fc0400009b
:020000040000fa
:04016400fc04000097
:020000040000fa
:04016800fc04000093
:020000040000fa
:04016c00fc0400008f
:020000040000fa
:04017000fc0400008b
:020000040000fa
:04017400fc04000087
:020000040000fa
:04017800fc04000083
:020000040000fa
:04017c00fc0400007f
:020000040000fa
:04018000fc0400007b
:020000040000fa
:04018400fc04000077
:020000040000fa
:04018800fc04000073
:020000040000fa
:04018c00fc0400006f
:020000040000fa
:04019000fc0400006b
:020000040000fa
:04019400fc04000067
:020000040000fa
:04019800fc04000063
:020000040000fa
:04019c00fc0400005f
:020000040000fa
:0401a000fc0400005b
:020000040000fa
:0401a400fc04000057
:020000040000fa
:0401a800fc04000053
:020000040000fa
:0401ac00fc0400004f
:020000040000fa
:0401b000fc0400004b
:020000040000fa
:0401b400fc04000047
:020000040000fa
:0401b800fc04000043
:020000040000fa
:0401bc00fc0400003f
:020000040000fa
:0401c000fc0400003b
:020000040000fa
:0401c400fc04000037
:020000040000fa
:0401c800fc04000033
:020000040000fa
:0401cc00fc0400002f
:020000040000fa
:0401d000fc0400002b
:020000040000fa
:0401d400fc04000027
:020000040000fa
:0401d800fc04000023
:020000040000fa
:0401dc00fc0400001f
:020000040000fa
:0401e000fc0400001b
:020000040000fa
:0401e400fc04000017
:020000040000fa
:0401e800fc04000013
:020000040000fa
:0401ec00fc0400000f
:020000040000fa
:0401f000fc0400000b
:020000040000fa
:0401f400fc04000007
:020000040000fa
:0401f800fc04000003
:020000040000fa
:0401fc00fc040000ff
:020000040000fa
:04020000fc040000fa
:020000040000fa
:04020400fc040000f6
:020000040000fa
:04020800fc040000f2
:020000040000fa
:04020c00fc040000ee
:020000040000fa
:04021000fc040000ea
:020000040000fa
:04021400fc040000e6
:020000040000fa
:04021800fc040000e2
:020000040000fa
:04021c00fc040000de
:020000040000fa
:04022000fc040000da
:020000040000fa
:04022400fc040000d6
:020000040000fa
:04022800fc040000d2
:020000040000fa
:04022c00fc040000ce
:020000040000fa
:04023000fc040000ca
:020000040000fa
:04023400fc040000c6
:020000040000fa
:04023800fc040000c2
:020000040000fa
:04023c00fc040000be
:020000040000fa
:04024000fc040000ba
:020000040000fa
:04024400fc040000b6
:020000040000fa
:04024800fc040000b2
:020000040000fa
:04024c00fc040000ae
:020000040000fa
:04025000fc040000aa
:020000040000fa
:04025400fc040000a6
:020000040000fa
:04025800fc040000a2
:020000040000fa
:04025c00fc0400009e
:020000040000fa
:04026000fc0400009a
:020000040000fa
:04026400fc04000096
:020000040000fa
:04026800fc04000092
:020000040000fa
:04026c00fc0400008e
:020000040000fa
:04027000fc0400008a
:020000040000fa
:04027400fc04000086
:020000040000fa
:04027800fc04000082
:020000040000fa
:04027c00fc0400007e
:020000040000fa
:04028000fc0400007a
:020000040000fa
:04028400fc04000076
:020000040000fa
:04028800fc04000072
:020000040000fa
:04028c00fc0400006e
:020000040000fa
:04029000fc0400006a
:020000040000fa
:04029400fc04000066
:020000040000fa
:04029800fc04000062
:020000040000fa
:04029c00fc0400005e
:020000040000fa
:0402a000fc0400005a
:020000040000fa
:0402a400fc04000056
:020000040000fa
:0402a800fc04000052
:020000040000fa
:0402ac00fc0400004e
:020000040000fa
:0402b000fc0400004a
:020000040000fa
:0402b400fc04000046
:020000040000fa
:0402b800fc04000042
:020000040000fa
:0402bc00fc0400003e
:020000040000fa
:0402c000fc0400003a
:020000040000fa
:0402c400fc04000036
:020000040000fa
:0402c800fc04000032
:020000040000fa
:0402cc00fc0400002e
:020000040000fa
:0402d000fc0400002a
:020000040000fa
:0402d400fc04000026
:020000040000fa
:0402d800fc04000022
:020000040000fa
:0402dc00fc0400001e
:020000040000fa
:0402e000fc0400001a
:020000040000fa
:0402e400fc04000016
:020000040000fa
:0402e800fc04000012
:020000040000fa
:0402ec00fc0400000e
:020000040000fa
:0402f000fc0400000a
:020000040000fa
:0402f400fc04000006
:020000040000fa
:0402f800fc04000002
:020000040000fa
:0402fc00fc040000fe
:020000040000fa
:04030000fc040000f9
:020000040000fa
:04030400fc040000f5
:020000040000fa
:04030800fc040000f1
:020000040000fa
:04030c00fc040000ed
:020000040000fa
:04031000fc040000e9
:020000040000fa
:100400006f4821000eff22000e018800000000004e
:10041000000020000000e000020032000001200087
:100420002002880014000700750107000000e000aa
:1004300003003a0040c723000100200002003700fb
:100440000000200001002000810f70000100320038
:100450000f000700100020000000e0000200320042
:10046000ce60020000000000305d020000000000cd
:100470000040da000000fe00601720000000e000ed
:1004800002003200002020009001880000000600d9
:10049000a1028800800478000000eb001f003700f4
:1004a000e284440054a0b4009905ba00e2844400f8
:1004b00054a0b4009906ba00e284440054a0b400e9
:1004c0000006eb00476fde00fd07b200ae018800ba
:1004d000636ce10003003a000ad801000000eb0061
:1004e0000e003700606ce10008003a00004deb00a0
:1004f0000a05e800020039003420ec000af0a000f0
:100500008b05e900f9ff3e00040037006168e10057
:10051000010032000086eb000b00070019c7ba008b
:100520000e04e0001905ba0003003a000a00e000da
:10053000dbff3a0000000600fe07b200ae028800b2
:100540008a047800f5ff37000cd0a300e20f4d00bd
:100550001c00390089027800354dba000a05e80010
:10056000020039003420ec000af0a0008b05e900fd
:100570000f003200254dba000a05e80002003900dc
:100580003420ec000af0a0008b05e90008003200de
:100590000c00e0000600320015cdba000a05e800a4
:1005a000020039003420ec000af0a0008b05e900bd
:1005b0008984e80054a0b4000b00e000e2ff3a0098
:1005c000000006009902ba00055d78008b05e9007d
:1005d000f7ff3200c82ade00055d78008b05e900d0
:1005e000f3ff32000c00e000f1ff320019ddba0029
:1005f000eeff3700000000000000000000000000d7
:1006000000000000000000000000000000000000ea
:1006100000000000000000000000000000000000da
:1006200000000000000000000000000000000000ca
:1006300000000000000000000000000000000000ba
:1006400000000000000000000000000000000000aa
:10065000000000000000000000000000000000009a
:10066000000000000000000000000000000000008a
:10067000000000000000000000000000000000007a
:10068000000000000000000000000000000000006a
:10069000000000000000000000000000000000005a
:1006a000000000000000000000000000000000004a
:1006b000000000000000000000000000000000003a
:1006c000000000000000000000000000000000002a
:1006d000000000000000000000000000000000001a
:1006e000000000000000000000000000000000000a
:1006f0000000000000000000000000003600f800cc
:10070000809fbe00829fbe00849fbe00869fbe0069
:100710000000fa00a08080000000e000020032002b
:10072000a0808000000001001048210010407800e7
:100730008040e8001048210001487800004821006e
:1007400011c0b300014878000068a9000080fa00d9
:100750004f03be004f02be004f01be004f00be005f
:100760003600f900004006003600f800c028a90055
:100770000000eb00882a0200000000003600f800ac
:10078000902a020000000000c048a90010002000cc
:10079000882a0200000000003600f800c068a900a6
:1007a00020002000882a0200000000003600f80027
:1007b000c088a90030002000882a02000000000044
:1007c0003600f800c0a8a90040002000882a0200d6
:1007d000000000003600f800c608a90070002000e4
:1007e000882a0200000000003600f800c488a90032
:1007f000a0002000882a020000000000809fbe00a8
:100800000000fa008194800070948000808f500076
:1008100010003a00919480000010200000806000d9
:100820000000e0000b003a00000000001111800001
:1008300000102000008060000000e000fbff32009c
:10084000909480000090a000909488002188a900d6
:100850001d0037000188a900140037008094800033
:10086000104078000080fb002011880080948000f8
:100870000000e800809488008194800040332100cb
:10088000808f500002003a004029210080948800a7
:10089000909480000080a100909488008194800052
:1008a00070948000808f500006003200111180008b
:1008b00000202000008060000000e000e7ff320020
:1008c00001003700000000000080fa004f00be0069
:1008d00000400600809fbe000000fa0018003700ac
:1008e00050948000311180008140780001487800e8
:1008f000509480000000e8005094880051948000db
:10090000c0332100808f500002003a0040332100a4
:1009100050948800909480000010a100909488006a
:100920005194800060948000808f500004003a0051
:10093000909480000000a00090948800040037008c
:1009400010118000610060000000e000e4ff3a0048
:100950000168a9000080fa004f00be0000400600b8
:10096000801f78000000fa00101180006200600013
:100970000000e000010032002222a9000828a9009e
:100980000080fa004f007800004006003600f800b2
:10099000809fbe00829fbe00849fbe00869fbe00d7
:1009a0000000fa00e08080000000e0000200320059
:1009b000e0808000000001005048210010407800d5
:1009c0008040e8005048210001487800404821005c
:1009d00011c0b300014878000368a9000080fa0044
:1009e0004f03be004f02be004f01be004f00be00cd
:1009f0003600f900004006000040da000000fe006a
:100a00000000050003f0a200889fbe008a9fbe0080
:100a10008c1f78001b010700220133006450e100a5
:100a20004f0032006420e1005200320003826c006b
:100a300007003b000905d0000306d000820f5400d8
:100a40000c065d00020039000200320089017800c6
:100a5000030678008582550004003d000003fd0078
:100a60008103fd008502ea008b854200840f72003d
:100a700002003b0060001000e08018006011b80028
:100a80000005eb007a28e1000a0039000600780032
:100a9000c75ddd00f707b200878075002d003700c5
:100aa000828171000a017800610560008180d100b7
:100ab0000080d3008502e900f9ff3b0006044000f6
:100ac0008784480002003b0060041400e0841c009e
:100ad0000988a300070032008a81710082817100b9
:100ae000610164008904d1000884d3008b05e8000b
:100af000170037000978a30013003a000b00e0004c
:100b0000130034008b05e9000804440089844c007c
:100b10000a4474000978a3000d003a000b00e000bd
:100b2000070034008b05e9000804440089844c0068
:100b300001003a000b0020000978a300f7ff320003
:100b40000001eb0002003700828171000a01780089
:100b5000910007000cf0a70001f0a000da003700b8
:100b60006420e10002003a00838f6c00da00330059
:100b70000801be000200be00d3003700889fbe00ff
:100b80008a9fbe008c1f7800be000700c50033009e
:100b900003866c006450e1002e0032006420e10006
:100ba000330032006150e1002f0032006120e1008b
:100bb0003100320085855500eb07b00009002000a8
:100bc00008042000050037000804440089844c0014
:100bd0000a0031000603430087834b0000015300e5
:100be00081815b00f8ff33000203be000800a00013
:100bf0000804440089844c00f6ff3900c639dd0042
:100c00008301730001003200130020008904d10029
:100c10000884d3000998a300050032000800a7004b
:100c20000300a0008904d1000884d3008b05e800ec
:100c30008904d1000884d3000001eb000281d200b6
:100c40005500070001f0a1000cf0a70001f0a00082
:100c50009d0037006420e1009f0032000801be00c3
:100c60000200be00f7ff37006120e1009a00320069
:100c70006000b800f3ff37000000200001f82700f3
:100c8000f0ff37001400200007023700f4ff2f00a8
:100c9000050237000001be00650007000470a700d0
:100ca00003f0a1006509b100160032000d00350007
:100cb0006828e10006003500f0ff2f00f1ff270053
:100cc0000300e00013003b000100280000000500c5
:100cd00000004000818048008502e900fcff3a00e6
:100ce00008003700f88f420002003c008000eb0053
:100cf000000005008100d1000080d3008502e800db
:100d0000fcff3a000300e00002003b00600010001e
:100d1000e0801800000006000001be00440007004b
:100d20000470a70003f0a10003f8a30013003a0029
:100d30006509b10010003200090035006928e100a2
:100d400002003500010028000000050000004000fe
:100d5000818048008502e900fcff3a00000006009f
:100d6000f88f4200050035008100d1000080d300db
:100d70008502e800fcff3a00000006008000eb005e
:100d8000000005004f89de0082017800e101370094
:100d90006011b800ef01370081002000618055002c
:100da0000b003d000b00200061fe2f000100e10060
:100db0001d00340082817100610164008904d1004a
:100dc0000884d3000000e800faff3a007100200018
:100dd000610064000300700002006000090032003e
:100de00061044400e0844c000988a500050032003d
:100df0008b05e8006808e10002003a008904d10090
:100e00000884d300f20f20000258e10005003d00e5
:100e1000c75ddd00f907b200898075000800780021
:100e2000000006000bf827008b007800000005008a
:100e3000c70ade00f107b200f50fb2000800320069
:100e4000e1cf4200020032000170a0002400050042
:100e5000810f700001003200040805004400050005
:100e6000810f700002003a00140005008502e900bd
:100e70000000400081c04800fcff3b000170a00062
:100e8000240005000004be00e9ff07000003be00c7
:100e90000405be000200be00e5ff0700844f750098
:100ea000000006000200be006450e10005003600ac
:100eb0006420e100020036000968a30001003a0046
:100ec0000800be000160a0004f0678004f05be007c
:100ed0004f04be0000000600f0ff2f00f1ff2700c6
:100ee000f9ff3700889fbe008a9fbe008c1f7800e4
:100ef000e4ff0700ebff330003866c006450e10061
:100f0000240032006420e100270032006150e1003b
:100f1000220032006120e100210032008b85420076
:100f2000eb07b1000134b800003ab80008044200f1
:100f300089844a00013ab8000030b8008880400037
:100f400009014a000400330000004000818048008d
:100f5000020149008b05e900c909dd008301700029
:100f60000100320013002000c814de004814dd0028
:100f70004709de001200b200c808de0008847000d5
:100f800085ff070001f0a1000cf0a70001f0a00010
:100f9000cdff37006120e100cfff32000801be0025
:100fa0000200be00f7ff37006150e100fcff3a008d
:100fb000c9ff37006022b800060220000000d00000
:100fc0008180d2000482d2008582d2000000a0007d
:100fd0000202520083825a000300310002024200e2
:100fe00083824a000000a1000603e900f3ff3a00f3
:100ff00000000600889fbe008a9fbe0030044200a9
:10100000b0844a0030054b0090854b006000b10071
:101010000898be000a90be000440e10005c8e10047
:1010200006d0e10007d8e10002003100680040006e
:101030001008e8004f05be004f04be000000060087
:10104000889fbe008a9fbe00100478009004900024
:1010500020059000b00590000418540005985c002d
:1010600006185d0007985d00110020000440e100b3
:1010700005c8e10006d0e10007d8e1000100390011
:101080008000eb00108810004f05be004f04be002a
:10109000000006001200fa00889fbe008a9fbe0072
:1010a0008c9fbe00e0b79f00f1b79f0082bf9f00fa
:1010b00093bf9f000605be000404be000000eb00c5
:1010c000d0b79f00c0b79f00b0b79f00a0b79f00e8
:1010d00090b79f00000678005fb19700cfb09700ef
:1010e000820141003fb097000200e00004003d0093
:1010f000370007007e805700beff0700030037005f
:10110000330007007e805700cdff0700dfb6970051
:101110000d00e0000c0035006fb29700ffb29700a1
:101120000fbb97009fbb970010002000010020001c
:101130006011b80000027200818272000203730025
:10114000838373001b0007000c06e80001042000e5
:10115000810f5600e0ff3a000d00e00004003d0062
:101160000802be000a03be007e805700a1ff0700f0
:101170005fa897000000e00005003a001fb297004a
:10118000afb297003fb39700cfb3970009000700b5
:101190006fb09700ffb097000fb997009fb9970005
:1011a0004f06be004f05be004f04be000080fa008f
:1011b000000006000100070000000600a4b79f0021
:1011c000b5b79f00c6b79f00d7b79f0000000600c5
:1011d0004f09de0082817100b3b79f004f01de002e
:1011e0008180400082807000a1b79f008fb097007f
:1011f0004f09de00000040000200700090b79f0021
:101200007fa897004f01de0081804000828070003f
:1012100081b79f000d0007004f3ade00000040003c
:1012200004007000f0af9f000800070004024200b5
:1012300085824a0006034b0087834b00dfff0700cf
:101240000802be000a03be00000006002fb297008d
:10125000bfb297004fb39700dfb3970000000600be
:10126000881f780018002000881f780089ff070079
:101270008f87e9004f04780000000600801feb0014
:1012800084ff07008f87e90000000600889fbe00ea
:101290008a9fbe00e00f5000e08f5800e00f590019
:1012a000e08f59000c003d006044b8006055b80064
:1012b0000000540081805c0002015d0083815d00bc
:1012c000180020001500070008003d001800070066
:1012d0000004eb00050037000004eb000f000700de
:1012e00002003d001200070018002000dcff07008c
:1012f0000800e000060032006022b8006033b80049
:101300000000520081805a0002015b0083815b0073
:101310004f05be004f04be0000000600e00f520063
:10132000e08f5a00e00f5b00e08f5b0000000600da
:101330006044b8006055b8000402540085825c0027
:1013400006035d0087835d0000000600889fbe00e5
:101350008a9fbe008c1f7800e00f5000e08f58007d
:10136000e00f5900e08f59000d003d006044b800c7
:101370006055b8000000540081805c0002015d00ef
:1013800083815d001c0020000820e10009a8e10025
:101390000ab0e1000bb8e1000d003d000800370085
:1013a0000006eb00e00f5200e08f5a00e00f5b00f8
:1013b000e08f5b0006003d006044b8006055b80057
:1013c0000402540085825c0006035d0087835d0093
:1013d000aaff07000c00e000060032006022b800ff
:1013e0006033b8000000520081805a0002015b00a7
:1013f00083815b004f0678004f05be004f04be009e
:1014000000000600889fbe008a9fbe008c1f7800e7
:101410000006eb00e00f5000e08f5800e00f59008d
:10142000e08f590007003d006044b8006055b800e7
:101430000000540081805c0002015d0083815d003a
:101440001c002000e00f5200e08f5a00e00f5b000c
:10145000e08f5b0007003d006044b8006055b800b5
:101460000402540085825c0006035d0087835d00f2
:101470000c00a200660007000c00e000060032002d
:101480006022b8006033b8000000520081805a002a
:1014900002015b0083815b004f0678004f05be00b0
:1014a0004f04be0000000600889fbe008a9fbe0059
:1014b000841f780073fe07004f007800110033008e
:1014c000f0ff2f00838f6c0006003b0004056500d1
:1014d0000a00a7000800370009f0a600100020004d
:1014e00008003700820f5400838f5c00030039002e
:1014f0001000200001003e000000200009f0a700bd
:101500000000ea004f05be004f04be000000e000ee
:1015100000000600881f7800030478000300e00044
:1015200007003d0060001000e08018006001190015
:10153000e081190002003b0001f02d00030037009c
:101540000400070008f0a70001f0a0004f04780095
:1015500000000600889fbe008a9fbe0000827000c7
:101560000402710004827100260032000004be00f3
:101570000200be006011b8006b0920009502200037
:101580000182cf000a0039000541b1000082cf007e
:10159000070039000541b1000982cf00040039007d
:1015a0000541b1000882cf00010039000541b100ba
:1015b00005425200120032000a003b008281710095
:1015c000610164008100d1000080d3008984d300d0
:1015d0000884d3008b05e8000442e800f7ff3a00d6
:1015e000070037000804440089844c0000004800cc
:1015f000818048008b05e9000442e900f9ff3a00c8
:10160000e5fd07004f05be004f04be0000000600c8
:10161000889fbe008a9fbe008c9fbe000404b80055
:101620000506b8008904460060854e000606b8002d
:101630000a054600e0854e000706b8008b05460007
:10164000040eb800890446000a854e00e0854d006e
:10165000050eb8000a0546008b854e00060eb80040
:101660008b0546000416b8000a0546008b854e001f
:101670000516b8008b054600041eb8008b05460011
:101680000800be000a01be004f06be004f05be00a6
:101690004f04be00000006000e00fa00889fbe0046
:1016a0008a9fbe008c1f7800a0bf9f0001047800b5
:1016b0000205be0080047800880078006c80570026
:1016c0003801070068066000000278000430a100bd
:1016d000e10f520013003a00f4815700080178002e
:1016e000afb8970009007800410007000000e00053
:1016f00002003a006000b800030037000fb89700fe
:101700009fb897009ffd0700c0b79f00d1b79f000b
:101710006fb19700ffb197000a0141008b8149002a
:1017200016003700e20f520018003a0014002000a3
:10173000f481570008017800afb8970009007800dd
:10174000a90307000000e00002003a006000b800b2
:10175000030037000fb897009fb8970089fd070076
:10176000c0b79f00d1b79f006fb19700ffb197003e
:1017700078805700360207000a01be004fb097007c
:10178000dfb09700c30107000d003700e30f5200e0
:1017900003003a000000200001f827000500370090
:1017a0006000b800e40f520005003a00f0ff2f007f
:1017b000f1ff2700c0b79f00d1b79f00020037009c
:1017c000c0b79f00d1b79f004fb09700dfb0970020
:1017d0000c00e0000100320001f0a2004f0678008a
:1017e0004f05be004f04be000080fa000000060056
:1017f000ea874700889fbe008a9fbe008c9fbe007c
:101800008e1f7800d0b79f00e2b79f0003047800d6
:10181000e722b900840678000006eb0001003700db
:101820001c002000810578008b00780000c3b30005
:10183000b14f1000faff3200000ceb0038147800b2
:10184000080578008004eb002a0037008d8f5400d3
:1018500018003d0072002000110009008204d80029
:101860000100e00003003a0064054500001deb00a4
:101870000015eb001b02fb00cfa2de000403b10049
:101880000580b100a2002000030020001a007800ab
:101890009a009000f4b79f0085bf9f005004070096
:1018a0007fb297008fba9700001d420001954a0051
:1018b0000d0037001000200001002000180c40002f
:1018c000589448008d8f540008003a0040c3b3007c
:1018d0009b4f100005003400120020000300200080
:1018e0001a0d41005a9549008904e8008b05e8006b
:1018f0001c0020001b4078008000fb000103b100a9
:10190000e98f5000d1ff36008d8f54000100340064
:101910008d047800e1c2b300814f500001003a000d
:101920008b05e8000900e0002c003a000b0078006d
:10193000050037000081eb008081eb00180c4100ae
:10194000589449001c0020008005780001c3b300b2
:10195000b0cf1000f7ff3200200037008d8f540009
:101960001d003d0072002000110009008204d80013
:101970000100e00003003a0064054500001deb0093
:101980000015eb007bfa97000402fb00cfa2de00fb
:101990000403b1000580b100a20020000300200074
:1019a0001a0078009a009000f4b79f0085bf9f004e
:1019b0000b0407007fb297008fba9700001d42000a
:1019c00001954a008904e8000080eb008080eb006c
:1019d000180c4000589448001c0020000b077800a9
:1019e0008e0578003b00fb000003b100e90f5000ba
:1019f000daff36008c0578007d0020001100090018
:101a00008d04d8000100e0001800320081865600e5
:101a10001a0178009a019000e00f5100e08f590000
:101a2000080032000d00e9004200dd00c143210042
:101a3000008040009000900010007800e80307004c
:101a4000008dbe00898446006168b900181c100032
:101a50001894180005003700e78454007200200035
:101a600003002000180c410058944900e68f5400f0
:101a700005003400aa0078002a007800e00f50002a
:101a8000e08f5800f4ff32000c00e0003400320018
:101a90001e40780051c6b300814f50000300320051
:101aa00051c4b300814f50002c003a005e457800cd
:101ab000b0c2b300804f550003003200d1c2b30062
:101ac000814f550002003a000e07e8000100370080
:101ad000004578000e0678006000b8008005eb0035
:101ae0000f003700f20f2e00535f2000820f5000ce
:101af000838f580009003c00a20020000300200052
:101b0000b70307000d01fb00cf91de000203b10017
:101b10000380b10002004000838048001b002000c9
:101b20000c0778000e067800bc4678000d01fb001b
:101b30000203b100e90f5100eaff3600d2c2b30040
:101b4000824f550002003a0060001000e08018004b
:101b5000180c400058944800010037008c057800ac
:101b6000efb197000300e000050032000b00e00039
:101b700001003a005fb797006fb097000e08780039
:101b800072002000110009008204d8004f0778007d
:101b90004f06be004f05be004f04be00af00b100af
:101ba00000000600889fbe008a9fbe008c9fbe007a
:101bb0000004780001067800980478008905780010
:101bc0000b0578008a057800bb4678000d00fb0005
:101bd000930007000000e000f9ff3a00d0c2b30014
:101be00080cf560003003a000b05780081002000ea
:101bf000050037008000eb00b0c2b30080cf560074
:101c000001003a000b0578001a407800e2c6b300e4
:101c1000824f500003003200e2c4b300824f5000f4
:101c200027003a008a0078005141780010c6b300be
:101c3000804f5100040032000000eb0013c4b300d9
:101c4000834f51005c003a0051417800e0c6b30078
:101c5000804f5100040032000000eb00e3c4b300e9
:101c6000834f510054003a008104780080c2b300d1
:101c7000d94f10000b003a00640545008a05780032
:101c8000ba4678000d00fb00570007000000e00096
:101c9000faff3a00f0c5b30080cf5600f7ff3200dc
:101ca00001003700890578004000200091c2b30090
:101cb0009bcf100040003a008b04e8003e00370044
:101cc00092c6b300824f50000300320092c4b300aa
:101cd000824f50003c003a005a417800e0c6b30001
:101ce000804f5100040032000000eb00e3c4b30059
:101cf000834f510030003a005a41780060c6b3006b
:101d0000804f5100040032000000eb0063c4b300b8
:101d1000834f510028003a008a04780001007800bf
:101d20003000b300d940780092c6b30082cf500093
:101d30000300320092c4b30082cf50001e003a006c
:101d40008900780051417800e3c6b300834f510009
:101d500003003200e3c4b300834f510016003a0081
:101d60005141780093c6b300834f51000300320005
:101d700093c4b300834f51000f003a0051417800e3
:101d800043c7b300834f51000300320043c5b30083
:101d9000834f510008003a005141780093c7b300c7
:101da000834f51000300320093c5b300834f5100ad
:101db00001003a008104e8000c00e0000500320058
:101dc000090e780003003700010078000000a00031
:101dd0008a047800090c78004f06be004f05be004b
:101de0004f04be00000006000003b1000b003500e8
:101df0009000b100080034008000b10007003500f9
:101e00009001b100040034007000b10003003500ff
:101e10009001b10001003c00100005000000050029
:101e20006900e100040035006d00e10003003400aa
:101e30000002b100010032000000050010000500a2
:101e40000600fa00881f78000004780088007800f7
:101e500068805700d2bf9f00e3bf9f00d8000700f3
:101e60005fb99700efb997001800780098009000cc
:101e70001cfc0700008cbe004fb99700cf91de001c
:101e800008007800720007004f0478000080fa0014
:101e9000000006000400fa00889fbe008a1f780038
:101ea000b0bf9f00c1bf9f000204be00e00f510001
:101eb000e08f5900600032006011b80071fb07002c
:101ec0000000e0005c003200e00f5400e08f5c0096
:101ed0002b003d0060041400e0841c000005eb00b2
:101ee0000000200001f823000808a30006003200cb
:101ef000c251dd00c24521000281410092019000e3
:101f000012017800f7fb07008904d1000884d30090
:101f1000e00f5400e08f5c00030032000a05e80087
:101f2000e50f5500f0ff3a000001be000000200060
:101f300001f8230011fb07000001be006a80570072
:101f4000bfff07000000e00033003d00e00f540039
:101f5000e08f5c0038003200e2112b00f3a4200077
:101f60006a805700b6ff07000000e0002a003d002d
:101f700061045400e0845c00f7ff3a002a00370057
:101f80000005eb000000200001f823000808a30072
:101f900006003200c251dd00c2452100028141002d
:101fa0009201900012017800cefb07008984d100d5
:101fb0000884d300e00f5400e08f5c00030032007f
:101fc0000a05e800e50f5500f0ff3a000001be00e9
:101fd0006a8057009aff07000000e0000e003d00f5
:101fe000e00f5400e08f5c0013003200e25a2c0036
:101ff000d34927006a80570091ff07000000e000e6
:1020000005003d0061045400e0845c004240a900ea
:10201000f6ff3c00040037000000e00002003a0038
:102020000001200003003700e10f500002003a00d9
:1020300080002000860007003fb89700cfb89700c7
:102040004f0578004f04be000080fa000000060033
:102050000400fa00889fbe0000047800880478001d
:10206000590078004702de0084007800f10fb200ca
:10207000e14f420009003a0080007800f107b20009
:10208000200020004b003a00100020001800e00063
:102090004800320020002000460037000100e00028
:1020a0000a003a0008007800c2bf9f00d3bf9f001b
:1020b00077000700800078000000eb004fb9970020
:1020c000dfb997000100e0003a003c004f88de00d5
:1020d0000281400083014800e00f2000800f510082
:1020e000e08f59000a0034001900e00003003d00b1
:1020f0000000200001f82f0002003700000020003f
:1021000001f82700008cbe001000200029003700d5
:10211000e00f5100e08f5900050034004711dd0049
:10212000f007280019006000800c710020003700c3
:10213000990078000000280000806000f10fb200d4
:102140000170a000810c780061015100e08159000c
:10215000f70f4100e08f490004003d00800c78003b
:10216000000ceb000000eb0012003700ef0f410005
:1021700003003d00010c7800800ceb007001410071
:102180000201ea0009003200f00011009901780014
:102190008119dd00980078008208de00018c710052
:1021a000990078000209de00820c7800990c70001a
:1021b0000080eb004f04be000080fa000000060023
:1021c000889fbe000004be0000f827005900600090
:1021d0004700de00f20f2000820f50000a003a0094
:1021e000000ceb00f2072000190161002000200024
:1021f00015003a00100020001100e000120032002b
:1022000020002000100037000000e00004003a0029
:10221000010078001e0007000000e00008003c00fc
:10222000f20728001901610001f02300810c710000
:1022300021f82f00010c40000080eb000200370065
:10224000000ceb000000eb004f04be000000060095
:10225000e50060000300320010022000c0a38800e7
:10226000000006007800600002003200200220001a
:10227000c0a3880000000600d0a380000000e0009a
:10228000010032000000010080472100000006002c
:1022900080007800d10178000400280004826100e9
:1022a000f307b20083087800120020000e003a0005
:1022b000900178000300e0001b00320083087800e2
:1022c0000008eb0012ff2f00070037008381410058
:1022d00090027800cf2ade00858871009001780096
:1022e000038841000201e90091017800f507200010
:1022f000858f5100f5ff360005003700cf19dd004e
:102300009002d100058871009108d1000201e80017
:1023100091017800f50f2000858f5100f7ff3e00f6
:10232000f0072000808861009108720002007800a8
:1023300000000600ee874700889fbe008a9fbe000f
:102340008c9fbe008e1f7800f0b79f0001067800ba
:102350008205780000047800080578000a047800f7
:10236000b84678000d00fb00adfe07000000e0005d
:10237000f9ff3a00d0c2b30080cf5600030032000c
:1023800000c0e90080cf560002003a000a05e800cc
:1023900001003700804678000b00e00005003500a2
:1023a000e18f55000300320040022000808f55006d
:1023b000060034006044b8000c00e00072003200f7
:1023c0007fb09700000e7800480037000b00e00057
:1023d0000e003200f08f55001a003a0000c3b3001f
:1023e0009a4f100017003a001a40900081c7b300be
:1023f000814f50000300320081c5b300814f50006f
:1024000010003a000a85e8000e003700ab002000fb
:1024100000c3b3009a4f10000a003a001a4090001f
:1024200081c7b300814f5000040032008b002000b0
:1024300081c5b300814f500002003a000a85e800d0
:102440000b0120000a0078000002780004007800e8
:1024500001c3b300b0cf1000fbff320004077800c7
:102460006044b800b4b79f000d003700c1332100ad
:1024700081405000c1ef9f006159b9000800be00c3
:10248000570107004fea97000401fb00cf91de00df
:10249000c8b79f00d9b79f0002044000838448005a
:1024a0008e0278003e00fb0085bf9f003d000700c4
:1024b0000b01780080007800c03321004000070045
:1024c0008fba97000000e000e8ff3a003fb29700a3
:1024d000850f550007003a006044b8000c00e0008a
:1024e00029003200ffb29700050e78006044b80062
:1024f0002500370004825200103621000b004000f6
:102500001000fb00000252001700330011003a00d7
:102510004fe997000200fb00cf80de00000054006e
:1025200081805c00800f5400818f5c0009003900bd
:102530006159b90085bf9f009efa07008fba9700c6
:102540004fb19700dfb19700820f5000838f580082
:102550000500320020022000c0a388000084eb00a8
:102560008084eb0005003700d0c2b30080cf560056
:1025700002003a0060041400e0841c000c00e0003b
:1025800001003200050e78000800be004f077800f9
:102590004f06be004f05be004f04be00ef00b10065
:1025a00000000600800078001104b100030035002f
:1025b0009101b10001003c000050a00000000600a5
:1025c00003003700b0cf1000050032000201e9001f
:1025d000800178000200e000faff3a0000000500e8
:1025e0000300780000000600e8874700889fbe00cf
:1025f0008a9fbe008c9fbe008e1f7800e0b79f00b0
:102600008204780003047800e722b9000006eb009a
:10261000010037001c0020008101780000c3b300d6
:10262000b14f1000fbff3200000ceb0038147800b3
:10263000880578000005eb002c003700840f55005a
:1026400017003d0072002000110009000205d800ab
:102650000100e00003003a00e4854500801deb0026
:102660008015eb001b0678009b069000446bdd0094
:10267000cc63de00870373004463dd00013e21006c
:1026800001805200a13c2100008040001000fb00ae
:10269000cf80de00801d430081954b001100370084
:1026a0001000200001002000180c40005894480041
:1026b000840f55000c003a00013e210001805200b9
:1026c000a13c21000080400071c0b30090cf1000f9
:1026d0000500340010002000010020009b0d400088
:1026e000db9548000a05e8001c00200083067800fe
:1026f0008d017800334778008e00fb0062012000d6
:10270000003e2100f3b79f0084bf9f00acff07008d
:1027100080027800ffb197000fba97000500e00033
:10272000c6ff3a00840f550001003400040578000c
:10273000e0c2b300804f570001003a008d06e80068
:102740000a00e0002a003a000d007800050037007a
:102750000081eb008081eb00180c41005894490087
:102760001c0020008006780001c3b300b0cf100029
:10277000f7ff32001e003700840f55001b003d009c
:1027800072002000110009000205d8000100e000dd
:1027900003003a00e4854500801deb008015eb0046
:1027a0001b0378009b0390004439dd00cc31de0030
:1027b000830171004431dd00013e2100018052009f
:1027c000a13c2100008040001000fb00cf80de0013
:1027d000801d4100819549000a05e8000081eb0059
:1027e0008081eb00180c4100589449001c00200027
:1027f0000d0778008e067800bd00fb006201200006
:10280000003e210084bf9f006dff0700800278001a
:102810000fba97000500e000d7ff3a000c017800de
:1028200073002000110009000305d8000100e0003a
:102830001400320001805100c200dd001b0278004c
:102840009b0290008100e900030033000402420073
:1028500085824a00fbff3700848dbe000a054000d8
:10286000cf80de00181c10001894180005003700f7
:10287000670555007000200001002000180c400082
:1028800058944800e60f550005003400ab0078006e
:102890002b007800e00f5000e08f5800f4ff32006a
:1028a0001800780098009000420add00ce02de0099
:1028b000850272004202dd00048cbe000c00e000c4
:1028c000380032001e40780001c7b300814f50002d
:1028d0000300320001c5b300814f500030003a00c0
:1028e0000e067800dc457800b0c2b30080cf5500fa
:1028f00003003200d1c2b30081cf550002003a007c
:102900000c06e80001003700804578006000b80040
:102910000001eb0013003700f20f2e00535f200080
:10292000820f5000838f58000d003c00a200200051
:102930000300200084bf9f00f5b79f002800070018
:102940000d01fb00cf91de000203b1000380b10056
:102950000200400083804800ffb297000fba970042
:10296000120020000c0778000e067800bc467800a4
:102970008d01fb000303b100e98f5100e6ff360033
:10298000d3c2b30083cf550002003a0060001000ac
:10299000e0801800041c4000059448000100370046
:1029a0000c0178000900e000040032000200e000a1
:1029b00001003a006fb797008e0c7800720020007b
:1029c000110009000205d8004f0778004f06be002d
:1029d0004f05be004f04be008f00b100000006008e
:1029e000020ab900001bb9000200b80081004200d1
:0829f000810043000000060015
:020000040000fa
:1029f80045450000570000004c410000560000000b
:102a0800534100004e490000005500004e4b0000a5
:102a18004e4f000000450000303000000044000028
:102a28000057000000450000004800000046000074
:102a380000410000005a0000004f0000360000006e
:102a48004f350000004f0000310000004f320000f9
:102a5800004f0000330000004f3400000053000016
:102a6800360000005335000000530000310000001c
:102a780053320000005300003300000053340000bc
:102a88000052000000500000004900000043000010
:102a980000560000004d00000054000000550000e2
:102aa80000420000004a0000002c0000090000005d
:102ab8005858000000200000003100002c090000d8
:102ac800003000002c090000004600004c4f0000b8
:102ad800574f0000464600002c0900000042000045
:102ae800554f00002c09000000420000554300002b
:102af8002c09000000420000444f00002c0900008f
:102b080000420000444300002c090000004200007d
:102b1800454f00002c09000000420000454300001a
:102b28002c090000000d00000a0000000000000051
:102b3800000000000000000000000000000000008d
:102b4800000000000001000000000000000000007c
:102b5800000000000100000000000000010000006b
:102b6800000000000100000000010000000100005a
:102b7800000000000001000000010000000100004a
:102b88000001000000010000000100000001000039
:102b98000100000001010000010000000101000027
:102ba8000100000001010000010100000101000016
:102bb8000001000001010000010100000101000006
:102bc80001010000010100000101000001000000f6
:102bd800c0f90000a4b000009992000082f800003b
:102be8008090000000000000060000001f000000a8
:102bf80005000000020000002b0000004a01000050
:102c0800090000001c0000001b0000000300000079
:102c180004000000190000001a0000001c00000059
:102c28001b00000003000000040000001900000061
:102c38001a00000006000000060000000600000060
:102c48000600000006000000060000000600000064
:102c58000600000008000000060000003700000021
:102c6800380000000600000007000000080000000f
:102c78000b00000011000000130000000800000015
:102c8800090000000a0000000b0000000c00000012
:102c98000d0000000e0000000f00000010000000f2
:102ca8001100000012000000130000005500000091
:102cb800500000008c0000000000000055000000db
:102cc80096000000b400000000000000550000005d
:0c2cd800690000008c00000000000000fb
:020000040000fa
:102ce4000200fa00004f78001e80fb0061006000c3
:102cf400004078000004e00002003200190ea80031
:102d040001003700190ea9001e80fb00620060005c
:102d14000000e00002003200192ea8000100370074
:102d2400192ea9001e80fb00640060000000e00072
:102d340002003200194ea80001003700194ea90004
:102d44001e80fb00680060000000e000020032000a
:102d5400196ea80001003700196ea9001e80fb003f
:102d6400700060000000e00002003200198ea8002c
:102d740001003700198ea9009e80fb00000220008c
:102d8400008060000000e000020032007ceea80039
:102d9400010037007ceea9009e80fb0000042000a7
:102da400008060000000e000020032007d2ea800d8
:102db400010037007d2ea9001e4078000004e000c9
:102dc40002003d002daea800010037002daea90081
:102dd4000080fa00000006000200fa00000f7800ec
:102de4001e007800c200de00b04721000008b800d1
:102df4000100d100c15e29000080400090407800ad
:102e040000082100014878001e017800c210de008d
:102e1400b04721000008b8008100d100400620001e
:102e24008088b90000005100000f78009e007800ef
:102e3400d0cc2c000008b8004308de00c15e290095
:102e4400008040009040780010082100014878007c
:102e54001e017800d0cc2c000010b8004308de001e
:102e6400ea00b90000005100c15e29000080400062
:102e7400904078002008210001487800d088800024
:102e8400610060000000e00006003200200821001c
:102e940010407800804078000174a10020082100cf
:102ea400014878000080fa00000006000200fa00e1
:102eb400000f78009e007800803e2000000178001a
:102ec400110009008280d8008000fd00000f780006
:102ed4001e007800c200de00b04721000008b800e0
:102ee4000100d100c15e29000080400090407800bc
:102ef40000082100014878001e017800c210de009d
:102f0400b04721000008b8008100d100400620002d
:102f14008088b90000005100000f78009e007800fe
:102f2400d0cc2c000008b8004308de00c15e2900a4
:102f3400008040009040780010082100014878008b
:102f44001e017800d0cc2c000010b8004308de002d
:102f5400ea00b90000005100c15e29000080400071
:102f64009040780020082100014878000080fa0091
:102f7400000006000400fa00004f78001147980092
:102f840022479800000821001e48780010082100fc
:102f94009e4090000148780020082100ae40900037
:102fa400014878000080fa00000006000000fa00e2
:102fb400b0838000610060000000e0004100320046
:102fc40012d0bf000040e80012f0b70012d0bf00da
:102fd4000080fb00e30f500026003200e30f500096
:102fe40005003c00e10f500008003200e20f5000e1
:102ff4001300320037003700e40f50002a0032007b
:10300400e50f50002c003200320037002c8ea8004f
:103014002caea8000008210010407800e14f4000c9
:1030240002003a002c6ea8002a0037000008210094
:10303400104078002aff07002c6ea90025003700f5
:103044002c6ea8002caea8001008210010407800b7
:10305400e14f400002003a002c8ea8001d0037000a
:1030640010082100104078001dff07002c8ea900d5
:10307400180037002c6ea8002c8ea8002008210010
:1030840010407800e14f400002003a002caea80046
:1030940010003700200821001040780010ff0700be
:1030a4002caea9000b0037002c6ea8002c8ea800b3
:1030b4002caea800070037001270ef0000000000db
:1030c400040037001270ef002c6ea8002c8ea800ac
:1030d4002caea8000080fa00000006000000fa00f0
:1030e4000000eb0090848800e0082100a1c0b30038
:1030f40001487800c05d2000c084880080a92300b6
:10310400f08488000080fa00000006000000fa0045
:103114000000eb00a0848800f0082100a1c0b300e7
:1031240001487800c05d2000d084880080a9230075
:10313400008588000080fa00000006000000fa0004
:103144000000eb00b084880000092100a1c0b30096
:1031540001487800c05d2000e084880080a9230035
:10316400108588000080fa00000006000000fa00c4
:1031740020848000e20f500022003a00100020005a
:103184002084880080a9230050848800b0838000b4
:103194000010a100b0838800b08380000000a0006c
:1031a400b083880090848000e10f50000300320057
:1031b40090848000e20f500002003a0030002000aa
:1031c40090848800a0848000e10f50000300320046
:1031d400a0848000e20f500002003a00300020007a
:1031e400a0848800b0848000e10f50000300320006
:1031f400b0848000e20f500002003a00300020004a
:10320400b08488000080fa00000006000000fa0084
:1032140090848000e20f50007f003200e20f5000e3
:1032240005003e000000e00008003200e10f5000fd
:1032340037003200cb003700e30f5000a600320005
:10324400e40f5000b7003200c6003700b1708000b0
:1032540000042000008060000000e00028003a0024
:10326400e0082100104078008080fb008100e90024
:10327400cf08de00814078000041e900e008210029
:10328400024878000104e0001a0032001000200017
:103294009084880020848000e20f500003003a00ec
:1032a4000000eb0020858800100037002084800097
:1032b4000000e00003003a000000eb009084880066
:1032c4000a00370020848000e30f500007003a0012
:1032d4000000eb0090848800100020002084880007
:1032e400b08380000000a000b083880080a9230080
:1032f40050848800c0d4210040848800a400370092
:10330400e0082100a1c0b30001487800a000370004
:10331400b170800000042000008060000000e00024
:103324002b003a0020848000e20f500016003a007f
:10333400208580000000e000040032002085800029
:103344000000e900208588000f003700a00f20004e
:1033540020858800c183800010878000808f500002
:1033640009003100b08380000010a000b083880001
:10337400c08380000000e800c0838800618580006d
:10338400c083800001000100c084800080007800b8
:1033940001f0a7008100ea008100e900cf08de0007
:1033a400814078000000e900c08488000104e00046
:1033b4006e003200c05d2000c084880080a9230014
:1033c400f08488002000200090848800700037007a
:1033d40042ff070020848000e10f500065003a009e
:1033e400c0888000e10f500003003200c0888000d4
:1033f400e20f500061003a00200020002084880081
:10340400c0838000d08388002c6ea8002c8ea80076
:103414002caea8005e003700b170800000042000cc
:10342400008060000000e00029003a002084800051
:10343400e20f50001f003a00208580000000e000e9
:1034440004003200208580000000e9002085880007
:103454000c0037002003200020858800c1838000f1
:1034640010878000808f500006003100c0838000e8
:103474000000e800c083880061858000c08380006c
:1034840001000100f08480000000e900f08488005d
:10349400f08480000000e0000a003a00f18a800015
:1034a400c001200001000100400020009084880039
:1034b4000400370080a92300f08488003000200035
:1034c40090848800c0d421004084880030003700f4
:1034d40002ff07002e003700b170800000042000b6
:1034e400008060000000e0000c003a00f0848000de
:1034f4000000e900f0848800f08480000000e0000f
:1035040020003a00f18a8000c0012000010001007f
:1035140040002000908488001d003700effe070063
:103524001b003700b17080000004200000806000a0
:103534000000e00015003200a0848000e40f500079
:1035440006003200b0848000e40f50000300320013
:10355400018b8000c001200001000100dffe070094
:103564000b003700ddfe07000900370000000000f3
:1035740007003700000000000500370000000000cd
:1035840003003700000000000100370000000000c5
:10359400a0848000e20f50007f003200e20f500050
:1035a40005003e000000e00008003200e10f50007a
:1035b4003700320013013700e30f5000ee003200f1
:1035c400e40f5000ff0032000e013700b17080009c
:1035d40000022000008060000000e00028003a00a3
:1035e400f0082100104078008080fb008100e90091
:1035f400cf08de00814078000041e900f008210096
:10360400024878000104e0001a0032001000200093
:10361400a084880020848000e20f500003003a0058
:103624000000eb0030858800100037002084800003
:103634000000e00003003a000000eb00a0848800d2
:103644000a00370020848000e30f500007003a008e
:103654000000eb00a0848800100020002084880073
:10366400b08380000000a000b083880080a92300fc
:1036740050848800c0d4210040848800ec003700c6
:10368400f0082100a1c0b30001487800e800370029
:10369400b170800000022000008060000000e000a3
:1036a4002b003a0020848000e20f500016003a00fc
:1036b400308580000000e000040032003085800086
:1036c4000000e900308588000f003700a00f2000bb
:1036d40030858800c183800000878000808f50007f
:1036e40009003600b08380000010a000b083880079
:1036f400c08380000000e900c083880061858000e9
:10370400c083800001000100d08480008000780024
:1037140001f0a7008100ea008100e900cf08de0083
:10372400814078000000e900d08488000104e000b2
:10373400b6003200c05d2000d084880080a9230038
:103744000085880020002000a0848800b80037008d
:103754006efe070020848000e10f5000ad003a00a7
:10376400c0888000e10f500003003200c088800050
:10377400e20f5000a9003a002000200020848800b5
:10378400c0838000d08388002c6ea8002c8ea800f3
:103794002caea800a6003700b17080000002200003
:1037a400008060000000e00071003a002084800086
:1037b400e20f50001f003a00308580000000e00056
:1037c40004003200308580000000e9003085880064
:1037d4000c0037002003200030858800c18380005e
:1037e40000878000808f500006003600c083800070
:1037f4000000e900c083880061858000c0838000e8
:1038040001000100008580000000e90000858800b7
:10381400008580000000e00052003a00f18a800038
:10382400c00120000100010040002000a0848800a5
:103834004c003700d0888000620060000000e00087
:103844001c003a00d08880000010a000d0888800b6
:10385400c0838000e500b90001f62f00808040009d
:10386400f0382e000008b8004308de00c08388004a
:1038740000878000e500b90001f62f008080400039
:10388400f0382e000008b8004308de0000878800e6
:1038940010878000e500b90001f62f008080400009
:1038a400f0382e000008b8004308de0010878800b6
:1038b40021003700d08880000010a100d088880043
:1038c400c0838000e900b90080007800d0cc2c00cf
:1038d4000008b8004208de000002b000c08388007f
:1038e400c0888000a16529000000400000804000dd
:1038f4001000780000878800c088800021662900b5
:10390400000040000080400010007800108788000c
:10391400c183800000878000808f5000040039003c
:10392400c183800010878000808f50000200360021
:1039340000878000c0838800c0838000b08888002e
:10394400e08980000000010061858000c083800060
:103954000100010080a923000085880030002000b8
:10396400a0848800c0d4210040848800300037003f
:10397400e6fd07002e003700b17080000002200031
:10398400008060000000e0000c003a000085800028
:103994000000e90000858800008580000000e00048
:1039a40020003a00f18a8000c001200001000100db
:1039b40040002000a08488001d003700d3fd0700cc
:1039c4001b003700b17080000002200000806000fe
:1039d4000000e0001500320090848000e40f5000e5
:1039e40006003200b0848000e40f5000030032006f
:1039f400018b8000c001200001000100c3fd07000d
:103a04000b003700c1fd070009003700000000006b
:103a14000700370000000000050037000000000028
:103a24000300370000000000010037000000000020
:103a3400b0848000e20f500062003200e20f5000b8
:103a440005003e000000e00008003200e10f5000d5
:103a540045003200a0003700e30f50007b00320025
:103a6400e40f50008c0032009b003700f17180009d
:103a740000102000008060000000e00036003a00e2
:103a840000092100104078008080fb008100e900db
:103a9400cf08de00814078000041e90000092100e0
:103aa400024878000104e0008e003200100020007b
:103ab400b084880020848000e20f500013003a0094
:103ac400b08380000000a000b0838800b083800031
:103ad400620060000000e00009003200b083800052
:103ae4000010a100b0838800c0838000b0888800e3
:103af400e08980000000010086440200000000000c
:103b040010002000208488001000370020848000ea
:103b14000000e00003003a000000eb00b0848800dd
:103b24000a00370020848000e30f500007003a00a9
:103b34000000eb00b084880010002000208488007e
:103b4400b08380000000a000b083880080a9230017
:103b5400508488006a00370000092100a1c0b30026
:103b64000148780066003700f171800000102000e1
:103b7400008060000000e00010003a00e084800053
:103b84008000780001f0a7008100ea008100e900cc
:103b9400cf08de00814078000000e900e08488005e
:103ba4000104e00051003200c05d2000e084880080
:103bb40020002000b0848800510037005ffd07001a
:103bc4004f003700f1718000001020000080600079
:103bd4000000e0001b003a0020848000e10f500048
:103be40013003a00c0888000e10f500010003a0032
:103bf400d0888000610060000000e00004003a000a
:103c0400d08880000000a000d0888800030037001e
:103c1400d08880000000a100d0888800e08980005e
:103c24000000010061858000c08380000100010064
:103c340080a923001085880030002000b08488000b
:103c44002f0037003dfd07002d003700f171800083
:103c540000102000008060000000e0000c003a002a
:103c6400108580000000e900108588001085800020
:103c74000000e0001f003a00f18a8000c00120002b
:103c84000100010040002000b08488001c003700bf
:103c94002afd07001a003700f1718000001020008f
:103ca400008060000000e000140032009084800076
:103cb400e40f500006003200a0848000e40f50009e
:103cc40003003200018b8000c001200001000100cc
:103cd4001afd07000a00370018fd07000000000065
:103ce4000700370000000000050037000000000056
:103cf400030037000000000001003700000000004e
:103d04000080fa00000006000400fa00a08580008c
:103d140000000100208480000000e00051003a000f
:103d2400608480000000e0000400320060848000b1
:103d34000000e9006084880047013700a00f2000dc
:103d44006084880030082100104078000080fb0067
:103d5400e20f50001d003200e20f500005003c004d
:103d64000000e0000a003200e10f50000f003200b2
:103d740030003700e40f500022003200e40f5000fe
:103d84001a003500e50f50002400320029003700e6
:103d940083858000405f29001040780000c1eb005b
:103da40080c0eb00030001002800370083858000f9
:103db400405f29001040780000c1eb00804078008b
:103dc40000c0eb0003000100200037008385800061
:103dd400405f2900104078000041780080c0eb006b
:103de40000c0eb0003000100180037008385800049
:103df40000c1eb0080c0eb00f0c7b300030001007a
:103e0400120037008385800000c1eb00f1c7b300c6
:103e140000c0eb00030001000c0037008385800024
:103e2400f2c7b30080c0eb0000c0eb000300010048
:103e3400060037001000200020848800618580007f
:103e4400c083800001000100000000003008210050
:103e5400104078008040e8003008210001487800d4
:103e6400fd00370070142100104078000004e000c9
:103e7400ba0032007014210010407800e14f500065
:103e840029003a00800a2100104078000080fb00dd
:103e94000000e80080004000601421000080400021
:103ea40010007800e40f50001f003a0010868000d4
:103eb400610060000000e0001b003a0020848000e4
:103ec400e30f500004003a00b08380000020a100fa
:103ed400b083880021003700508480000000e00097
:103ee4000700320061858000c0838000010001006a
:103ef400508480000000e9005084880017003700d7
:103f0400300020002084880080a923005084880089
:103f1400b08380000000a100b0838800680ea80070
:103f2400682ea8000d00370080a923005084880063
:103f340020848000e30f500008003a00b083800022
:103f44000000a000b0838800b08380000020a1009e
:103f5400b0838800100020002084880050858000f1
:103f64000000e00004003200508580000000e900f9
:103f740050858800b8003700803e200050858800b6
:103f8400b08380004200de00614060000004a200b3
:103f9400614060000080fb00610060004200dd00c1
:103fa400b18380000120a10001007000b08388006b
:103fb4007014210010407800e14f500012003a00c4
:103fc400800a2100104078000080fb000000e80017
:103fd4008000400060142100008040001000780040
:103fe400e40f500008003a00108680006100600071
:103ff4000000e00004003a0061858000c083800076
:104004000100010094003700800a2100104078006c
:104014000080fb000000e8008000400060142100e4
:104024000080400010007800e40f500009003a00be
:1040340010868000610060000000e00005003a0086
:10404400800a2100104078008040e800800a2100a6
:1040540001487800b0838000640060000000e00044
:104064000600320083858000f2cab300f1cab300af
:1040740060c8b300030001000f003700800a21006c
:10408400104078000080fb000000e8008000400041
:104094006014210000804000100f780071858000ba
:1040a4001e00780000014000605f2900000041000c
:1040b4001000780001000100b083800064006000fb
:1040c4000000e0000600320083858000f2cab300dd
:1040d400f1cab30060c8b300030001005e003700fa
:1040e400800a2100104078000080fb000000e800f6
:1040f400800040006014210000804000900078009f
:1041040011079800718580001e0090000001400096
:10411400605f2900000041001000780001000100e8
:10412400800a2100104078008040e800800a2100c5
:1041340001487800800a2100904078007014210022
:104144001040780080cf500042003900800a2100de
:104154008040eb00014878003f0037002084800055
:10416400e20f500027003a00308480000000e9008c
:1041740030848800308480000000e0000c003a00a5
:10418400b0838000614060000004a20061406000d0
:104194000080fb0061006000b18380000100a10089
:1041a40001007000b0838800401f20003084880024
:1041b400408480000000e90040848800408480003e
:1041c4000000e00024003a00b08380000000a0005a
:1041d400b0838800100020002084880080a9230078
:1041e40050848800d0838000c0838800618580006b
:1041f400c083800001000100c0d4210040848800f5
:104204001500370020848000e10f500012003a00ae
:10421400508480000000e0000400320050848000dc
:104224000000e900508488000b00370030002000b3
:104234002084880080a9230050848800b0838000f3
:104244000000a100b0838800680ea800682ea800b2
:10425400010037000000000090858000000001008c
:104264000040eb000080fa00000006000600fa009f
:1042740010079800210798000000eb00000f780059
:104284000d0037001e0078009e0090000080400062
:1042940010407800804078002e019000001d21001d
:1042a40000004100114098002e0090000000e8003a
:1042b400200798001e0fe8001e0078009e00900062
:1042c40000804000104078000004e000edff3a0058
:1042d400ae009000001d2100008040008040eb00f3
:1042e400114098002e0090000080fa0000000600a3
:1042f4000a00fa0030079800014f9800124f980006
:104304000000eb00000f78000040eb00204798000d
:104314000040eb00304798000040eb004047980015
:104324003e0090000000e0000a003a004e40900079
:104334008000fb00001d21000080400001c3b30089
:10434400114098004e4090000040e800404798001b
:104354004b0037003e0090000000e00003003500f1
:104364001e4890000004e000090032004e40900016
:104374008000fb00001d210000804000d1c2b3007a
:10438400114098004e4090000040e80040479800db
:104394003e0090000000e00003003d003e0090005d
:1043a4000000ea00300798000040eb003047980016
:1043b40000712200000f78002a0037000040eb0053
:1043c400204798003e0090009e0f50000f003500db
:1043d40010c0b30030479800be0090001e00780063
:1043e40000017800110009008200d80020479800dd
:1043f4002e4090008000fb001e0078008088b900e9
:10440400be00900000805000300798002e409000bd
:104414000043b000204798003e4090000004e000b4
:10442400090032004e4090000001fb00ae409000b5
:10443400001d210000004100114098004e409000f2
:104444000040e800404798001e017800706626008e
:104454000090b900c288de004f90de00008050005a
:10446400000f78001e0078000000e0000400340013
:10447400ce4090000e48900080cf5000cfff350012
:104484004e4090008000fb00001d21000080400091
:104494008040eb00114098004e4090000080fa00ec
:1044a400000006000e00fa00881f780040079800fc
:1044b40051079800424f9800534f98000040eb007a
:1044c4002047980018c0b3006011b8004e00900057
:1044d400de00900042060200000000000000e00040
:1044e400010035000044eb000804e000070032003e
:1044f4004e009000de00900001f0a20040079800fa
:104504005107980010c0b300204798004e00900057
:10451400de0090004a060200000000002007980018
:10452400310798002e009000be009000c2060200e1
:10453400000000000001be004e009000de0090006c
:10454400020502000000000040079800510798008f
:104554002e0090002e419000ce48900064ff07008a
:10456400004f78004e4890009e40780080cf500065
:1045740006003d009e00fb00001d2100008040005d
:10458400e1c2b300114098001e4fe800ce489000ed
:104594001e40780000c05000104798009e409000d4
:1045a4005e48900080cf500002003400de48900046
:1045b400114798009e4090001e40780000c04000c3
:1045c4001047980022003700020020000312240044
:1045d4004e009000de009000720702000000000010
:1045e40040079800510798004e009000de009000ac
:1045f4004a060200000000002007980031079800d6
:104604001e01fb002e0090000040780003c3b3009d
:1046140083404000001d210000004100114098002b
:104624001e4fe8002e009000be009000c20602005b
:10463400000000000001be004e009000de0090006b
:10464400020502000000000040079800510798008e
:104654001e4090009e40780080cf5000daff350065
:104664001e4078004f0478000080fa000000060025
:104674000c00fa00881f78000040eb00004f78001f
:104684000040eb00204798000040eb0030479800c2
:104694000040eb00404798000040eb0010479800b2
:1046a4000040eb00504798000000eb0050079800d2
:1046b4006000b8003007980041079800708e8000b1
:1046c4000000e800708e8800608e8000e10f5000ca
:1046d40020023200e10f500003003900e20f5000c5
:1046e400500232006c033700f10f20001027210024
:1046f400d63f020000000000004f78001e40780002
:104704000004e0000a0032001027210090407800e5
:10471400f0c3b30080cf50005c033a0010002000c7
:10472400608e8800001d21001e4878005a0337005f
:10473400708e80000041eb0051c0b300ecfe070016
:10474400004f78001e80fb008000780090552900ff
:10475400c6fe0700004f78001e80fb008000780032
:10476400101d21004040020000000000c00b210089
:10477400104078000080fb000041eb0021c0b30032
:10478400dbfe0700004f78001e80fb0080007800ed
:1047940090552900b5fe0700004f78001e80fb00ed
:1047a40080007800101d210040400200000000003d
:1047b400f08c80005c330200000000005007980079
:1047c4005e0090000041eb0031c0b300c8fe07005a
:1047d400004f78001e80fb0080007800905529006f
:1047e400a2fe0700004f78001e80fb0080007800c6
:1047f400101d21004040020000000000b08880002d
:1048040050079800d0888000620060000000e0003b
:10481400080032005e009000e900b90080007800d2
:10482400d0cc2c000008b8004208de000002b00022
:10483400500798005e0090000041eb0031c0b300c7
:10484400abfe0700004f78001e80fb00800078005c
:104854009055290085fe0700004f78001e80fb005c
:1048640080007800101d210040400200000000007c
:1048740050878000610060000000e0000a00320000
:10488400808780005c33020000000000500798001d
:104894005e0090000041eb0031c0b30094fe0700bd
:1048a400004f7800040037008000eb00c055290059
:1048b4006efe0700004f78001e80fb008000780029
:1048c4009055290069fe0700004f78001e80fb0008
:1048d40080007800101d210040400200000000000c
:1048e40050878000620060000000e0000a0032008f
:1048f400908780005c33020000000000500798009d
:104904005e0090000041eb0031c0b30078fe070068
:10491400004f7800040037008000eb00c0552900e8
:1049240052fe0700004f78001e80fb0080007800d4
:10493400905529004dfe0700004f78001e80fb00b3
:1049440080007800101d210040400200000000009b
:1049540050878000640060000000e0000a0032001c
:10496400a08780005c33020000000000500798001c
:104974005e0090000041eb0031c0b3005cfe070014
:10498400004f7800040037008000eb00c055290078
:1049940036fe0700004f78001e80fb008000780080
:1049a4009055290031fe0700004f78001e80fb005f
:1049b40080007800101d210040400200000000002b
:1049c40050878000680060000000e0000a003200a8
:1049d400b08780005c33020000000000500798009c
:1049e4005e0090000041eb0031c0b30040fe0700c0
:1049f400004f7800040037008000eb00c055290008
:104a04001afe0700004f78001e80fb00800078002b
:104a14009055290015fe0700004f78001e80fb000a
:104a240080007800101d21004040020000000000ba
:104a340070142100104078000004e00005003a00e2
:104a4400709c80008000eb0008fe0700004f780097
:104a5400200037000000eb00500798000040eb00f6
:104a6400004f7800150037009e80fb005e00900028
:104a74000000e80000014000601421000000410033
:104a84001000780000014000e038210000004100df
:104a940010007800f5fd0700004f78001e80fb0031
:104aa40080007800f0552900f0fd0700004f7800e1
:104ab4005e0090000000e800500798007014210088
:104ac400104078008080fb005e009000808f5000d2
:104ad400e5ff3e001e80fb00800078009055290011
:104ae400e2fd0700004f78001e80fb008000780084
:104af400101d2100404002000000000000898000d9
:104b04001189800043c0b30062c0b30065fe070092
:104b1400004f78001e80fb0080007800905529002b
:104b2400d2fd0700004f78001e80fb008000780053
:104b3400101d210040400200000000002089800078
:104b44003189800043c0b30062c0b30055fe070042
:104b5400004f78001e80fb008000780090552900eb
:104b6400c2fd0700004f78001e80fb008000780023
:104b7400101d210040400200000000004089800018
:104b84005189800043c0b30062c0b30045fe0700f2
:104b9400004f78001e80fb008000780090552900ab
:104ba400b2fd0700004f78001e80fb0080007800f3
:104bb400101d2100404002000000000060898000b8
:104bc4007189800043c0b30062c0b30035fe0700a2
:104bd400004f78001e80fb0080007800905529006b
:104be400a2fd0700004f78001e80fb0080007800c3
:104bf400101d210040400200000000008089800058
:104c04009189800043c0b30062c0b30025fe070051
:104c1400004f78001e80fb0080007800905529002a
:104c240092fd0700004f78001e80fb008000780092
:104c3400101d21004040020000000000a0898000f7
:104c4400b189800043c0b30062c0b30015fe070001
:104c5400004f78001e80fb008000780090552900ea
:104c640082fd0700004f78001e80fb008000780062
:104c7400101d21004040020000000000700b2100c4
:104c8400104078000080fb000041eb0031c0b3000d
:104c940097fd0700004f78001e80fb00800078001d
:104ca4009055290071fd0700004f78001e80fb001d
:104cb40080007800101d2100404002000000000028
:104cc400d08b80000041eb0011c0b30088fd0700c9
:104cd400004f78001e80fb0080007800905529006a
:104ce40062fd0700004f78001e80fb008000780002
:104cf400101d2100404002000000000010708000e0
:104d040000407800614060000080fb000041eb003f
:104d140011c0b30076fd0700004f78001e80fb0031
:104d240080007800101d21004040020000000000b7
:104d3400907280004d00de00614060000080fb0046
:104d44000041eb0011c0b30069fd0700004f78007b
:104d54001e80fb0080007800101d210040400200ee
:104d640000000000d08b8000e10f50000c003200e6
:104d7400d08b8000e20f500009003200d08b8000fd
:104d8400e40f500006003200d08b8000e50f500085
:104d940003003200d08b8000e80f500005003a0079
:104da4008000eb001056290030fd0700004f78000a
:104db400040037008000eb00505629002bfd07004b
:104dc400004f78001e80fb0080007800101d210039
:104dd4004040020000000000108680006100600076
:104de4000000e0000c003200bc4c02000000000097
:104df40043c0b30062c0b300aafd0700004f7800af
:104e04001e80fb00800078009055290017fd0700e4
:104e1400004f7800040037008000eb009056290012
:104e240012fd0700004f78001e80fb008000780010
:104e3400101d21004040020000000000908480000a
:104e44000000e00005003a008000eb003057290024
:104e540006fd0700004f7800040037008000eb00d7
:104e64009057290001fd0700004f78001e80fb00c9
:104e740080007800101d2100404002000000000066
:104e8400a08480000000e00005003a008000eb00f0
:104e9400f0572900f5fc0700004f780004003700a4
:104ea4008000eb0050582900f0fc0700004f780008
:104eb4001e80fb0080007800101d2100404002008d
:104ec40000000000b08480000000e00005003a000b
:104ed4008000eb00b0582900e4fc0700004f780084
:104ee400040037008000eb0010592900dffc0700a4
:104ef400004f78001e80fb0080007800101d210008
:104f04004040020000000000c08880008000400093
:104f14006038210000804000100078008000eb0021
:104f2400d2fc0700004f78001e80fb008000780050
:104f340070592900cdfc0700004f78001e80fb004b
:104f440080007800101d2100404002000000000095
:104f540051013700001d2100104078008080fb00c3
:104f64001027210000804000f10f2000d63f0200ee
:104f740000000000004f78001e4078000004e000ac
:104f840044013200001d2100104078009e40400082
:104f9400001d2100014878000040eb00004f78001c
:104fa4001b0037001e80fb00810a20008080400027
:104fb400801c21000080400010409000ed4f500004
:104fc40012003a009e80fb00002721000080400070
:104fd4008040eb00114098008000eb0070592900dc
:104fe400a2fc0700004f78001e80fb0080007800c0
:104ff400101d21004040020000000000200020009d
:10500400608e880000000000230137001e4fe80076
:10501400001d2100104078009e4f5000e1ff3e002b
:105024001d01370020272100104078000080fb007c
:10503400a1052000810f500006013200a1052000c7
:10504400810f50000a003c0001052000810f500030
:105054002d00320061052000810f5000fa0032005b
:1050640061042000810f5000120032000401370057
:1050740001072000810f50002300320001072000a7
:10508400810f500004003c0061062000810f500095
:1050940008003200fa00370061072000810f500039
:1050a400e9003200a1072000810f5000e90032001e
:1050b400f3003700102721000080e800a200200040
:1050c4008000eb009a11020000000000000078004c
:1050d40000f0a7000000ea0080407800800b210067
:1050e40001487800800b21009040780080c7b3000d
:1050f40080cf5000db003600800b210081c7b30055
:1051040001487800de0037001027210001c2b300f7
:10511400014878002027210001c2b300014878002b
:105124000040eb0010479800030037001e40900039
:105134000040e800104798001e4090000080fb00eb
:10514400810a200080804000801c210000804000f3
:10515400104090000004e000f4ff3a009e409000ec
:10516400514798000040eb001047980003003700b7
:105174001e4090000040e800104798009e409000b8
:105184005e40900080cf50000a0031001e40900025
:105194000080fb00810a200080804000801c2100e8
:1051a400008040009040900000c2b30080cf5000c7
:1051b400efff32001e41900032479800be4090003d
:1051c4005e40900080cf5000a8003200be419000a5
:1051d40013479800030037001e4090000040e80089
:1051e400104798009e4090005e40900080cf500091
:1051f4000a0031001e4090000080fb00810a20005c
:1052040080804000801c210000804000904090007d
:1052140000c2b30080cf5000efff3a009e409000e0
:1052240021479800ae4090005e40900080cf50002f
:10523400900032002e4090008080fb000027210067
:10524400008040008040eb00114098002e40900008
:105254000040e80020479800112721003e409000bc
:105264000080fb0000804000a20020008000eb00d2
:105274009a11020000000000404798004e40900040
:10528400e54f500011003e004e4090000084fb00aa
:10529400112721002e4090000080fb000080400078
:1052a4006011b8008000eb004c0b0200000000000d
:1052b400c241dd0002122100028141000089be00ca
:1052c400e0898000000001006d0037004e4090002e
:1052d400e54f5000690036004e4090000080fb000e
:1052e400e70f500010003200e80f50003a0032007f
:1052f400e60f500001003200520037001127210050
:105304002e4090000080fb00008040006011b80037
:105314008000eb004c0b0200000000006086880057
:105324007186880047003700112721002e40900025
:105334000080fb00008040006011b8008000eb009a
:105344004c0b020000000000300798004107980051
:1053540018c0b300a2702d0033c223003e00900099
:10536400ce00900046060200000000000000e000ad
:1053740001003d000044eb000804e000110032008d
:1053840018c0b3000200200003f823003e00900080
:10539400ce00900042060200000000000000e00081
:1053a400010034000044eb000804e0000500320072
:1053b4003e019000ce01900082868800938688008a
:1053c40004003700d0cc2c00c1dc23008086880088
:1053d400918688001b003700112721002e40900081
:1053e4000080fb0000804000a20020008000eb0051
:1053f4009a11020000000000000078005007980095
:105404005e0090000000e00009003200de00900021
:1054140040062000808f500005003e005e00900092
:10542400ac33020000000000008e88000400370046
:1054340040062000ac33020000000000008e88000b
:10544400000000000e003700508e800000000100b4
:105454000b0037006000b800108e8800218e880091
:1054640007003700000000000500370000000000be
:1054740003003700000000000100370000000000b6
:105484000000eb00608e880003003700000000007d
:1054940001003700000000000040eb004f047800da
:1054a4000080fa00000006000200fa000040eb0051
:1054b400004f78001e80fb0080007800705929009e
